{
	"SyntheticAssetToken_flattened.sol": {
		"SyntheticAssetToken": {
			"abi": [
				{
					"inputs": [],
					"stateMutability": "nonpayable",
					"type": "constructor"
				},
				{
					"inputs": [
						{
							"internalType": "address",
							"name": "spender",
							"type": "address"
						},
						{
							"internalType": "uint256",
							"name": "allowance",
							"type": "uint256"
						},
						{
							"internalType": "uint256",
							"name": "needed",
							"type": "uint256"
						}
					],
					"name": "ERC20InsufficientAllowance",
					"type": "error"
				},
				{
					"inputs": [
						{
							"internalType": "address",
							"name": "sender",
							"type": "address"
						},
						{
							"internalType": "uint256",
							"name": "balance",
							"type": "uint256"
						},
						{
							"internalType": "uint256",
							"name": "needed",
							"type": "uint256"
						}
					],
					"name": "ERC20InsufficientBalance",
					"type": "error"
				},
				{
					"inputs": [
						{
							"internalType": "address",
							"name": "approver",
							"type": "address"
						}
					],
					"name": "ERC20InvalidApprover",
					"type": "error"
				},
				{
					"inputs": [
						{
							"internalType": "address",
							"name": "receiver",
							"type": "address"
						}
					],
					"name": "ERC20InvalidReceiver",
					"type": "error"
				},
				{
					"inputs": [
						{
							"internalType": "address",
							"name": "sender",
							"type": "address"
						}
					],
					"name": "ERC20InvalidSender",
					"type": "error"
				},
				{
					"inputs": [
						{
							"internalType": "address",
							"name": "spender",
							"type": "address"
						}
					],
					"name": "ERC20InvalidSpender",
					"type": "error"
				},
				{
					"anonymous": false,
					"inputs": [
						{
							"indexed": true,
							"internalType": "address",
							"name": "owner",
							"type": "address"
						},
						{
							"indexed": true,
							"internalType": "address",
							"name": "spender",
							"type": "address"
						},
						{
							"indexed": false,
							"internalType": "uint256",
							"name": "value",
							"type": "uint256"
						}
					],
					"name": "Approval",
					"type": "event"
				},
				{
					"anonymous": false,
					"inputs": [
						{
							"indexed": true,
							"internalType": "address",
							"name": "from",
							"type": "address"
						},
						{
							"indexed": true,
							"internalType": "address",
							"name": "to",
							"type": "address"
						},
						{
							"indexed": false,
							"internalType": "uint256",
							"name": "value",
							"type": "uint256"
						}
					],
					"name": "Transfer",
					"type": "event"
				},
				{
					"inputs": [
						{
							"internalType": "address",
							"name": "owner",
							"type": "address"
						},
						{
							"internalType": "address",
							"name": "spender",
							"type": "address"
						}
					],
					"name": "allowance",
					"outputs": [
						{
							"internalType": "uint256",
							"name": "",
							"type": "uint256"
						}
					],
					"stateMutability": "view",
					"type": "function"
				},
				{
					"inputs": [
						{
							"internalType": "address",
							"name": "spender",
							"type": "address"
						},
						{
							"internalType": "uint256",
							"name": "value",
							"type": "uint256"
						}
					],
					"name": "approve",
					"outputs": [
						{
							"internalType": "bool",
							"name": "",
							"type": "bool"
						}
					],
					"stateMutability": "nonpayable",
					"type": "function"
				},
				{
					"inputs": [
						{
							"internalType": "address",
							"name": "account",
							"type": "address"
						}
					],
					"name": "balanceOf",
					"outputs": [
						{
							"internalType": "uint256",
							"name": "",
							"type": "uint256"
						}
					],
					"stateMutability": "view",
					"type": "function"
				},
				{
					"inputs": [],
					"name": "decimals",
					"outputs": [
						{
							"internalType": "uint8",
							"name": "",
							"type": "uint8"
						}
					],
					"stateMutability": "view",
					"type": "function"
				},
				{
					"inputs": [],
					"name": "getLatestBtcPrice",
					"outputs": [
						{
							"internalType": "int256",
							"name": "",
							"type": "int256"
						}
					],
					"stateMutability": "view",
					"type": "function"
				},
				{
					"inputs": [],
					"name": "mintWithEther",
					"outputs": [],
					"stateMutability": "payable",
					"type": "function"
				},
				{
					"inputs": [],
					"name": "name",
					"outputs": [
						{
							"internalType": "string",
							"name": "",
							"type": "string"
						}
					],
					"stateMutability": "view",
					"type": "function"
				},
				{
					"inputs": [],
					"name": "owner",
					"outputs": [
						{
							"internalType": "address",
							"name": "",
							"type": "address"
						}
					],
					"stateMutability": "view",
					"type": "function"
				},
				{
					"inputs": [],
					"name": "symbol",
					"outputs": [
						{
							"internalType": "string",
							"name": "",
							"type": "string"
						}
					],
					"stateMutability": "view",
					"type": "function"
				},
				{
					"inputs": [],
					"name": "totalSupply",
					"outputs": [
						{
							"internalType": "uint256",
							"name": "",
							"type": "uint256"
						}
					],
					"stateMutability": "view",
					"type": "function"
				},
				{
					"inputs": [
						{
							"internalType": "address",
							"name": "to",
							"type": "address"
						},
						{
							"internalType": "uint256",
							"name": "value",
							"type": "uint256"
						}
					],
					"name": "transfer",
					"outputs": [
						{
							"internalType": "bool",
							"name": "",
							"type": "bool"
						}
					],
					"stateMutability": "nonpayable",
					"type": "function"
				},
				{
					"inputs": [
						{
							"internalType": "address",
							"name": "from",
							"type": "address"
						},
						{
							"internalType": "address",
							"name": "to",
							"type": "address"
						},
						{
							"internalType": "uint256",
							"name": "value",
							"type": "uint256"
						}
					],
					"name": "transferFrom",
					"outputs": [
						{
							"internalType": "bool",
							"name": "",
							"type": "bool"
						}
					],
					"stateMutability": "nonpayable",
					"type": "function"
				}
			],
			"devdoc": {
				"errors": {
					"ERC20InsufficientAllowance(address,uint256,uint256)": [
						{
							"details": "Indicates a failure with the `spender`’s `allowance`. Used in transfers.",
							"params": {
								"allowance": "Amount of tokens a `spender` is allowed to operate with.",
								"needed": "Minimum amount required to perform a transfer.",
								"spender": "Address that may be allowed to operate on tokens without being their owner."
							}
						}
					],
					"ERC20InsufficientBalance(address,uint256,uint256)": [
						{
							"details": "Indicates an error related to the current `balance` of a `sender`. Used in transfers.",
							"params": {
								"balance": "Current balance for the interacting account.",
								"needed": "Minimum amount required to perform a transfer.",
								"sender": "Address whose tokens are being transferred."
							}
						}
					],
					"ERC20InvalidApprover(address)": [
						{
							"details": "Indicates a failure with the `approver` of a token to be approved. Used in approvals.",
							"params": {
								"approver": "Address initiating an approval operation."
							}
						}
					],
					"ERC20InvalidReceiver(address)": [
						{
							"details": "Indicates a failure with the token `receiver`. Used in transfers.",
							"params": {
								"receiver": "Address to which tokens are being transferred."
							}
						}
					],
					"ERC20InvalidSender(address)": [
						{
							"details": "Indicates a failure with the token `sender`. Used in transfers.",
							"params": {
								"sender": "Address whose tokens are being transferred."
							}
						}
					],
					"ERC20InvalidSpender(address)": [
						{
							"details": "Indicates a failure with the `spender` to be approved. Used in approvals.",
							"params": {
								"spender": "Address that may be allowed to operate on tokens without being their owner."
							}
						}
					]
				},
				"events": {
					"Approval(address,address,uint256)": {
						"details": "Emitted when the allowance of a `spender` for an `owner` is set by a call to {approve}. `value` is the new allowance."
					},
					"Transfer(address,address,uint256)": {
						"details": "Emitted when `value` tokens are moved from one account (`from`) to another (`to`). Note that `value` may be zero."
					}
				},
				"kind": "dev",
				"methods": {
					"allowance(address,address)": {
						"details": "See {IERC20-allowance}."
					},
					"approve(address,uint256)": {
						"details": "See {IERC20-approve}. NOTE: If `value` is the maximum `uint256`, the allowance is not updated on `transferFrom`. This is semantically equivalent to an infinite approval. Requirements: - `spender` cannot be the zero address."
					},
					"balanceOf(address)": {
						"details": "See {IERC20-balanceOf}."
					},
					"decimals()": {
						"details": "Returns the number of decimals used to get its user representation. For example, if `decimals` equals `2`, a balance of `505` tokens should be displayed to a user as `5.05` (`505 / 10 ** 2`). Tokens usually opt for a value of 18, imitating the relationship between Ether and Wei. This is the default value returned by this function, unless it's overridden. NOTE: This information is only used for _display_ purposes: it in no way affects any of the arithmetic of the contract, including {IERC20-balanceOf} and {IERC20-transfer}."
					},
					"name()": {
						"details": "Returns the name of the token."
					},
					"symbol()": {
						"details": "Returns the symbol of the token, usually a shorter version of the name."
					},
					"totalSupply()": {
						"details": "See {IERC20-totalSupply}."
					},
					"transfer(address,uint256)": {
						"details": "See {IERC20-transfer}. Requirements: - `to` cannot be the zero address. - the caller must have a balance of at least `value`."
					},
					"transferFrom(address,address,uint256)": {
						"details": "See {IERC20-transferFrom}. Skips emitting an {Approval} event indicating an allowance update. This is not required by the ERC. See {xref-ERC20-_approve-address-address-uint256-bool-}[_approve]. NOTE: Does not update the allowance if the current allowance is the maximum `uint256`. Requirements: - `from` and `to` cannot be the zero address. - `from` must have a balance of at least `value`. - the caller must have allowance for ``from``'s tokens of at least `value`."
					}
				},
				"version": 1
			},
			"evm": {
				"assembly": "    /* \"SyntheticAssetToken_flattened.sol\":22544:24830  contract SyntheticAssetToken is ERC20 {... */\n  mstore(0x40, 0x80)\n    /* \"SyntheticAssetToken_flattened.sol\":22778:23129  constructor() ERC20(\"Synthetic Bitcoin\", \"sBTC\") {... */\n  callvalue\n  dup1\n  iszero\n  tag_1\n  jumpi\n  revert(0x00, 0x00)\ntag_1:\n  pop\n    /* \"SyntheticAssetToken_flattened.sol\":13090:13203  constructor(string memory name_, string memory symbol_) {... */\n  mload(0x40)\n  dup1\n  0x40\n  add\n  0x40\n  mstore\n  dup1\n  0x11\n  dup2\n  mstore\n  0x20\n  add\n  0x53796e74686574696320426974636f696e000000000000000000000000000000\n  dup2\n  mstore\n  pop\n  mload(0x40)\n  dup1\n  0x40\n  add\n  0x40\n  mstore\n  dup1\n  0x04\n  dup2\n  mstore\n  0x20\n  add\n  0x7342544300000000000000000000000000000000000000000000000000000000\n  dup2\n  mstore\n  pop\n    /* \"SyntheticAssetToken_flattened.sol\":13164:13169  name_ */\n  dup2\n    /* \"SyntheticAssetToken_flattened.sol\":13156:13161  _name */\n  0x03\n    /* \"SyntheticAssetToken_flattened.sol\":13156:13169  _name = name_ */\n  swap1\n  dup2\n  tag_5\n  swap2\n  swap1\n  tag_6\n  jump\t// in\ntag_5:\n  pop\n    /* \"SyntheticAssetToken_flattened.sol\":13189:13196  symbol_ */\n  dup1\n    /* \"SyntheticAssetToken_flattened.sol\":13179:13186  _symbol */\n  0x04\n    /* \"SyntheticAssetToken_flattened.sol\":13179:13196  _symbol = symbol_ */\n  swap1\n  dup2\n  tag_7\n  swap2\n  swap1\n  tag_6\n  jump\t// in\ntag_7:\n  pop\n    /* \"SyntheticAssetToken_flattened.sol\":13090:13203  constructor(string memory name_, string memory symbol_) {... */\n  pop\n  pop\n    /* \"SyntheticAssetToken_flattened.sol\":22845:22855  msg.sender */\n  caller\n    /* \"SyntheticAssetToken_flattened.sol\":22837:22842  owner */\n  0x07\n  0x00\n    /* \"SyntheticAssetToken_flattened.sol\":22837:22855  owner = msg.sender */\n  0x0100\n  exp\n  dup2\n  sload\n  dup2\n  0xffffffffffffffffffffffffffffffffffffffff\n  mul\n  not\n  and\n  swap1\n  dup4\n  0xffffffffffffffffffffffffffffffffffffffff\n  and\n  mul\n  or\n  swap1\n  sstore\n  pop\n    /* \"SyntheticAssetToken_flattened.sol\":22986:23028  0x694AA1769357215DE4FAC081bf1f309aDC325306 */\n  0x694aa1769357215de4fac081bf1f309adc325306\n    /* \"SyntheticAssetToken_flattened.sol\":22946:22961  ethUsdPriceFeed */\n  0x05\n  0x00\n    /* \"SyntheticAssetToken_flattened.sol\":22946:23029  ethUsdPriceFeed = AggregatorV3Interface(0x694AA1769357215DE4FAC081bf1f309aDC325306) */\n  0x0100\n  exp\n  dup2\n  sload\n  dup2\n  0xffffffffffffffffffffffffffffffffffffffff\n  mul\n  not\n  and\n  swap1\n  dup4\n  0xffffffffffffffffffffffffffffffffffffffff\n  and\n  mul\n  or\n  swap1\n  sstore\n  pop\n    /* \"SyntheticAssetToken_flattened.sol\":23079:23121  0x1b44F3514812d835EB1BDB0acB33d3fA3351Ee43 */\n  0x1b44f3514812d835eb1bdb0acb33d3fa3351ee43\n    /* \"SyntheticAssetToken_flattened.sol\":23039:23054  btcUsdPriceFeed */\n  0x06\n  0x00\n    /* \"SyntheticAssetToken_flattened.sol\":23039:23122  btcUsdPriceFeed = AggregatorV3Interface(0x1b44F3514812d835EB1BDB0acB33d3fA3351Ee43) */\n  0x0100\n  exp\n  dup2\n  sload\n  dup2\n  0xffffffffffffffffffffffffffffffffffffffff\n  mul\n  not\n  and\n  swap1\n  dup4\n  0xffffffffffffffffffffffffffffffffffffffff\n  and\n  mul\n  or\n  swap1\n  sstore\n  pop\n    /* \"SyntheticAssetToken_flattened.sol\":22544:24830  contract SyntheticAssetToken is ERC20 {... */\n  jump(tag_9)\n    /* \"#utility.yul\":7:106   */\ntag_10:\n    /* \"#utility.yul\":59:65   */\n  0x00\n    /* \"#utility.yul\":93:98   */\n  dup2\n    /* \"#utility.yul\":87:99   */\n  mload\n    /* \"#utility.yul\":77:99   */\n  swap1\n  pop\n    /* \"#utility.yul\":7:106   */\n  swap2\n  swap1\n  pop\n  jump\t// out\n    /* \"#utility.yul\":112:292   */\ntag_11:\n    /* \"#utility.yul\":160:237   */\n  0x4e487b7100000000000000000000000000000000000000000000000000000000\n    /* \"#utility.yul\":157:158   */\n  0x00\n    /* \"#utility.yul\":150:238   */\n  mstore\n    /* \"#utility.yul\":257:261   */\n  0x41\n    /* \"#utility.yul\":254:255   */\n  0x04\n    /* \"#utility.yul\":247:262   */\n  mstore\n    /* \"#utility.yul\":281:285   */\n  0x24\n    /* \"#utility.yul\":278:279   */\n  0x00\n    /* \"#utility.yul\":271:286   */\n  revert\n    /* \"#utility.yul\":298:478   */\ntag_12:\n    /* \"#utility.yul\":346:423   */\n  0x4e487b7100000000000000000000000000000000000000000000000000000000\n    /* \"#utility.yul\":343:344   */\n  0x00\n    /* \"#utility.yul\":336:424   */\n  mstore\n    /* \"#utility.yul\":443:447   */\n  0x22\n    /* \"#utility.yul\":440:441   */\n  0x04\n    /* \"#utility.yul\":433:448   */\n  mstore\n    /* \"#utility.yul\":467:471   */\n  0x24\n    /* \"#utility.yul\":464:465   */\n  0x00\n    /* \"#utility.yul\":457:472   */\n  revert\n    /* \"#utility.yul\":484:804   */\ntag_13:\n    /* \"#utility.yul\":528:534   */\n  0x00\n    /* \"#utility.yul\":565:566   */\n  0x02\n    /* \"#utility.yul\":559:563   */\n  dup3\n    /* \"#utility.yul\":555:567   */\n  div\n    /* \"#utility.yul\":545:567   */\n  swap1\n  pop\n    /* \"#utility.yul\":612:613   */\n  0x01\n    /* \"#utility.yul\":606:610   */\n  dup3\n    /* \"#utility.yul\":602:614   */\n  and\n    /* \"#utility.yul\":633:651   */\n  dup1\n    /* \"#utility.yul\":623:704   */\n  tag_35\n  jumpi\n    /* \"#utility.yul\":689:693   */\n  0x7f\n    /* \"#utility.yul\":681:687   */\n  dup3\n    /* \"#utility.yul\":677:694   */\n  and\n    /* \"#utility.yul\":667:694   */\n  swap2\n  pop\n    /* \"#utility.yul\":623:704   */\ntag_35:\n    /* \"#utility.yul\":751:753   */\n  0x20\n    /* \"#utility.yul\":743:749   */\n  dup3\n    /* \"#utility.yul\":740:754   */\n  lt\n    /* \"#utility.yul\":720:738   */\n  dup2\n    /* \"#utility.yul\":717:755   */\n  sub\n    /* \"#utility.yul\":714:798   */\n  tag_36\n  jumpi\n    /* \"#utility.yul\":770:788   */\n  tag_37\n  tag_12\n  jump\t// in\ntag_37:\n    /* \"#utility.yul\":714:798   */\ntag_36:\n    /* \"#utility.yul\":535:804   */\n  pop\n    /* \"#utility.yul\":484:804   */\n  swap2\n  swap1\n  pop\n  jump\t// out\n    /* \"#utility.yul\":810:951   */\ntag_14:\n    /* \"#utility.yul\":859:863   */\n  0x00\n    /* \"#utility.yul\":882:885   */\n  dup2\n    /* \"#utility.yul\":874:885   */\n  swap1\n  pop\n    /* \"#utility.yul\":905:908   */\n  dup2\n    /* \"#utility.yul\":902:903   */\n  0x00\n    /* \"#utility.yul\":895:909   */\n  mstore\n    /* \"#utility.yul\":939:943   */\n  0x20\n    /* \"#utility.yul\":936:937   */\n  0x00\n    /* \"#utility.yul\":926:944   */\n  keccak256\n    /* \"#utility.yul\":918:944   */\n  swap1\n  pop\n    /* \"#utility.yul\":810:951   */\n  swap2\n  swap1\n  pop\n  jump\t// out\n    /* \"#utility.yul\":957:1050   */\ntag_15:\n    /* \"#utility.yul\":994:1000   */\n  0x00\n    /* \"#utility.yul\":1041:1043   */\n  0x20\n    /* \"#utility.yul\":1036:1038   */\n  0x1f\n    /* \"#utility.yul\":1029:1034   */\n  dup4\n    /* \"#utility.yul\":1025:1039   */\n  add\n    /* \"#utility.yul\":1021:1044   */\n  div\n    /* \"#utility.yul\":1011:1044   */\n  swap1\n  pop\n    /* \"#utility.yul\":957:1050   */\n  swap2\n  swap1\n  pop\n  jump\t// out\n    /* \"#utility.yul\":1056:1163   */\ntag_16:\n    /* \"#utility.yul\":1100:1108   */\n  0x00\n    /* \"#utility.yul\":1150:1155   */\n  dup3\n    /* \"#utility.yul\":1144:1148   */\n  dup3\n    /* \"#utility.yul\":1140:1156   */\n  shl\n    /* \"#utility.yul\":1119:1156   */\n  swap1\n  pop\n    /* \"#utility.yul\":1056:1163   */\n  swap3\n  swap2\n  pop\n  pop\n  jump\t// out\n    /* \"#utility.yul\":1169:1562   */\ntag_17:\n    /* \"#utility.yul\":1238:1244   */\n  0x00\n    /* \"#utility.yul\":1288:1289   */\n  0x08\n    /* \"#utility.yul\":1276:1286   */\n  dup4\n    /* \"#utility.yul\":1272:1290   */\n  mul\n    /* \"#utility.yul\":1311:1408   */\n  tag_42\n    /* \"#utility.yul\":1341:1407   */\n  0xffffffffffffffffffffffffffffffffffffffffffffffffffffffffffffffff\n    /* \"#utility.yul\":1330:1339   */\n  dup3\n    /* \"#utility.yul\":1311:1408   */\n  tag_16\n  jump\t// in\ntag_42:\n    /* \"#utility.yul\":1429:1468   */\n  tag_43\n    /* \"#utility.yul\":1459:1467   */\n  dup7\n    /* \"#utility.yul\":1448:1457   */\n  dup4\n    /* \"#utility.yul\":1429:1468   */\n  tag_16\n  jump\t// in\ntag_43:\n    /* \"#utility.yul\":1417:1468   */\n  swap6\n  pop\n    /* \"#utility.yul\":1501:1505   */\n  dup1\n    /* \"#utility.yul\":1497:1506   */\n  not\n    /* \"#utility.yul\":1490:1495   */\n  dup5\n    /* \"#utility.yul\":1486:1507   */\n  and\n    /* \"#utility.yul\":1477:1507   */\n  swap4\n  pop\n    /* \"#utility.yul\":1550:1554   */\n  dup1\n    /* \"#utility.yul\":1540:1548   */\n  dup7\n    /* \"#utility.yul\":1536:1555   */\n  and\n    /* \"#utility.yul\":1529:1534   */\n  dup5\n    /* \"#utility.yul\":1526:1556   */\n  or\n    /* \"#utility.yul\":1516:1556   */\n  swap3\n  pop\n    /* \"#utility.yul\":1245:1562   */\n  pop\n  pop\n    /* \"#utility.yul\":1169:1562   */\n  swap4\n  swap3\n  pop\n  pop\n  pop\n  jump\t// out\n    /* \"#utility.yul\":1568:1645   */\ntag_18:\n    /* \"#utility.yul\":1605:1612   */\n  0x00\n    /* \"#utility.yul\":1634:1639   */\n  dup2\n    /* \"#utility.yul\":1623:1639   */\n  swap1\n  pop\n    /* \"#utility.yul\":1568:1645   */\n  swap2\n  swap1\n  pop\n  jump\t// out\n    /* \"#utility.yul\":1651:1711   */\ntag_19:\n    /* \"#utility.yul\":1679:1682   */\n  0x00\n    /* \"#utility.yul\":1700:1705   */\n  dup2\n    /* \"#utility.yul\":1693:1705   */\n  swap1\n  pop\n    /* \"#utility.yul\":1651:1711   */\n  swap2\n  swap1\n  pop\n  jump\t// out\n    /* \"#utility.yul\":1717:1859   */\ntag_20:\n    /* \"#utility.yul\":1767:1776   */\n  0x00\n    /* \"#utility.yul\":1800:1853   */\n  tag_47\n    /* \"#utility.yul\":1818:1852   */\n  tag_48\n    /* \"#utility.yul\":1827:1851   */\n  tag_49\n    /* \"#utility.yul\":1845:1850   */\n  dup5\n    /* \"#utility.yul\":1827:1851   */\n  tag_18\n  jump\t// in\ntag_49:\n    /* \"#utility.yul\":1818:1852   */\n  tag_19\n  jump\t// in\ntag_48:\n    /* \"#utility.yul\":1800:1853   */\n  tag_18\n  jump\t// in\ntag_47:\n    /* \"#utility.yul\":1787:1853   */\n  swap1\n  pop\n    /* \"#utility.yul\":1717:1859   */\n  swap2\n  swap1\n  pop\n  jump\t// out\n    /* \"#utility.yul\":1865:1940   */\ntag_21:\n    /* \"#utility.yul\":1908:1911   */\n  0x00\n    /* \"#utility.yul\":1929:1934   */\n  dup2\n    /* \"#utility.yul\":1922:1934   */\n  swap1\n  pop\n    /* \"#utility.yul\":1865:1940   */\n  swap2\n  swap1\n  pop\n  jump\t// out\n    /* \"#utility.yul\":1946:2215   */\ntag_22:\n    /* \"#utility.yul\":2056:2095   */\n  tag_52\n    /* \"#utility.yul\":2087:2094   */\n  dup4\n    /* \"#utility.yul\":2056:2095   */\n  tag_20\n  jump\t// in\ntag_52:\n    /* \"#utility.yul\":2117:2208   */\n  tag_53\n    /* \"#utility.yul\":2166:2207   */\n  tag_54\n    /* \"#utility.yul\":2190:2206   */\n  dup3\n    /* \"#utility.yul\":2166:2207   */\n  tag_21\n  jump\t// in\ntag_54:\n    /* \"#utility.yul\":2158:2164   */\n  dup5\n    /* \"#utility.yul\":2151:2155   */\n  dup5\n    /* \"#utility.yul\":2145:2156   */\n  sload\n    /* \"#utility.yul\":2117:2208   */\n  tag_17\n  jump\t// in\ntag_53:\n    /* \"#utility.yul\":2111:2115   */\n  dup3\n    /* \"#utility.yul\":2104:2209   */\n  sstore\n    /* \"#utility.yul\":2022:2215   */\n  pop\n    /* \"#utility.yul\":1946:2215   */\n  pop\n  pop\n  pop\n  jump\t// out\n    /* \"#utility.yul\":2221:2294   */\ntag_23:\n    /* \"#utility.yul\":2266:2269   */\n  0x00\n    /* \"#utility.yul\":2287:2288   */\n  0x00\n    /* \"#utility.yul\":2280:2288   */\n  swap1\n  pop\n    /* \"#utility.yul\":2221:2294   */\n  swap1\n  jump\t// out\n    /* \"#utility.yul\":2300:2489   */\ntag_24:\n    /* \"#utility.yul\":2377:2409   */\n  tag_57\n  tag_23\n  jump\t// in\ntag_57:\n    /* \"#utility.yul\":2418:2483   */\n  tag_58\n    /* \"#utility.yul\":2476:2482   */\n  dup2\n    /* \"#utility.yul\":2468:2474   */\n  dup5\n    /* \"#utility.yul\":2462:2466   */\n  dup5\n    /* \"#utility.yul\":2418:2483   */\n  tag_22\n  jump\t// in\ntag_58:\n    /* \"#utility.yul\":2353:2489   */\n  pop\n    /* \"#utility.yul\":2300:2489   */\n  pop\n  pop\n  jump\t// out\n    /* \"#utility.yul\":2495:2681   */\ntag_25:\n    /* \"#utility.yul\":2555:2675   */\ntag_60:\n    /* \"#utility.yul\":2572:2575   */\n  dup2\n    /* \"#utility.yul\":2565:2570   */\n  dup2\n    /* \"#utility.yul\":2562:2576   */\n  lt\n    /* \"#utility.yul\":2555:2675   */\n  iszero\n  tag_62\n  jumpi\n    /* \"#utility.yul\":2626:2665   */\n  tag_63\n    /* \"#utility.yul\":2663:2664   */\n  0x00\n    /* \"#utility.yul\":2656:2661   */\n  dup3\n    /* \"#utility.yul\":2626:2665   */\n  tag_24\n  jump\t// in\ntag_63:\n    /* \"#utility.yul\":2599:2600   */\n  0x01\n    /* \"#utility.yul\":2592:2597   */\n  dup2\n    /* \"#utility.yul\":2588:2601   */\n  add\n    /* \"#utility.yul\":2579:2601   */\n  swap1\n  pop\n    /* \"#utility.yul\":2555:2675   */\n  jump(tag_60)\ntag_62:\n    /* \"#utility.yul\":2495:2681   */\n  pop\n  pop\n  jump\t// out\n    /* \"#utility.yul\":2687:3230   */\ntag_26:\n    /* \"#utility.yul\":2788:2790   */\n  0x1f\n    /* \"#utility.yul\":2783:2786   */\n  dup3\n    /* \"#utility.yul\":2780:2791   */\n  gt\n    /* \"#utility.yul\":2777:3223   */\n  iszero\n  tag_65\n  jumpi\n    /* \"#utility.yul\":2822:2860   */\n  tag_66\n    /* \"#utility.yul\":2854:2859   */\n  dup2\n    /* \"#utility.yul\":2822:2860   */\n  tag_14\n  jump\t// in\ntag_66:\n    /* \"#utility.yul\":2906:2935   */\n  tag_67\n    /* \"#utility.yul\":2924:2934   */\n  dup5\n    /* \"#utility.yul\":2906:2935   */\n  tag_15\n  jump\t// in\ntag_67:\n    /* \"#utility.yul\":2896:2904   */\n  dup2\n    /* \"#utility.yul\":2892:2936   */\n  add\n    /* \"#utility.yul\":3089:3091   */\n  0x20\n    /* \"#utility.yul\":3077:3087   */\n  dup6\n    /* \"#utility.yul\":3074:3092   */\n  lt\n    /* \"#utility.yul\":3071:3120   */\n  iszero\n  tag_68\n  jumpi\n    /* \"#utility.yul\":3110:3118   */\n  dup2\n    /* \"#utility.yul\":3095:3118   */\n  swap1\n  pop\n    /* \"#utility.yul\":3071:3120   */\ntag_68:\n    /* \"#utility.yul\":3133:3213   */\n  tag_69\n    /* \"#utility.yul\":3189:3211   */\n  tag_70\n    /* \"#utility.yul\":3207:3210   */\n  dup6\n    /* \"#utility.yul\":3189:3211   */\n  tag_15\n  jump\t// in\ntag_70:\n    /* \"#utility.yul\":3179:3187   */\n  dup4\n    /* \"#utility.yul\":3175:3212   */\n  add\n    /* \"#utility.yul\":3162:3173   */\n  dup3\n    /* \"#utility.yul\":3133:3213   */\n  tag_25\n  jump\t// in\ntag_69:\n    /* \"#utility.yul\":2792:3223   */\n  pop\n  pop\n    /* \"#utility.yul\":2777:3223   */\ntag_65:\n    /* \"#utility.yul\":2687:3230   */\n  pop\n  pop\n  pop\n  jump\t// out\n    /* \"#utility.yul\":3236:3353   */\ntag_27:\n    /* \"#utility.yul\":3290:3298   */\n  0x00\n    /* \"#utility.yul\":3340:3345   */\n  dup3\n    /* \"#utility.yul\":3334:3338   */\n  dup3\n    /* \"#utility.yul\":3330:3346   */\n  shr\n    /* \"#utility.yul\":3309:3346   */\n  swap1\n  pop\n    /* \"#utility.yul\":3236:3353   */\n  swap3\n  swap2\n  pop\n  pop\n  jump\t// out\n    /* \"#utility.yul\":3359:3528   */\ntag_28:\n    /* \"#utility.yul\":3403:3409   */\n  0x00\n    /* \"#utility.yul\":3436:3487   */\n  tag_73\n    /* \"#utility.yul\":3484:3485   */\n  0x00\n    /* \"#utility.yul\":3480:3486   */\n  not\n    /* \"#utility.yul\":3472:3477   */\n  dup5\n    /* \"#utility.yul\":3469:3470   */\n  0x08\n    /* \"#utility.yul\":3465:3478   */\n  mul\n    /* \"#utility.yul\":3436:3487   */\n  tag_27\n  jump\t// in\ntag_73:\n    /* \"#utility.yul\":3432:3488   */\n  not\n    /* \"#utility.yul\":3517:3521   */\n  dup1\n    /* \"#utility.yul\":3511:3515   */\n  dup4\n    /* \"#utility.yul\":3507:3522   */\n  and\n    /* \"#utility.yul\":3497:3522   */\n  swap2\n  pop\n    /* \"#utility.yul\":3410:3528   */\n  pop\n    /* \"#utility.yul\":3359:3528   */\n  swap3\n  swap2\n  pop\n  pop\n  jump\t// out\n    /* \"#utility.yul\":3533:3828   */\ntag_29:\n    /* \"#utility.yul\":3609:3613   */\n  0x00\n    /* \"#utility.yul\":3755:3784   */\n  tag_75\n    /* \"#utility.yul\":3780:3783   */\n  dup4\n    /* \"#utility.yul\":3774:3778   */\n  dup4\n    /* \"#utility.yul\":3755:3784   */\n  tag_28\n  jump\t// in\ntag_75:\n    /* \"#utility.yul\":3747:3784   */\n  swap2\n  pop\n    /* \"#utility.yul\":3817:3820   */\n  dup3\n    /* \"#utility.yul\":3814:3815   */\n  0x02\n    /* \"#utility.yul\":3810:3821   */\n  mul\n    /* \"#utility.yul\":3804:3808   */\n  dup3\n    /* \"#utility.yul\":3801:3822   */\n  or\n    /* \"#utility.yul\":3793:3822   */\n  swap1\n  pop\n    /* \"#utility.yul\":3533:3828   */\n  swap3\n  swap2\n  pop\n  pop\n  jump\t// out\n    /* \"#utility.yul\":3833:5228   */\ntag_6:\n    /* \"#utility.yul\":3950:3987   */\n  tag_77\n    /* \"#utility.yul\":3983:3986   */\n  dup3\n    /* \"#utility.yul\":3950:3987   */\n  tag_10\n  jump\t// in\ntag_77:\n    /* \"#utility.yul\":4052:4070   */\n  0xffffffffffffffff\n    /* \"#utility.yul\":4044:4050   */\n  dup2\n    /* \"#utility.yul\":4041:4071   */\n  gt\n    /* \"#utility.yul\":4038:4094   */\n  iszero\n  tag_78\n  jumpi\n    /* \"#utility.yul\":4074:4092   */\n  tag_79\n  tag_11\n  jump\t// in\ntag_79:\n    /* \"#utility.yul\":4038:4094   */\ntag_78:\n    /* \"#utility.yul\":4118:4156   */\n  tag_80\n    /* \"#utility.yul\":4150:4154   */\n  dup3\n    /* \"#utility.yul\":4144:4155   */\n  sload\n    /* \"#utility.yul\":4118:4156   */\n  tag_13\n  jump\t// in\ntag_80:\n    /* \"#utility.yul\":4203:4270   */\n  tag_81\n    /* \"#utility.yul\":4263:4269   */\n  dup3\n    /* \"#utility.yul\":4255:4261   */\n  dup3\n    /* \"#utility.yul\":4249:4253   */\n  dup6\n    /* \"#utility.yul\":4203:4270   */\n  tag_26\n  jump\t// in\ntag_81:\n    /* \"#utility.yul\":4297:4298   */\n  0x00\n    /* \"#utility.yul\":4321:4325   */\n  0x20\n    /* \"#utility.yul\":4308:4325   */\n  swap1\n  pop\n    /* \"#utility.yul\":4353:4355   */\n  0x1f\n    /* \"#utility.yul\":4345:4351   */\n  dup4\n    /* \"#utility.yul\":4342:4356   */\n  gt\n    /* \"#utility.yul\":4370:4371   */\n  0x01\n    /* \"#utility.yul\":4365:4983   */\n  dup2\n  eq\n  tag_83\n  jumpi\n    /* \"#utility.yul\":5027:5028   */\n  0x00\n    /* \"#utility.yul\":5044:5050   */\n  dup5\n    /* \"#utility.yul\":5041:5118   */\n  iszero\n  tag_84\n  jumpi\n    /* \"#utility.yul\":5093:5102   */\n  dup3\n    /* \"#utility.yul\":5088:5091   */\n  dup8\n    /* \"#utility.yul\":5084:5103   */\n  add\n    /* \"#utility.yul\":5078:5104   */\n  mload\n    /* \"#utility.yul\":5069:5104   */\n  swap1\n  pop\n    /* \"#utility.yul\":5041:5118   */\ntag_84:\n    /* \"#utility.yul\":5144:5211   */\n  tag_85\n    /* \"#utility.yul\":5204:5210   */\n  dup6\n    /* \"#utility.yul\":5197:5202   */\n  dup3\n    /* \"#utility.yul\":5144:5211   */\n  tag_29\n  jump\t// in\ntag_85:\n    /* \"#utility.yul\":5138:5142   */\n  dup7\n    /* \"#utility.yul\":5131:5212   */\n  sstore\n    /* \"#utility.yul\":5000:5222   */\n  pop\n    /* \"#utility.yul\":4335:5222   */\n  jump(tag_82)\n    /* \"#utility.yul\":4365:4983   */\ntag_83:\n    /* \"#utility.yul\":4417:4421   */\n  0x1f\n    /* \"#utility.yul\":4413:4422   */\n  not\n    /* \"#utility.yul\":4405:4411   */\n  dup5\n    /* \"#utility.yul\":4401:4423   */\n  and\n    /* \"#utility.yul\":4451:4488   */\n  tag_86\n    /* \"#utility.yul\":4483:4487   */\n  dup7\n    /* \"#utility.yul\":4451:4488   */\n  tag_14\n  jump\t// in\ntag_86:\n    /* \"#utility.yul\":4510:4511   */\n  0x00\n    /* \"#utility.yul\":4524:4732   */\ntag_87:\n    /* \"#utility.yul\":4538:4545   */\n  dup3\n    /* \"#utility.yul\":4535:4536   */\n  dup2\n    /* \"#utility.yul\":4532:4546   */\n  lt\n    /* \"#utility.yul\":4524:4732   */\n  iszero\n  tag_89\n  jumpi\n    /* \"#utility.yul\":4617:4626   */\n  dup5\n    /* \"#utility.yul\":4612:4615   */\n  dup10\n    /* \"#utility.yul\":4608:4627   */\n  add\n    /* \"#utility.yul\":4602:4628   */\n  mload\n    /* \"#utility.yul\":4594:4600   */\n  dup3\n    /* \"#utility.yul\":4587:4629   */\n  sstore\n    /* \"#utility.yul\":4668:4669   */\n  0x01\n    /* \"#utility.yul\":4660:4666   */\n  dup3\n    /* \"#utility.yul\":4656:4670   */\n  add\n    /* \"#utility.yul\":4646:4670   */\n  swap2\n  pop\n    /* \"#utility.yul\":4715:4717   */\n  0x20\n    /* \"#utility.yul\":4704:4713   */\n  dup6\n    /* \"#utility.yul\":4700:4718   */\n  add\n    /* \"#utility.yul\":4687:4718   */\n  swap5\n  pop\n    /* \"#utility.yul\":4561:4565   */\n  0x20\n    /* \"#utility.yul\":4558:4559   */\n  dup2\n    /* \"#utility.yul\":4554:4566   */\n  add\n    /* \"#utility.yul\":4549:4566   */\n  swap1\n  pop\n    /* \"#utility.yul\":4524:4732   */\n  jump(tag_87)\ntag_89:\n    /* \"#utility.yul\":4760:4766   */\n  dup7\n    /* \"#utility.yul\":4751:4758   */\n  dup4\n    /* \"#utility.yul\":4748:4767   */\n  lt\n    /* \"#utility.yul\":4745:4924   */\n  iszero\n  tag_90\n  jumpi\n    /* \"#utility.yul\":4818:4827   */\n  dup5\n    /* \"#utility.yul\":4813:4816   */\n  dup10\n    /* \"#utility.yul\":4809:4828   */\n  add\n    /* \"#utility.yul\":4803:4829   */\n  mload\n    /* \"#utility.yul\":4861:4909   */\n  tag_91\n    /* \"#utility.yul\":4903:4907   */\n  0x1f\n    /* \"#utility.yul\":4895:4901   */\n  dup10\n    /* \"#utility.yul\":4891:4908   */\n  and\n    /* \"#utility.yul\":4880:4889   */\n  dup3\n    /* \"#utility.yul\":4861:4909   */\n  tag_28\n  jump\t// in\ntag_91:\n    /* \"#utility.yul\":4853:4859   */\n  dup4\n    /* \"#utility.yul\":4846:4910   */\n  sstore\n    /* \"#utility.yul\":4768:4924   */\n  pop\n    /* \"#utility.yul\":4745:4924   */\ntag_90:\n    /* \"#utility.yul\":4970:4971   */\n  0x01\n    /* \"#utility.yul\":4966:4967   */\n  0x02\n    /* \"#utility.yul\":4958:4964   */\n  dup9\n    /* \"#utility.yul\":4954:4968   */\n  mul\n    /* \"#utility.yul\":4950:4972   */\n  add\n    /* \"#utility.yul\":4944:4948   */\n  dup9\n    /* \"#utility.yul\":4937:4973   */\n  sstore\n    /* \"#utility.yul\":4372:4983   */\n  pop\n  pop\n  pop\n    /* \"#utility.yul\":4335:5222   */\ntag_82:\n  pop\n    /* \"#utility.yul\":3925:5228   */\n  pop\n  pop\n  pop\n    /* \"#utility.yul\":3833:5228   */\n  pop\n  pop\n  jump\t// out\n    /* \"SyntheticAssetToken_flattened.sol\":22544:24830  contract SyntheticAssetToken is ERC20 {... */\ntag_9:\n  dataSize(sub_0)\n  dup1\n  dataOffset(sub_0)\n  0x00\n  codecopy\n  0x00\n  return\nstop\n\nsub_0: assembly {\n        /* \"SyntheticAssetToken_flattened.sol\":22544:24830  contract SyntheticAssetToken is ERC20 {... */\n      mstore(0x40, 0x80)\n      jumpi(tag_1, lt(calldatasize, 0x04))\n      shr(0xe0, calldataload(0x00))\n      dup1\n      0x7b9629db\n      gt\n      tag_14\n      jumpi\n      dup1\n      0x7b9629db\n      eq\n      tag_8\n      jumpi\n      dup1\n      0x8da5cb5b\n      eq\n      tag_9\n      jumpi\n      dup1\n      0x95d89b41\n      eq\n      tag_10\n      jumpi\n      dup1\n      0xa9059cbb\n      eq\n      tag_11\n      jumpi\n      dup1\n      0xbc4d2797\n      eq\n      tag_12\n      jumpi\n      dup1\n      0xdd62ed3e\n      eq\n      tag_13\n      jumpi\n      jump(tag_1)\n    tag_14:\n      dup1\n      0x06fdde03\n      eq\n      tag_2\n      jumpi\n      dup1\n      0x095ea7b3\n      eq\n      tag_3\n      jumpi\n      dup1\n      0x18160ddd\n      eq\n      tag_4\n      jumpi\n      dup1\n      0x23b872dd\n      eq\n      tag_5\n      jumpi\n      dup1\n      0x313ce567\n      eq\n      tag_6\n      jumpi\n      dup1\n      0x70a08231\n      eq\n      tag_7\n      jumpi\n    tag_1:\n      revert(0x00, 0x00)\n        /* \"SyntheticAssetToken_flattened.sol\":13268:13357  function name() public view virtual returns (string memory) {... */\n    tag_2:\n      callvalue\n      dup1\n      iszero\n      tag_15\n      jumpi\n      revert(0x00, 0x00)\n    tag_15:\n      pop\n      tag_16\n      tag_17\n      jump\t// in\n    tag_16:\n      mload(0x40)\n      tag_18\n      swap2\n      swap1\n      tag_19\n      jump\t// in\n    tag_18:\n      mload(0x40)\n      dup1\n      swap2\n      sub\n      swap1\n      return\n        /* \"SyntheticAssetToken_flattened.sol\":15487:15673  function approve(address spender, uint256 value) public virtual returns (bool) {... */\n    tag_3:\n      callvalue\n      dup1\n      iszero\n      tag_20\n      jumpi\n      revert(0x00, 0x00)\n    tag_20:\n      pop\n      tag_21\n      0x04\n      dup1\n      calldatasize\n      sub\n      dup2\n      add\n      swap1\n      tag_22\n      swap2\n      swap1\n      tag_23\n      jump\t// in\n    tag_22:\n      tag_24\n      jump\t// in\n    tag_21:\n      mload(0x40)\n      tag_25\n      swap2\n      swap1\n      tag_26\n      jump\t// in\n    tag_25:\n      mload(0x40)\n      dup1\n      swap2\n      sub\n      swap1\n      return\n        /* \"SyntheticAssetToken_flattened.sol\":14338:14435  function totalSupply() public view virtual returns (uint256) {... */\n    tag_4:\n      callvalue\n      dup1\n      iszero\n      tag_27\n      jumpi\n      revert(0x00, 0x00)\n    tag_27:\n      pop\n      tag_28\n      tag_29\n      jump\t// in\n    tag_28:\n      mload(0x40)\n      tag_30\n      swap2\n      swap1\n      tag_31\n      jump\t// in\n    tag_30:\n      mload(0x40)\n      dup1\n      swap2\n      sub\n      swap1\n      return\n        /* \"SyntheticAssetToken_flattened.sol\":16265:16509  function transferFrom(address from, address to, uint256 value) public virtual returns (bool) {... */\n    tag_5:\n      callvalue\n      dup1\n      iszero\n      tag_32\n      jumpi\n      revert(0x00, 0x00)\n    tag_32:\n      pop\n      tag_33\n      0x04\n      dup1\n      calldatasize\n      sub\n      dup2\n      add\n      swap1\n      tag_34\n      swap2\n      swap1\n      tag_35\n      jump\t// in\n    tag_34:\n      tag_36\n      jump\t// in\n    tag_33:\n      mload(0x40)\n      tag_37\n      swap2\n      swap1\n      tag_26\n      jump\t// in\n    tag_37:\n      mload(0x40)\n      dup1\n      swap2\n      sub\n      swap1\n      return\n        /* \"SyntheticAssetToken_flattened.sol\":14196:14278  function decimals() public view virtual returns (uint8) {... */\n    tag_6:\n      callvalue\n      dup1\n      iszero\n      tag_38\n      jumpi\n      revert(0x00, 0x00)\n    tag_38:\n      pop\n      tag_39\n      tag_40\n      jump\t// in\n    tag_39:\n      mload(0x40)\n      tag_41\n      swap2\n      swap1\n      tag_42\n      jump\t// in\n    tag_41:\n      mload(0x40)\n      dup1\n      swap2\n      sub\n      swap1\n      return\n        /* \"SyntheticAssetToken_flattened.sol\":14493:14609  function balanceOf(address account) public view virtual returns (uint256) {... */\n    tag_7:\n      callvalue\n      dup1\n      iszero\n      tag_43\n      jumpi\n      revert(0x00, 0x00)\n    tag_43:\n      pop\n      tag_44\n      0x04\n      dup1\n      calldatasize\n      sub\n      dup2\n      add\n      swap1\n      tag_45\n      swap2\n      swap1\n      tag_46\n      jump\t// in\n    tag_45:\n      tag_47\n      jump\t// in\n    tag_44:\n      mload(0x40)\n      tag_48\n      swap2\n      swap1\n      tag_31\n      jump\t// in\n    tag_48:\n      mload(0x40)\n      dup1\n      swap2\n      sub\n      swap1\n      return\n        /* \"SyntheticAssetToken_flattened.sol\":23205:23416  function getLatestBtcPrice() public view returns (int) {... */\n    tag_8:\n      callvalue\n      dup1\n      iszero\n      tag_49\n      jumpi\n      revert(0x00, 0x00)\n    tag_49:\n      pop\n      tag_50\n      tag_51\n      jump\t// in\n    tag_50:\n      mload(0x40)\n      tag_52\n      swap2\n      swap1\n      tag_53\n      jump\t// in\n    tag_52:\n      mload(0x40)\n      dup1\n      swap2\n      sub\n      swap1\n      return\n        /* \"SyntheticAssetToken_flattened.sol\":22747:22767  address public owner */\n    tag_9:\n      callvalue\n      dup1\n      iszero\n      tag_54\n      jumpi\n      revert(0x00, 0x00)\n    tag_54:\n      pop\n      tag_55\n      tag_56\n      jump\t// in\n    tag_55:\n      mload(0x40)\n      tag_57\n      swap2\n      swap1\n      tag_58\n      jump\t// in\n    tag_57:\n      mload(0x40)\n      dup1\n      swap2\n      sub\n      swap1\n      return\n        /* \"SyntheticAssetToken_flattened.sol\":13470:13563  function symbol() public view virtual returns (string memory) {... */\n    tag_10:\n      callvalue\n      dup1\n      iszero\n      tag_59\n      jumpi\n      revert(0x00, 0x00)\n    tag_59:\n      pop\n      tag_60\n      tag_61\n      jump\t// in\n    tag_60:\n      mload(0x40)\n      tag_62\n      swap2\n      swap1\n      tag_19\n      jump\t// in\n    tag_62:\n      mload(0x40)\n      dup1\n      swap2\n      sub\n      swap1\n      return\n        /* \"SyntheticAssetToken_flattened.sol\":14804:14982  function transfer(address to, uint256 value) public virtual returns (bool) {... */\n    tag_11:\n      callvalue\n      dup1\n      iszero\n      tag_63\n      jumpi\n      revert(0x00, 0x00)\n    tag_63:\n      pop\n      tag_64\n      0x04\n      dup1\n      calldatasize\n      sub\n      dup2\n      add\n      swap1\n      tag_65\n      swap2\n      swap1\n      tag_23\n      jump\t// in\n    tag_65:\n      tag_66\n      jump\t// in\n    tag_64:\n      mload(0x40)\n      tag_67\n      swap2\n      swap1\n      tag_26\n      jump\t// in\n    tag_67:\n      mload(0x40)\n      dup1\n      swap2\n      sub\n      swap1\n      return\n        /* \"SyntheticAssetToken_flattened.sol\":23497:24828  function mintWithEther() external payable {... */\n    tag_12:\n      tag_68\n      tag_69\n      jump\t// in\n    tag_68:\n      stop\n        /* \"SyntheticAssetToken_flattened.sol\":15040:15180  function allowance(address owner, address spender) public view virtual returns (uint256) {... */\n    tag_13:\n      callvalue\n      dup1\n      iszero\n      tag_70\n      jumpi\n      revert(0x00, 0x00)\n    tag_70:\n      pop\n      tag_71\n      0x04\n      dup1\n      calldatasize\n      sub\n      dup2\n      add\n      swap1\n      tag_72\n      swap2\n      swap1\n      tag_73\n      jump\t// in\n    tag_72:\n      tag_74\n      jump\t// in\n    tag_71:\n      mload(0x40)\n      tag_75\n      swap2\n      swap1\n      tag_31\n      jump\t// in\n    tag_75:\n      mload(0x40)\n      dup1\n      swap2\n      sub\n      swap1\n      return\n        /* \"SyntheticAssetToken_flattened.sol\":13268:13357  function name() public view virtual returns (string memory) {... */\n    tag_17:\n        /* \"SyntheticAssetToken_flattened.sol\":13313:13326  string memory */\n      0x60\n        /* \"SyntheticAssetToken_flattened.sol\":13345:13350  _name */\n      0x03\n        /* \"SyntheticAssetToken_flattened.sol\":13338:13350  return _name */\n      dup1\n      sload\n      tag_77\n      swap1\n      tag_78\n      jump\t// in\n    tag_77:\n      dup1\n      0x1f\n      add\n      0x20\n      dup1\n      swap2\n      div\n      mul\n      0x20\n      add\n      mload(0x40)\n      swap1\n      dup2\n      add\n      0x40\n      mstore\n      dup1\n      swap3\n      swap2\n      swap1\n      dup2\n      dup2\n      mstore\n      0x20\n      add\n      dup3\n      dup1\n      sload\n      tag_79\n      swap1\n      tag_78\n      jump\t// in\n    tag_79:\n      dup1\n      iszero\n      tag_80\n      jumpi\n      dup1\n      0x1f\n      lt\n      tag_81\n      jumpi\n      0x0100\n      dup1\n      dup4\n      sload\n      div\n      mul\n      dup4\n      mstore\n      swap2\n      0x20\n      add\n      swap2\n      jump(tag_80)\n    tag_81:\n      dup3\n      add\n      swap2\n      swap1\n      0x00\n      mstore\n      keccak256(0x00, 0x20)\n      swap1\n    tag_82:\n      dup2\n      sload\n      dup2\n      mstore\n      swap1\n      0x01\n      add\n      swap1\n      0x20\n      add\n      dup1\n      dup4\n      gt\n      tag_82\n      jumpi\n      dup3\n      swap1\n      sub\n      0x1f\n      and\n      dup3\n      add\n      swap2\n    tag_80:\n      pop\n      pop\n      pop\n      pop\n      pop\n      swap1\n      pop\n        /* \"SyntheticAssetToken_flattened.sol\":13268:13357  function name() public view virtual returns (string memory) {... */\n      swap1\n      jump\t// out\n        /* \"SyntheticAssetToken_flattened.sol\":15487:15673  function approve(address spender, uint256 value) public virtual returns (bool) {... */\n    tag_24:\n        /* \"SyntheticAssetToken_flattened.sol\":15560:15564  bool */\n      0x00\n        /* \"SyntheticAssetToken_flattened.sol\":15576:15589  address owner */\n      0x00\n        /* \"SyntheticAssetToken_flattened.sol\":15592:15604  _msgSender() */\n      tag_84\n        /* \"SyntheticAssetToken_flattened.sol\":15592:15602  _msgSender */\n      tag_85\n        /* \"SyntheticAssetToken_flattened.sol\":15592:15604  _msgSender() */\n      jump\t// in\n    tag_84:\n        /* \"SyntheticAssetToken_flattened.sol\":15576:15604  address owner = _msgSender() */\n      swap1\n      pop\n        /* \"SyntheticAssetToken_flattened.sol\":15614:15645  _approve(owner, spender, value) */\n      tag_86\n        /* \"SyntheticAssetToken_flattened.sol\":15623:15628  owner */\n      dup2\n        /* \"SyntheticAssetToken_flattened.sol\":15630:15637  spender */\n      dup6\n        /* \"SyntheticAssetToken_flattened.sol\":15639:15644  value */\n      dup6\n        /* \"SyntheticAssetToken_flattened.sol\":15614:15622  _approve */\n      tag_87\n        /* \"SyntheticAssetToken_flattened.sol\":15614:15645  _approve(owner, spender, value) */\n      jump\t// in\n    tag_86:\n        /* \"SyntheticAssetToken_flattened.sol\":15662:15666  true */\n      0x01\n        /* \"SyntheticAssetToken_flattened.sol\":15655:15666  return true */\n      swap2\n      pop\n      pop\n        /* \"SyntheticAssetToken_flattened.sol\":15487:15673  function approve(address spender, uint256 value) public virtual returns (bool) {... */\n      swap3\n      swap2\n      pop\n      pop\n      jump\t// out\n        /* \"SyntheticAssetToken_flattened.sol\":14338:14435  function totalSupply() public view virtual returns (uint256) {... */\n    tag_29:\n        /* \"SyntheticAssetToken_flattened.sol\":14390:14397  uint256 */\n      0x00\n        /* \"SyntheticAssetToken_flattened.sol\":14416:14428  _totalSupply */\n      sload(0x02)\n        /* \"SyntheticAssetToken_flattened.sol\":14409:14428  return _totalSupply */\n      swap1\n      pop\n        /* \"SyntheticAssetToken_flattened.sol\":14338:14435  function totalSupply() public view virtual returns (uint256) {... */\n      swap1\n      jump\t// out\n        /* \"SyntheticAssetToken_flattened.sol\":16265:16509  function transferFrom(address from, address to, uint256 value) public virtual returns (bool) {... */\n    tag_36:\n        /* \"SyntheticAssetToken_flattened.sol\":16352:16356  bool */\n      0x00\n        /* \"SyntheticAssetToken_flattened.sol\":16368:16383  address spender */\n      0x00\n        /* \"SyntheticAssetToken_flattened.sol\":16386:16398  _msgSender() */\n      tag_90\n        /* \"SyntheticAssetToken_flattened.sol\":16386:16396  _msgSender */\n      tag_85\n        /* \"SyntheticAssetToken_flattened.sol\":16386:16398  _msgSender() */\n      jump\t// in\n    tag_90:\n        /* \"SyntheticAssetToken_flattened.sol\":16368:16398  address spender = _msgSender() */\n      swap1\n      pop\n        /* \"SyntheticAssetToken_flattened.sol\":16408:16445  _spendAllowance(from, spender, value) */\n      tag_91\n        /* \"SyntheticAssetToken_flattened.sol\":16424:16428  from */\n      dup6\n        /* \"SyntheticAssetToken_flattened.sol\":16430:16437  spender */\n      dup3\n        /* \"SyntheticAssetToken_flattened.sol\":16439:16444  value */\n      dup6\n        /* \"SyntheticAssetToken_flattened.sol\":16408:16423  _spendAllowance */\n      tag_92\n        /* \"SyntheticAssetToken_flattened.sol\":16408:16445  _spendAllowance(from, spender, value) */\n      jump\t// in\n    tag_91:\n        /* \"SyntheticAssetToken_flattened.sol\":16455:16481  _transfer(from, to, value) */\n      tag_93\n        /* \"SyntheticAssetToken_flattened.sol\":16465:16469  from */\n      dup6\n        /* \"SyntheticAssetToken_flattened.sol\":16471:16473  to */\n      dup6\n        /* \"SyntheticAssetToken_flattened.sol\":16475:16480  value */\n      dup6\n        /* \"SyntheticAssetToken_flattened.sol\":16455:16464  _transfer */\n      tag_94\n        /* \"SyntheticAssetToken_flattened.sol\":16455:16481  _transfer(from, to, value) */\n      jump\t// in\n    tag_93:\n        /* \"SyntheticAssetToken_flattened.sol\":16498:16502  true */\n      0x01\n        /* \"SyntheticAssetToken_flattened.sol\":16491:16502  return true */\n      swap2\n      pop\n      pop\n        /* \"SyntheticAssetToken_flattened.sol\":16265:16509  function transferFrom(address from, address to, uint256 value) public virtual returns (bool) {... */\n      swap4\n      swap3\n      pop\n      pop\n      pop\n      jump\t// out\n        /* \"SyntheticAssetToken_flattened.sol\":14196:14278  function decimals() public view virtual returns (uint8) {... */\n    tag_40:\n        /* \"SyntheticAssetToken_flattened.sol\":14245:14250  uint8 */\n      0x00\n        /* \"SyntheticAssetToken_flattened.sol\":14269:14271  18 */\n      0x12\n        /* \"SyntheticAssetToken_flattened.sol\":14262:14271  return 18 */\n      swap1\n      pop\n        /* \"SyntheticAssetToken_flattened.sol\":14196:14278  function decimals() public view virtual returns (uint8) {... */\n      swap1\n      jump\t// out\n        /* \"SyntheticAssetToken_flattened.sol\":14493:14609  function balanceOf(address account) public view virtual returns (uint256) {... */\n    tag_47:\n        /* \"SyntheticAssetToken_flattened.sol\":14558:14565  uint256 */\n      0x00\n        /* \"SyntheticAssetToken_flattened.sol\":14584:14593  _balances */\n      0x00\n        /* \"SyntheticAssetToken_flattened.sol\":14584:14602  _balances[account] */\n      0x00\n        /* \"SyntheticAssetToken_flattened.sol\":14594:14601  account */\n      dup4\n        /* \"SyntheticAssetToken_flattened.sol\":14584:14602  _balances[account] */\n      0xffffffffffffffffffffffffffffffffffffffff\n      and\n      0xffffffffffffffffffffffffffffffffffffffff\n      and\n      dup2\n      mstore\n      0x20\n      add\n      swap1\n      dup2\n      mstore\n      0x20\n      add\n      0x00\n      keccak256\n      sload\n        /* \"SyntheticAssetToken_flattened.sol\":14577:14602  return _balances[account] */\n      swap1\n      pop\n        /* \"SyntheticAssetToken_flattened.sol\":14493:14609  function balanceOf(address account) public view virtual returns (uint256) {... */\n      swap2\n      swap1\n      pop\n      jump\t// out\n        /* \"SyntheticAssetToken_flattened.sol\":23205:23416  function getLatestBtcPrice() public view returns (int) {... */\n    tag_51:\n        /* \"SyntheticAssetToken_flattened.sol\":23255:23258  int */\n      0x00\n        /* \"SyntheticAssetToken_flattened.sol\":23273:23282  int price */\n      0x00\n        /* \"SyntheticAssetToken_flattened.sol\":23289:23304  btcUsdPriceFeed */\n      0x06\n      0x00\n      swap1\n      sload\n      swap1\n      0x0100\n      exp\n      swap1\n      div\n      0xffffffffffffffffffffffffffffffffffffffff\n      and\n        /* \"SyntheticAssetToken_flattened.sol\":23289:23320  btcUsdPriceFeed.latestRoundData */\n      0xffffffffffffffffffffffffffffffffffffffff\n      and\n      0xfeaf968c\n        /* \"SyntheticAssetToken_flattened.sol\":23289:23322  btcUsdPriceFeed.latestRoundData() */\n      mload(0x40)\n      dup2\n      0xffffffff\n      and\n      0xe0\n      shl\n      dup2\n      mstore\n      0x04\n      add\n      0xa0\n      mload(0x40)\n      dup1\n      dup4\n      sub\n      dup2\n      dup7\n      gas\n      staticcall\n      iszero\n      dup1\n      iszero\n      tag_99\n      jumpi\n      returndatacopy(0x00, 0x00, returndatasize)\n      revert(0x00, returndatasize)\n    tag_99:\n      pop\n      pop\n      pop\n      pop\n      mload(0x40)\n      returndatasize\n      not(0x1f)\n      0x1f\n      dup3\n      add\n      and\n      dup3\n      add\n      dup1\n      0x40\n      mstore\n      pop\n      dup2\n      add\n      swap1\n      tag_100\n      swap2\n      swap1\n      tag_101\n      jump\t// in\n    tag_100:\n        /* \"SyntheticAssetToken_flattened.sol\":23270:23322  (, int price,,,) = btcUsdPriceFeed.latestRoundData() */\n      pop\n      pop\n      pop\n      swap2\n      pop\n      pop\n        /* \"SyntheticAssetToken_flattened.sol\":23339:23344  price */\n      dup1\n        /* \"SyntheticAssetToken_flattened.sol\":23332:23344  return price */\n      swap2\n      pop\n      pop\n        /* \"SyntheticAssetToken_flattened.sol\":23205:23416  function getLatestBtcPrice() public view returns (int) {... */\n      swap1\n      jump\t// out\n        /* \"SyntheticAssetToken_flattened.sol\":22747:22767  address public owner */\n    tag_56:\n      0x07\n      0x00\n      swap1\n      sload\n      swap1\n      0x0100\n      exp\n      swap1\n      div\n      0xffffffffffffffffffffffffffffffffffffffff\n      and\n      dup2\n      jump\t// out\n        /* \"SyntheticAssetToken_flattened.sol\":13470:13563  function symbol() public view virtual returns (string memory) {... */\n    tag_61:\n        /* \"SyntheticAssetToken_flattened.sol\":13517:13530  string memory */\n      0x60\n        /* \"SyntheticAssetToken_flattened.sol\":13549:13556  _symbol */\n      0x04\n        /* \"SyntheticAssetToken_flattened.sol\":13542:13556  return _symbol */\n      dup1\n      sload\n      tag_103\n      swap1\n      tag_78\n      jump\t// in\n    tag_103:\n      dup1\n      0x1f\n      add\n      0x20\n      dup1\n      swap2\n      div\n      mul\n      0x20\n      add\n      mload(0x40)\n      swap1\n      dup2\n      add\n      0x40\n      mstore\n      dup1\n      swap3\n      swap2\n      swap1\n      dup2\n      dup2\n      mstore\n      0x20\n      add\n      dup3\n      dup1\n      sload\n      tag_104\n      swap1\n      tag_78\n      jump\t// in\n    tag_104:\n      dup1\n      iszero\n      tag_105\n      jumpi\n      dup1\n      0x1f\n      lt\n      tag_106\n      jumpi\n      0x0100\n      dup1\n      dup4\n      sload\n      div\n      mul\n      dup4\n      mstore\n      swap2\n      0x20\n      add\n      swap2\n      jump(tag_105)\n    tag_106:\n      dup3\n      add\n      swap2\n      swap1\n      0x00\n      mstore\n      keccak256(0x00, 0x20)\n      swap1\n    tag_107:\n      dup2\n      sload\n      dup2\n      mstore\n      swap1\n      0x01\n      add\n      swap1\n      0x20\n      add\n      dup1\n      dup4\n      gt\n      tag_107\n      jumpi\n      dup3\n      swap1\n      sub\n      0x1f\n      and\n      dup3\n      add\n      swap2\n    tag_105:\n      pop\n      pop\n      pop\n      pop\n      pop\n      swap1\n      pop\n        /* \"SyntheticAssetToken_flattened.sol\":13470:13563  function symbol() public view virtual returns (string memory) {... */\n      swap1\n      jump\t// out\n        /* \"SyntheticAssetToken_flattened.sol\":14804:14982  function transfer(address to, uint256 value) public virtual returns (bool) {... */\n    tag_66:\n        /* \"SyntheticAssetToken_flattened.sol\":14873:14877  bool */\n      0x00\n        /* \"SyntheticAssetToken_flattened.sol\":14889:14902  address owner */\n      0x00\n        /* \"SyntheticAssetToken_flattened.sol\":14905:14917  _msgSender() */\n      tag_109\n        /* \"SyntheticAssetToken_flattened.sol\":14905:14915  _msgSender */\n      tag_85\n        /* \"SyntheticAssetToken_flattened.sol\":14905:14917  _msgSender() */\n      jump\t// in\n    tag_109:\n        /* \"SyntheticAssetToken_flattened.sol\":14889:14917  address owner = _msgSender() */\n      swap1\n      pop\n        /* \"SyntheticAssetToken_flattened.sol\":14927:14954  _transfer(owner, to, value) */\n      tag_110\n        /* \"SyntheticAssetToken_flattened.sol\":14937:14942  owner */\n      dup2\n        /* \"SyntheticAssetToken_flattened.sol\":14944:14946  to */\n      dup6\n        /* \"SyntheticAssetToken_flattened.sol\":14948:14953  value */\n      dup6\n        /* \"SyntheticAssetToken_flattened.sol\":14927:14936  _transfer */\n      tag_94\n        /* \"SyntheticAssetToken_flattened.sol\":14927:14954  _transfer(owner, to, value) */\n      jump\t// in\n    tag_110:\n        /* \"SyntheticAssetToken_flattened.sol\":14971:14975  true */\n      0x01\n        /* \"SyntheticAssetToken_flattened.sol\":14964:14975  return true */\n      swap2\n      pop\n      pop\n        /* \"SyntheticAssetToken_flattened.sol\":14804:14982  function transfer(address to, uint256 value) public virtual returns (bool) {... */\n      swap3\n      swap2\n      pop\n      pop\n      jump\t// out\n        /* \"SyntheticAssetToken_flattened.sol\":23497:24828  function mintWithEther() external payable {... */\n    tag_69:\n        /* \"SyntheticAssetToken_flattened.sol\":23569:23570  0 */\n      0x00\n        /* \"SyntheticAssetToken_flattened.sol\":23557:23566  msg.value */\n      callvalue\n        /* \"SyntheticAssetToken_flattened.sol\":23557:23570  msg.value > 0 */\n      gt\n        /* \"SyntheticAssetToken_flattened.sol\":23549:23603  require(msg.value > 0, \"Must send ETH to mint tokens\") */\n      tag_112\n      jumpi\n      mload(0x40)\n      0x08c379a000000000000000000000000000000000000000000000000000000000\n      dup2\n      mstore\n      0x04\n      add\n      tag_113\n      swap1\n      tag_114\n      jump\t// in\n    tag_113:\n      mload(0x40)\n      dup1\n      swap2\n      sub\n      swap1\n      revert\n    tag_112:\n        /* \"SyntheticAssetToken_flattened.sol\":23661:23673  int ethPrice */\n      0x00\n        /* \"SyntheticAssetToken_flattened.sol\":23680:23695  ethUsdPriceFeed */\n      0x05\n      0x00\n      swap1\n      sload\n      swap1\n      0x0100\n      exp\n      swap1\n      div\n      0xffffffffffffffffffffffffffffffffffffffff\n      and\n        /* \"SyntheticAssetToken_flattened.sol\":23680:23711  ethUsdPriceFeed.latestRoundData */\n      0xffffffffffffffffffffffffffffffffffffffff\n      and\n      0xfeaf968c\n        /* \"SyntheticAssetToken_flattened.sol\":23680:23713  ethUsdPriceFeed.latestRoundData() */\n      mload(0x40)\n      dup2\n      0xffffffff\n      and\n      0xe0\n      shl\n      dup2\n      mstore\n      0x04\n      add\n      0xa0\n      mload(0x40)\n      dup1\n      dup4\n      sub\n      dup2\n      dup7\n      gas\n      staticcall\n      iszero\n      dup1\n      iszero\n      tag_116\n      jumpi\n      returndatacopy(0x00, 0x00, returndatasize)\n      revert(0x00, returndatasize)\n    tag_116:\n      pop\n      pop\n      pop\n      pop\n      mload(0x40)\n      returndatasize\n      not(0x1f)\n      0x1f\n      dup3\n      add\n      and\n      dup3\n      add\n      dup1\n      0x40\n      mstore\n      pop\n      dup2\n      add\n      swap1\n      tag_117\n      swap2\n      swap1\n      tag_101\n      jump\t// in\n    tag_117:\n        /* \"SyntheticAssetToken_flattened.sol\":23658:23713  (, int ethPrice,,,) = ethUsdPriceFeed.latestRoundData() */\n      pop\n      pop\n      pop\n      swap2\n      pop\n      pop\n        /* \"SyntheticAssetToken_flattened.sol\":23760:23772  int btcPrice */\n      0x00\n        /* \"SyntheticAssetToken_flattened.sol\":23779:23794  btcUsdPriceFeed */\n      0x06\n      0x00\n      swap1\n      sload\n      swap1\n      0x0100\n      exp\n      swap1\n      div\n      0xffffffffffffffffffffffffffffffffffffffff\n      and\n        /* \"SyntheticAssetToken_flattened.sol\":23779:23810  btcUsdPriceFeed.latestRoundData */\n      0xffffffffffffffffffffffffffffffffffffffff\n      and\n      0xfeaf968c\n        /* \"SyntheticAssetToken_flattened.sol\":23779:23812  btcUsdPriceFeed.latestRoundData() */\n      mload(0x40)\n      dup2\n      0xffffffff\n      and\n      0xe0\n      shl\n      dup2\n      mstore\n      0x04\n      add\n      0xa0\n      mload(0x40)\n      dup1\n      dup4\n      sub\n      dup2\n      dup7\n      gas\n      staticcall\n      iszero\n      dup1\n      iszero\n      tag_119\n      jumpi\n      returndatacopy(0x00, 0x00, returndatasize)\n      revert(0x00, returndatasize)\n    tag_119:\n      pop\n      pop\n      pop\n      pop\n      mload(0x40)\n      returndatasize\n      not(0x1f)\n      0x1f\n      dup3\n      add\n      and\n      dup3\n      add\n      dup1\n      0x40\n      mstore\n      pop\n      dup2\n      add\n      swap1\n      tag_120\n      swap2\n      swap1\n      tag_101\n      jump\t// in\n    tag_120:\n        /* \"SyntheticAssetToken_flattened.sol\":23757:23812  (, int btcPrice,,,) = btcUsdPriceFeed.latestRoundData() */\n      pop\n      pop\n      pop\n      swap2\n      pop\n      pop\n        /* \"SyntheticAssetToken_flattened.sol\":23875:23876  0 */\n      0x00\n        /* \"SyntheticAssetToken_flattened.sol\":23864:23872  ethPrice */\n      dup3\n        /* \"SyntheticAssetToken_flattened.sol\":23864:23876  ethPrice > 0 */\n      sgt\n        /* \"SyntheticAssetToken_flattened.sol\":23864:23892  ethPrice > 0 && btcPrice > 0 */\n      dup1\n      iszero\n      tag_121\n      jumpi\n      pop\n        /* \"SyntheticAssetToken_flattened.sol\":23891:23892  0 */\n      0x00\n        /* \"SyntheticAssetToken_flattened.sol\":23880:23888  btcPrice */\n      dup2\n        /* \"SyntheticAssetToken_flattened.sol\":23880:23892  btcPrice > 0 */\n      sgt\n        /* \"SyntheticAssetToken_flattened.sol\":23864:23892  ethPrice > 0 && btcPrice > 0 */\n    tag_121:\n        /* \"SyntheticAssetToken_flattened.sol\":23856:23917  require(ethPrice > 0 && btcPrice > 0, \"Invalid oracle price\") */\n      tag_122\n      jumpi\n      mload(0x40)\n      0x08c379a000000000000000000000000000000000000000000000000000000000\n      dup2\n      mstore\n      0x04\n      add\n      tag_123\n      swap1\n      tag_124\n      jump\t// in\n    tag_123:\n      mload(0x40)\n      dup1\n      swap2\n      sub\n      swap1\n      revert\n    tag_122:\n        /* \"SyntheticAssetToken_flattened.sol\":23990:24010  uint256 ethPriceUint */\n      0x00\n        /* \"SyntheticAssetToken_flattened.sol\":24021:24029  ethPrice */\n      dup3\n        /* \"SyntheticAssetToken_flattened.sol\":23990:24030  uint256 ethPriceUint = uint256(ethPrice) */\n      swap1\n      pop\n        /* \"SyntheticAssetToken_flattened.sol\":24040:24060  uint256 btcPriceUint */\n      0x00\n        /* \"SyntheticAssetToken_flattened.sol\":24071:24079  btcPrice */\n      dup3\n        /* \"SyntheticAssetToken_flattened.sol\":24040:24080  uint256 btcPriceUint = uint256(btcPrice) */\n      swap1\n      pop\n        /* \"SyntheticAssetToken_flattened.sol\":24356:24388  uint256 depositValueInUsd_scaled */\n      0x00\n        /* \"SyntheticAssetToken_flattened.sol\":24420:24424  1e18 */\n      0x0de0b6b3a7640000\n        /* \"SyntheticAssetToken_flattened.sol\":24404:24416  ethPriceUint */\n      dup4\n        /* \"SyntheticAssetToken_flattened.sol\":24392:24401  msg.value */\n      callvalue\n        /* \"SyntheticAssetToken_flattened.sol\":24392:24416  msg.value * ethPriceUint */\n      tag_125\n      swap2\n      swap1\n      tag_126\n      jump\t// in\n    tag_125:\n        /* \"SyntheticAssetToken_flattened.sol\":24391:24424  (msg.value * ethPriceUint) / 1e18 */\n      tag_127\n      swap2\n      swap1\n      tag_128\n      jump\t// in\n    tag_127:\n        /* \"SyntheticAssetToken_flattened.sol\":24356:24424  uint256 depositValueInUsd_scaled = (msg.value * ethPriceUint) / 1e18 */\n      swap1\n      pop\n        /* \"SyntheticAssetToken_flattened.sol\":24637:24661  uint256 btcAmount_scaled */\n      0x00\n        /* \"SyntheticAssetToken_flattened.sol\":24706:24718  btcPriceUint */\n      dup3\n        /* \"SyntheticAssetToken_flattened.sol\":24693:24701  10 ** 10 */\n      0x02540be400\n        /* \"SyntheticAssetToken_flattened.sol\":24665:24689  depositValueInUsd_scaled */\n      dup4\n        /* \"SyntheticAssetToken_flattened.sol\":24665:24702  depositValueInUsd_scaled * (10 ** 10) */\n      tag_129\n      swap2\n      swap1\n      tag_126\n      jump\t// in\n    tag_129:\n        /* \"SyntheticAssetToken_flattened.sol\":24664:24718  (depositValueInUsd_scaled * (10 ** 10)) / btcPriceUint */\n      tag_130\n      swap2\n      swap1\n      tag_128\n      jump\t// in\n    tag_130:\n        /* \"SyntheticAssetToken_flattened.sol\":24637:24718  uint256 btcAmount_scaled = (depositValueInUsd_scaled * (10 ** 10)) / btcPriceUint */\n      swap1\n      pop\n        /* \"SyntheticAssetToken_flattened.sol\":24786:24821  _mint(msg.sender, btcAmount_scaled) */\n      tag_131\n        /* \"SyntheticAssetToken_flattened.sol\":24792:24802  msg.sender */\n      caller\n        /* \"SyntheticAssetToken_flattened.sol\":24804:24820  btcAmount_scaled */\n      dup3\n        /* \"SyntheticAssetToken_flattened.sol\":24786:24791  _mint */\n      tag_132\n        /* \"SyntheticAssetToken_flattened.sol\":24786:24821  _mint(msg.sender, btcAmount_scaled) */\n      jump\t// in\n    tag_131:\n        /* \"SyntheticAssetToken_flattened.sol\":23539:24828  {... */\n      pop\n      pop\n      pop\n      pop\n      pop\n      pop\n        /* \"SyntheticAssetToken_flattened.sol\":23497:24828  function mintWithEther() external payable {... */\n      jump\t// out\n        /* \"SyntheticAssetToken_flattened.sol\":15040:15180  function allowance(address owner, address spender) public view virtual returns (uint256) {... */\n    tag_74:\n        /* \"SyntheticAssetToken_flattened.sol\":15120:15127  uint256 */\n      0x00\n        /* \"SyntheticAssetToken_flattened.sol\":15146:15157  _allowances */\n      0x01\n        /* \"SyntheticAssetToken_flattened.sol\":15146:15164  _allowances[owner] */\n      0x00\n        /* \"SyntheticAssetToken_flattened.sol\":15158:15163  owner */\n      dup5\n        /* \"SyntheticAssetToken_flattened.sol\":15146:15164  _allowances[owner] */\n      0xffffffffffffffffffffffffffffffffffffffff\n      and\n      0xffffffffffffffffffffffffffffffffffffffff\n      and\n      dup2\n      mstore\n      0x20\n      add\n      swap1\n      dup2\n      mstore\n      0x20\n      add\n      0x00\n      keccak256\n        /* \"SyntheticAssetToken_flattened.sol\":15146:15173  _allowances[owner][spender] */\n      0x00\n        /* \"SyntheticAssetToken_flattened.sol\":15165:15172  spender */\n      dup4\n        /* \"SyntheticAssetToken_flattened.sol\":15146:15173  _allowances[owner][spender] */\n      0xffffffffffffffffffffffffffffffffffffffff\n      and\n      0xffffffffffffffffffffffffffffffffffffffff\n      and\n      dup2\n      mstore\n      0x20\n      add\n      swap1\n      dup2\n      mstore\n      0x20\n      add\n      0x00\n      keccak256\n      sload\n        /* \"SyntheticAssetToken_flattened.sol\":15139:15173  return _allowances[owner][spender] */\n      swap1\n      pop\n        /* \"SyntheticAssetToken_flattened.sol\":15040:15180  function allowance(address owner, address spender) public view virtual returns (uint256) {... */\n      swap3\n      swap2\n      pop\n      pop\n      jump\t// out\n        /* \"SyntheticAssetToken_flattened.sol\":4816:4912  function _msgSender() internal view virtual returns (address) {... */\n    tag_85:\n        /* \"SyntheticAssetToken_flattened.sol\":4869:4876  address */\n      0x00\n        /* \"SyntheticAssetToken_flattened.sol\":4895:4905  msg.sender */\n      caller\n        /* \"SyntheticAssetToken_flattened.sol\":4888:4905  return msg.sender */\n      swap1\n      pop\n        /* \"SyntheticAssetToken_flattened.sol\":4816:4912  function _msgSender() internal view virtual returns (address) {... */\n      swap1\n      jump\t// out\n        /* \"SyntheticAssetToken_flattened.sol\":20215:20343  function _approve(address owner, address spender, uint256 value) internal {... */\n    tag_87:\n        /* \"SyntheticAssetToken_flattened.sol\":20299:20336  _approve(owner, spender, value, true) */\n      tag_136\n        /* \"SyntheticAssetToken_flattened.sol\":20308:20313  owner */\n      dup4\n        /* \"SyntheticAssetToken_flattened.sol\":20315:20322  spender */\n      dup4\n        /* \"SyntheticAssetToken_flattened.sol\":20324:20329  value */\n      dup4\n        /* \"SyntheticAssetToken_flattened.sol\":20331:20335  true */\n      0x01\n        /* \"SyntheticAssetToken_flattened.sol\":20299:20307  _approve */\n      tag_137\n        /* \"SyntheticAssetToken_flattened.sol\":20299:20336  _approve(owner, spender, value, true) */\n      jump\t// in\n    tag_136:\n        /* \"SyntheticAssetToken_flattened.sol\":20215:20343  function _approve(address owner, address spender, uint256 value) internal {... */\n      pop\n      pop\n      pop\n      jump\t// out\n        /* \"SyntheticAssetToken_flattened.sol\":21904:22380  function _spendAllowance(address owner, address spender, uint256 value) internal virtual {... */\n    tag_92:\n        /* \"SyntheticAssetToken_flattened.sol\":22003:22027  uint256 currentAllowance */\n      0x00\n        /* \"SyntheticAssetToken_flattened.sol\":22030:22055  allowance(owner, spender) */\n      tag_139\n        /* \"SyntheticAssetToken_flattened.sol\":22040:22045  owner */\n      dup5\n        /* \"SyntheticAssetToken_flattened.sol\":22047:22054  spender */\n      dup5\n        /* \"SyntheticAssetToken_flattened.sol\":22030:22039  allowance */\n      tag_74\n        /* \"SyntheticAssetToken_flattened.sol\":22030:22055  allowance(owner, spender) */\n      jump\t// in\n    tag_139:\n        /* \"SyntheticAssetToken_flattened.sol\":22003:22055  uint256 currentAllowance = allowance(owner, spender) */\n      swap1\n      pop\n        /* \"SyntheticAssetToken_flattened.sol\":22088:22105  type(uint256).max */\n      0xffffffffffffffffffffffffffffffffffffffffffffffffffffffffffffffff\n        /* \"SyntheticAssetToken_flattened.sol\":22069:22085  currentAllowance */\n      dup2\n        /* \"SyntheticAssetToken_flattened.sol\":22069:22105  currentAllowance < type(uint256).max */\n      lt\n        /* \"SyntheticAssetToken_flattened.sol\":22065:22374  if (currentAllowance < type(uint256).max) {... */\n      iszero\n      tag_140\n      jumpi\n        /* \"SyntheticAssetToken_flattened.sol\":22144:22149  value */\n      dup2\n        /* \"SyntheticAssetToken_flattened.sol\":22125:22141  currentAllowance */\n      dup2\n        /* \"SyntheticAssetToken_flattened.sol\":22125:22149  currentAllowance < value */\n      lt\n        /* \"SyntheticAssetToken_flattened.sol\":22121:22251  if (currentAllowance < value) {... */\n      iszero\n      tag_141\n      jumpi\n        /* \"SyntheticAssetToken_flattened.sol\":22203:22210  spender */\n      dup3\n        /* \"SyntheticAssetToken_flattened.sol\":22212:22228  currentAllowance */\n      dup2\n        /* \"SyntheticAssetToken_flattened.sol\":22230:22235  value */\n      dup4\n        /* \"SyntheticAssetToken_flattened.sol\":22176:22236  ERC20InsufficientAllowance(spender, currentAllowance, value) */\n      mload(0x40)\n      0xfb8f41b200000000000000000000000000000000000000000000000000000000\n      dup2\n      mstore\n      0x04\n      add\n      tag_142\n      swap4\n      swap3\n      swap2\n      swap1\n      tag_143\n      jump\t// in\n    tag_142:\n      mload(0x40)\n      dup1\n      swap2\n      sub\n      swap1\n      revert\n        /* \"SyntheticAssetToken_flattened.sol\":22121:22251  if (currentAllowance < value) {... */\n    tag_141:\n        /* \"SyntheticAssetToken_flattened.sol\":22292:22349  _approve(owner, spender, currentAllowance - value, false) */\n      tag_144\n        /* \"SyntheticAssetToken_flattened.sol\":22301:22306  owner */\n      dup5\n        /* \"SyntheticAssetToken_flattened.sol\":22308:22315  spender */\n      dup5\n        /* \"SyntheticAssetToken_flattened.sol\":22336:22341  value */\n      dup5\n        /* \"SyntheticAssetToken_flattened.sol\":22317:22333  currentAllowance */\n      dup5\n        /* \"SyntheticAssetToken_flattened.sol\":22317:22341  currentAllowance - value */\n      sub\n        /* \"SyntheticAssetToken_flattened.sol\":22343:22348  false */\n      0x00\n        /* \"SyntheticAssetToken_flattened.sol\":22292:22300  _approve */\n      tag_137\n        /* \"SyntheticAssetToken_flattened.sol\":22292:22349  _approve(owner, spender, currentAllowance - value, false) */\n      jump\t// in\n    tag_144:\n        /* \"SyntheticAssetToken_flattened.sol\":22065:22374  if (currentAllowance < type(uint256).max) {... */\n    tag_140:\n        /* \"SyntheticAssetToken_flattened.sol\":21993:22380  {... */\n      pop\n        /* \"SyntheticAssetToken_flattened.sol\":21904:22380  function _spendAllowance(address owner, address spender, uint256 value) internal virtual {... */\n      pop\n      pop\n      pop\n      jump\t// out\n        /* \"SyntheticAssetToken_flattened.sol\":16882:17182  function _transfer(address from, address to, uint256 value) internal {... */\n    tag_94:\n        /* \"SyntheticAssetToken_flattened.sol\":16981:16982  0 */\n      0x00\n        /* \"SyntheticAssetToken_flattened.sol\":16965:16983  from == address(0) */\n      0xffffffffffffffffffffffffffffffffffffffff\n      and\n        /* \"SyntheticAssetToken_flattened.sol\":16965:16969  from */\n      dup4\n        /* \"SyntheticAssetToken_flattened.sol\":16965:16983  from == address(0) */\n      0xffffffffffffffffffffffffffffffffffffffff\n      and\n      sub\n        /* \"SyntheticAssetToken_flattened.sol\":16961:17047  if (from == address(0)) {... */\n      tag_146\n      jumpi\n        /* \"SyntheticAssetToken_flattened.sol\":17033:17034  0 */\n      0x00\n        /* \"SyntheticAssetToken_flattened.sol\":17006:17036  ERC20InvalidSender(address(0)) */\n      mload(0x40)\n      0x96c6fd1e00000000000000000000000000000000000000000000000000000000\n      dup2\n      mstore\n      0x04\n      add\n      tag_147\n      swap2\n      swap1\n      tag_58\n      jump\t// in\n    tag_147:\n      mload(0x40)\n      dup1\n      swap2\n      sub\n      swap1\n      revert\n        /* \"SyntheticAssetToken_flattened.sol\":16961:17047  if (from == address(0)) {... */\n    tag_146:\n        /* \"SyntheticAssetToken_flattened.sol\":17074:17075  0 */\n      0x00\n        /* \"SyntheticAssetToken_flattened.sol\":17060:17076  to == address(0) */\n      0xffffffffffffffffffffffffffffffffffffffff\n      and\n        /* \"SyntheticAssetToken_flattened.sol\":17060:17062  to */\n      dup3\n        /* \"SyntheticAssetToken_flattened.sol\":17060:17076  to == address(0) */\n      0xffffffffffffffffffffffffffffffffffffffff\n      and\n      sub\n        /* \"SyntheticAssetToken_flattened.sol\":17056:17142  if (to == address(0)) {... */\n      tag_148\n      jumpi\n        /* \"SyntheticAssetToken_flattened.sol\":17128:17129  0 */\n      0x00\n        /* \"SyntheticAssetToken_flattened.sol\":17099:17131  ERC20InvalidReceiver(address(0)) */\n      mload(0x40)\n      0xec442f0500000000000000000000000000000000000000000000000000000000\n      dup2\n      mstore\n      0x04\n      add\n      tag_149\n      swap2\n      swap1\n      tag_58\n      jump\t// in\n    tag_149:\n      mload(0x40)\n      dup1\n      swap2\n      sub\n      swap1\n      revert\n        /* \"SyntheticAssetToken_flattened.sol\":17056:17142  if (to == address(0)) {... */\n    tag_148:\n        /* \"SyntheticAssetToken_flattened.sol\":17151:17175  _update(from, to, value) */\n      tag_150\n        /* \"SyntheticAssetToken_flattened.sol\":17159:17163  from */\n      dup4\n        /* \"SyntheticAssetToken_flattened.sol\":17165:17167  to */\n      dup4\n        /* \"SyntheticAssetToken_flattened.sol\":17169:17174  value */\n      dup4\n        /* \"SyntheticAssetToken_flattened.sol\":17151:17158  _update */\n      tag_151\n        /* \"SyntheticAssetToken_flattened.sol\":17151:17175  _update(from, to, value) */\n      jump\t// in\n    tag_150:\n        /* \"SyntheticAssetToken_flattened.sol\":16882:17182  function _transfer(address from, address to, uint256 value) internal {... */\n      pop\n      pop\n      pop\n      jump\t// out\n        /* \"SyntheticAssetToken_flattened.sol\":18947:19155  function _mint(address account, uint256 value) internal {... */\n    tag_132:\n        /* \"SyntheticAssetToken_flattened.sol\":19036:19037  0 */\n      0x00\n        /* \"SyntheticAssetToken_flattened.sol\":19017:19038  account == address(0) */\n      0xffffffffffffffffffffffffffffffffffffffff\n      and\n        /* \"SyntheticAssetToken_flattened.sol\":19017:19024  account */\n      dup3\n        /* \"SyntheticAssetToken_flattened.sol\":19017:19038  account == address(0) */\n      0xffffffffffffffffffffffffffffffffffffffff\n      and\n      sub\n        /* \"SyntheticAssetToken_flattened.sol\":19013:19104  if (account == address(0)) {... */\n      tag_153\n      jumpi\n        /* \"SyntheticAssetToken_flattened.sol\":19090:19091  0 */\n      0x00\n        /* \"SyntheticAssetToken_flattened.sol\":19061:19093  ERC20InvalidReceiver(address(0)) */\n      mload(0x40)\n      0xec442f0500000000000000000000000000000000000000000000000000000000\n      dup2\n      mstore\n      0x04\n      add\n      tag_154\n      swap2\n      swap1\n      tag_58\n      jump\t// in\n    tag_154:\n      mload(0x40)\n      dup1\n      swap2\n      sub\n      swap1\n      revert\n        /* \"SyntheticAssetToken_flattened.sol\":19013:19104  if (account == address(0)) {... */\n    tag_153:\n        /* \"SyntheticAssetToken_flattened.sol\":19113:19148  _update(address(0), account, value) */\n      tag_155\n        /* \"SyntheticAssetToken_flattened.sol\":19129:19130  0 */\n      0x00\n        /* \"SyntheticAssetToken_flattened.sol\":19133:19140  account */\n      dup4\n        /* \"SyntheticAssetToken_flattened.sol\":19142:19147  value */\n      dup4\n        /* \"SyntheticAssetToken_flattened.sol\":19113:19120  _update */\n      tag_151\n        /* \"SyntheticAssetToken_flattened.sol\":19113:19148  _update(address(0), account, value) */\n      jump\t// in\n    tag_155:\n        /* \"SyntheticAssetToken_flattened.sol\":18947:19155  function _mint(address account, uint256 value) internal {... */\n      pop\n      pop\n      jump\t// out\n        /* \"SyntheticAssetToken_flattened.sol\":21190:21622  function _approve(address owner, address spender, uint256 value, bool emitEvent) internal virtual {... */\n    tag_137:\n        /* \"SyntheticAssetToken_flattened.sol\":21319:21320  0 */\n      0x00\n        /* \"SyntheticAssetToken_flattened.sol\":21302:21321  owner == address(0) */\n      0xffffffffffffffffffffffffffffffffffffffff\n      and\n        /* \"SyntheticAssetToken_flattened.sol\":21302:21307  owner */\n      dup5\n        /* \"SyntheticAssetToken_flattened.sol\":21302:21321  owner == address(0) */\n      0xffffffffffffffffffffffffffffffffffffffff\n      and\n      sub\n        /* \"SyntheticAssetToken_flattened.sol\":21298:21387  if (owner == address(0)) {... */\n      tag_157\n      jumpi\n        /* \"SyntheticAssetToken_flattened.sol\":21373:21374  0 */\n      0x00\n        /* \"SyntheticAssetToken_flattened.sol\":21344:21376  ERC20InvalidApprover(address(0)) */\n      mload(0x40)\n      0xe602df0500000000000000000000000000000000000000000000000000000000\n      dup2\n      mstore\n      0x04\n      add\n      tag_158\n      swap2\n      swap1\n      tag_58\n      jump\t// in\n    tag_158:\n      mload(0x40)\n      dup1\n      swap2\n      sub\n      swap1\n      revert\n        /* \"SyntheticAssetToken_flattened.sol\":21298:21387  if (owner == address(0)) {... */\n    tag_157:\n        /* \"SyntheticAssetToken_flattened.sol\":21419:21420  0 */\n      0x00\n        /* \"SyntheticAssetToken_flattened.sol\":21400:21421  spender == address(0) */\n      0xffffffffffffffffffffffffffffffffffffffff\n      and\n        /* \"SyntheticAssetToken_flattened.sol\":21400:21407  spender */\n      dup4\n        /* \"SyntheticAssetToken_flattened.sol\":21400:21421  spender == address(0) */\n      0xffffffffffffffffffffffffffffffffffffffff\n      and\n      sub\n        /* \"SyntheticAssetToken_flattened.sol\":21396:21486  if (spender == address(0)) {... */\n      tag_159\n      jumpi\n        /* \"SyntheticAssetToken_flattened.sol\":21472:21473  0 */\n      0x00\n        /* \"SyntheticAssetToken_flattened.sol\":21444:21475  ERC20InvalidSpender(address(0)) */\n      mload(0x40)\n      0x94280d6200000000000000000000000000000000000000000000000000000000\n      dup2\n      mstore\n      0x04\n      add\n      tag_160\n      swap2\n      swap1\n      tag_58\n      jump\t// in\n    tag_160:\n      mload(0x40)\n      dup1\n      swap2\n      sub\n      swap1\n      revert\n        /* \"SyntheticAssetToken_flattened.sol\":21396:21486  if (spender == address(0)) {... */\n    tag_159:\n        /* \"SyntheticAssetToken_flattened.sol\":21525:21530  value */\n      dup2\n        /* \"SyntheticAssetToken_flattened.sol\":21495:21506  _allowances */\n      0x01\n        /* \"SyntheticAssetToken_flattened.sol\":21495:21513  _allowances[owner] */\n      0x00\n        /* \"SyntheticAssetToken_flattened.sol\":21507:21512  owner */\n      dup7\n        /* \"SyntheticAssetToken_flattened.sol\":21495:21513  _allowances[owner] */\n      0xffffffffffffffffffffffffffffffffffffffff\n      and\n      0xffffffffffffffffffffffffffffffffffffffff\n      and\n      dup2\n      mstore\n      0x20\n      add\n      swap1\n      dup2\n      mstore\n      0x20\n      add\n      0x00\n      keccak256\n        /* \"SyntheticAssetToken_flattened.sol\":21495:21522  _allowances[owner][spender] */\n      0x00\n        /* \"SyntheticAssetToken_flattened.sol\":21514:21521  spender */\n      dup6\n        /* \"SyntheticAssetToken_flattened.sol\":21495:21522  _allowances[owner][spender] */\n      0xffffffffffffffffffffffffffffffffffffffff\n      and\n      0xffffffffffffffffffffffffffffffffffffffff\n      and\n      dup2\n      mstore\n      0x20\n      add\n      swap1\n      dup2\n      mstore\n      0x20\n      add\n      0x00\n      keccak256\n        /* \"SyntheticAssetToken_flattened.sol\":21495:21530  _allowances[owner][spender] = value */\n      dup2\n      swap1\n      sstore\n      pop\n        /* \"SyntheticAssetToken_flattened.sol\":21544:21553  emitEvent */\n      dup1\n        /* \"SyntheticAssetToken_flattened.sol\":21540:21616  if (emitEvent) {... */\n      iszero\n      tag_161\n      jumpi\n        /* \"SyntheticAssetToken_flattened.sol\":21590:21597  spender */\n      dup3\n        /* \"SyntheticAssetToken_flattened.sol\":21574:21605  Approval(owner, spender, value) */\n      0xffffffffffffffffffffffffffffffffffffffff\n      and\n        /* \"SyntheticAssetToken_flattened.sol\":21583:21588  owner */\n      dup5\n        /* \"SyntheticAssetToken_flattened.sol\":21574:21605  Approval(owner, spender, value) */\n      0xffffffffffffffffffffffffffffffffffffffff\n      and\n      0x8c5be1e5ebec7d5bd14f71427d1e84f3dd0314c0f7b2291e5b200ac8c7c3b925\n        /* \"SyntheticAssetToken_flattened.sol\":21599:21604  value */\n      dup5\n        /* \"SyntheticAssetToken_flattened.sol\":21574:21605  Approval(owner, spender, value) */\n      mload(0x40)\n      tag_162\n      swap2\n      swap1\n      tag_31\n      jump\t// in\n    tag_162:\n      mload(0x40)\n      dup1\n      swap2\n      sub\n      swap1\n      log3\n        /* \"SyntheticAssetToken_flattened.sol\":21540:21616  if (emitEvent) {... */\n    tag_161:\n        /* \"SyntheticAssetToken_flattened.sol\":21190:21622  function _approve(address owner, address spender, uint256 value, bool emitEvent) internal virtual {... */\n      pop\n      pop\n      pop\n      pop\n      jump\t// out\n        /* \"SyntheticAssetToken_flattened.sol\":17497:18604  function _update(address from, address to, uint256 value) internal virtual {... */\n    tag_151:\n        /* \"SyntheticAssetToken_flattened.sol\":17602:17603  0 */\n      0x00\n        /* \"SyntheticAssetToken_flattened.sol\":17586:17604  from == address(0) */\n      0xffffffffffffffffffffffffffffffffffffffff\n      and\n        /* \"SyntheticAssetToken_flattened.sol\":17586:17590  from */\n      dup4\n        /* \"SyntheticAssetToken_flattened.sol\":17586:17604  from == address(0) */\n      0xffffffffffffffffffffffffffffffffffffffff\n      and\n      sub\n        /* \"SyntheticAssetToken_flattened.sol\":17582:18122  if (from == address(0)) {... */\n      tag_164\n      jumpi\n        /* \"SyntheticAssetToken_flattened.sol\":17738:17743  value */\n      dup1\n        /* \"SyntheticAssetToken_flattened.sol\":17722:17734  _totalSupply */\n      0x02\n      0x00\n        /* \"SyntheticAssetToken_flattened.sol\":17722:17743  _totalSupply += value */\n      dup3\n      dup3\n      sload\n      tag_165\n      swap2\n      swap1\n      tag_166\n      jump\t// in\n    tag_165:\n      swap3\n      pop\n      pop\n      dup2\n      swap1\n      sstore\n      pop\n        /* \"SyntheticAssetToken_flattened.sol\":17582:18122  if (from == address(0)) {... */\n      jump(tag_167)\n    tag_164:\n        /* \"SyntheticAssetToken_flattened.sol\":17774:17793  uint256 fromBalance */\n      0x00\n        /* \"SyntheticAssetToken_flattened.sol\":17796:17805  _balances */\n      0x00\n        /* \"SyntheticAssetToken_flattened.sol\":17796:17811  _balances[from] */\n      0x00\n        /* \"SyntheticAssetToken_flattened.sol\":17806:17810  from */\n      dup6\n        /* \"SyntheticAssetToken_flattened.sol\":17796:17811  _balances[from] */\n      0xffffffffffffffffffffffffffffffffffffffff\n      and\n      0xffffffffffffffffffffffffffffffffffffffff\n      and\n      dup2\n      mstore\n      0x20\n      add\n      swap1\n      dup2\n      mstore\n      0x20\n      add\n      0x00\n      keccak256\n      sload\n        /* \"SyntheticAssetToken_flattened.sol\":17774:17811  uint256 fromBalance = _balances[from] */\n      swap1\n      pop\n        /* \"SyntheticAssetToken_flattened.sol\":17843:17848  value */\n      dup2\n        /* \"SyntheticAssetToken_flattened.sol\":17829:17840  fromBalance */\n      dup2\n        /* \"SyntheticAssetToken_flattened.sol\":17829:17848  fromBalance < value */\n      lt\n        /* \"SyntheticAssetToken_flattened.sol\":17825:17940  if (fromBalance < value) {... */\n      iszero\n      tag_168\n      jumpi\n        /* \"SyntheticAssetToken_flattened.sol\":17900:17904  from */\n      dup4\n        /* \"SyntheticAssetToken_flattened.sol\":17906:17917  fromBalance */\n      dup2\n        /* \"SyntheticAssetToken_flattened.sol\":17919:17924  value */\n      dup4\n        /* \"SyntheticAssetToken_flattened.sol\":17875:17925  ERC20InsufficientBalance(from, fromBalance, value) */\n      mload(0x40)\n      0xe450d38c00000000000000000000000000000000000000000000000000000000\n      dup2\n      mstore\n      0x04\n      add\n      tag_169\n      swap4\n      swap3\n      swap2\n      swap1\n      tag_143\n      jump\t// in\n    tag_169:\n      mload(0x40)\n      dup1\n      swap2\n      sub\n      swap1\n      revert\n        /* \"SyntheticAssetToken_flattened.sol\":17825:17940  if (fromBalance < value) {... */\n    tag_168:\n        /* \"SyntheticAssetToken_flattened.sol\":18092:18097  value */\n      dup2\n        /* \"SyntheticAssetToken_flattened.sol\":18078:18089  fromBalance */\n      dup2\n        /* \"SyntheticAssetToken_flattened.sol\":18078:18097  fromBalance - value */\n      sub\n        /* \"SyntheticAssetToken_flattened.sol\":18060:18069  _balances */\n      0x00\n        /* \"SyntheticAssetToken_flattened.sol\":18060:18075  _balances[from] */\n      0x00\n        /* \"SyntheticAssetToken_flattened.sol\":18070:18074  from */\n      dup7\n        /* \"SyntheticAssetToken_flattened.sol\":18060:18075  _balances[from] */\n      0xffffffffffffffffffffffffffffffffffffffff\n      and\n      0xffffffffffffffffffffffffffffffffffffffff\n      and\n      dup2\n      mstore\n      0x20\n      add\n      swap1\n      dup2\n      mstore\n      0x20\n      add\n      0x00\n      keccak256\n        /* \"SyntheticAssetToken_flattened.sol\":18060:18097  _balances[from] = fromBalance - value */\n      dup2\n      swap1\n      sstore\n      pop\n        /* \"SyntheticAssetToken_flattened.sol\":17760:18122  {... */\n      pop\n        /* \"SyntheticAssetToken_flattened.sol\":17582:18122  if (from == address(0)) {... */\n    tag_167:\n        /* \"SyntheticAssetToken_flattened.sol\":18150:18151  0 */\n      0x00\n        /* \"SyntheticAssetToken_flattened.sol\":18136:18152  to == address(0) */\n      0xffffffffffffffffffffffffffffffffffffffff\n      and\n        /* \"SyntheticAssetToken_flattened.sol\":18136:18138  to */\n      dup3\n        /* \"SyntheticAssetToken_flattened.sol\":18136:18152  to == address(0) */\n      0xffffffffffffffffffffffffffffffffffffffff\n      and\n      sub\n        /* \"SyntheticAssetToken_flattened.sol\":18132:18557  if (to == address(0)) {... */\n      tag_170\n      jumpi\n        /* \"SyntheticAssetToken_flattened.sol\":18315:18320  value */\n      dup1\n        /* \"SyntheticAssetToken_flattened.sol\":18299:18311  _totalSupply */\n      0x02\n      0x00\n        /* \"SyntheticAssetToken_flattened.sol\":18299:18320  _totalSupply -= value */\n      dup3\n      dup3\n      sload\n      sub\n      swap3\n      pop\n      pop\n      dup2\n      swap1\n      sstore\n      pop\n        /* \"SyntheticAssetToken_flattened.sol\":18132:18557  if (to == address(0)) {... */\n      jump(tag_171)\n    tag_170:\n        /* \"SyntheticAssetToken_flattened.sol\":18527:18532  value */\n      dup1\n        /* \"SyntheticAssetToken_flattened.sol\":18510:18519  _balances */\n      0x00\n        /* \"SyntheticAssetToken_flattened.sol\":18510:18523  _balances[to] */\n      0x00\n        /* \"SyntheticAssetToken_flattened.sol\":18520:18522  to */\n      dup5\n        /* \"SyntheticAssetToken_flattened.sol\":18510:18523  _balances[to] */\n      0xffffffffffffffffffffffffffffffffffffffff\n      and\n      0xffffffffffffffffffffffffffffffffffffffff\n      and\n      dup2\n      mstore\n      0x20\n      add\n      swap1\n      dup2\n      mstore\n      0x20\n      add\n      0x00\n      keccak256\n      0x00\n        /* \"SyntheticAssetToken_flattened.sol\":18510:18532  _balances[to] += value */\n      dup3\n      dup3\n      sload\n      add\n      swap3\n      pop\n      pop\n      dup2\n      swap1\n      sstore\n      pop\n        /* \"SyntheticAssetToken_flattened.sol\":18132:18557  if (to == address(0)) {... */\n    tag_171:\n        /* \"SyntheticAssetToken_flattened.sol\":18587:18589  to */\n      dup2\n        /* \"SyntheticAssetToken_flattened.sol\":18572:18597  Transfer(from, to, value) */\n      0xffffffffffffffffffffffffffffffffffffffff\n      and\n        /* \"SyntheticAssetToken_flattened.sol\":18581:18585  from */\n      dup4\n        /* \"SyntheticAssetToken_flattened.sol\":18572:18597  Transfer(from, to, value) */\n      0xffffffffffffffffffffffffffffffffffffffff\n      and\n      0xddf252ad1be2c89b69c2b068fc378daa952ba7f163c4a11628f55a4df523b3ef\n        /* \"SyntheticAssetToken_flattened.sol\":18591:18596  value */\n      dup4\n        /* \"SyntheticAssetToken_flattened.sol\":18572:18597  Transfer(from, to, value) */\n      mload(0x40)\n      tag_172\n      swap2\n      swap1\n      tag_31\n      jump\t// in\n    tag_172:\n      mload(0x40)\n      dup1\n      swap2\n      sub\n      swap1\n      log3\n        /* \"SyntheticAssetToken_flattened.sol\":17497:18604  function _update(address from, address to, uint256 value) internal virtual {... */\n      pop\n      pop\n      pop\n      jump\t// out\n        /* \"#utility.yul\":7:106   */\n    tag_173:\n        /* \"#utility.yul\":59:65   */\n      0x00\n        /* \"#utility.yul\":93:98   */\n      dup2\n        /* \"#utility.yul\":87:99   */\n      mload\n        /* \"#utility.yul\":77:99   */\n      swap1\n      pop\n        /* \"#utility.yul\":7:106   */\n      swap2\n      swap1\n      pop\n      jump\t// out\n        /* \"#utility.yul\":112:281   */\n    tag_174:\n        /* \"#utility.yul\":196:207   */\n      0x00\n        /* \"#utility.yul\":230:236   */\n      dup3\n        /* \"#utility.yul\":225:228   */\n      dup3\n        /* \"#utility.yul\":218:237   */\n      mstore\n        /* \"#utility.yul\":270:274   */\n      0x20\n        /* \"#utility.yul\":265:268   */\n      dup3\n        /* \"#utility.yul\":261:275   */\n      add\n        /* \"#utility.yul\":246:275   */\n      swap1\n      pop\n        /* \"#utility.yul\":112:281   */\n      swap3\n      swap2\n      pop\n      pop\n      jump\t// out\n        /* \"#utility.yul\":287:426   */\n    tag_175:\n        /* \"#utility.yul\":376:382   */\n      dup3\n        /* \"#utility.yul\":371:374   */\n      dup2\n        /* \"#utility.yul\":366:369   */\n      dup4\n        /* \"#utility.yul\":360:383   */\n      mcopy\n        /* \"#utility.yul\":417:418   */\n      0x00\n        /* \"#utility.yul\":408:414   */\n      dup4\n        /* \"#utility.yul\":403:406   */\n      dup4\n        /* \"#utility.yul\":399:415   */\n      add\n        /* \"#utility.yul\":392:419   */\n      mstore\n        /* \"#utility.yul\":287:426   */\n      pop\n      pop\n      pop\n      jump\t// out\n        /* \"#utility.yul\":432:534   */\n    tag_176:\n        /* \"#utility.yul\":473:479   */\n      0x00\n        /* \"#utility.yul\":524:526   */\n      0x1f\n        /* \"#utility.yul\":520:527   */\n      not\n        /* \"#utility.yul\":515:517   */\n      0x1f\n        /* \"#utility.yul\":508:513   */\n      dup4\n        /* \"#utility.yul\":504:518   */\n      add\n        /* \"#utility.yul\":500:528   */\n      and\n        /* \"#utility.yul\":490:528   */\n      swap1\n      pop\n        /* \"#utility.yul\":432:534   */\n      swap2\n      swap1\n      pop\n      jump\t// out\n        /* \"#utility.yul\":540:917   */\n    tag_177:\n        /* \"#utility.yul\":628:631   */\n      0x00\n        /* \"#utility.yul\":656:695   */\n      tag_215\n        /* \"#utility.yul\":689:694   */\n      dup3\n        /* \"#utility.yul\":656:695   */\n      tag_173\n      jump\t// in\n    tag_215:\n        /* \"#utility.yul\":711:782   */\n      tag_216\n        /* \"#utility.yul\":775:781   */\n      dup2\n        /* \"#utility.yul\":770:773   */\n      dup6\n        /* \"#utility.yul\":711:782   */\n      tag_174\n      jump\t// in\n    tag_216:\n        /* \"#utility.yul\":704:782   */\n      swap4\n      pop\n        /* \"#utility.yul\":791:856   */\n      tag_217\n        /* \"#utility.yul\":849:855   */\n      dup2\n        /* \"#utility.yul\":844:847   */\n      dup6\n        /* \"#utility.yul\":837:841   */\n      0x20\n        /* \"#utility.yul\":830:835   */\n      dup7\n        /* \"#utility.yul\":826:842   */\n      add\n        /* \"#utility.yul\":791:856   */\n      tag_175\n      jump\t// in\n    tag_217:\n        /* \"#utility.yul\":881:910   */\n      tag_218\n        /* \"#utility.yul\":903:909   */\n      dup2\n        /* \"#utility.yul\":881:910   */\n      tag_176\n      jump\t// in\n    tag_218:\n        /* \"#utility.yul\":876:879   */\n      dup5\n        /* \"#utility.yul\":872:911   */\n      add\n        /* \"#utility.yul\":865:911   */\n      swap2\n      pop\n        /* \"#utility.yul\":632:917   */\n      pop\n        /* \"#utility.yul\":540:917   */\n      swap3\n      swap2\n      pop\n      pop\n      jump\t// out\n        /* \"#utility.yul\":923:1236   */\n    tag_19:\n        /* \"#utility.yul\":1036:1040   */\n      0x00\n        /* \"#utility.yul\":1074:1076   */\n      0x20\n        /* \"#utility.yul\":1063:1072   */\n      dup3\n        /* \"#utility.yul\":1059:1077   */\n      add\n        /* \"#utility.yul\":1051:1077   */\n      swap1\n      pop\n        /* \"#utility.yul\":1123:1132   */\n      dup2\n        /* \"#utility.yul\":1117:1121   */\n      dup2\n        /* \"#utility.yul\":1113:1133   */\n      sub\n        /* \"#utility.yul\":1109:1110   */\n      0x00\n        /* \"#utility.yul\":1098:1107   */\n      dup4\n        /* \"#utility.yul\":1094:1111   */\n      add\n        /* \"#utility.yul\":1087:1134   */\n      mstore\n        /* \"#utility.yul\":1151:1229   */\n      tag_220\n        /* \"#utility.yul\":1224:1228   */\n      dup2\n        /* \"#utility.yul\":1215:1221   */\n      dup5\n        /* \"#utility.yul\":1151:1229   */\n      tag_177\n      jump\t// in\n    tag_220:\n        /* \"#utility.yul\":1143:1229   */\n      swap1\n      pop\n        /* \"#utility.yul\":923:1236   */\n      swap3\n      swap2\n      pop\n      pop\n      jump\t// out\n        /* \"#utility.yul\":1323:1440   */\n    tag_179:\n        /* \"#utility.yul\":1432:1433   */\n      0x00\n        /* \"#utility.yul\":1429:1430   */\n      0x00\n        /* \"#utility.yul\":1422:1434   */\n      revert\n        /* \"#utility.yul\":1569:1695   */\n    tag_181:\n        /* \"#utility.yul\":1606:1613   */\n      0x00\n        /* \"#utility.yul\":1646:1688   */\n      0xffffffffffffffffffffffffffffffffffffffff\n        /* \"#utility.yul\":1639:1644   */\n      dup3\n        /* \"#utility.yul\":1635:1689   */\n      and\n        /* \"#utility.yul\":1624:1689   */\n      swap1\n      pop\n        /* \"#utility.yul\":1569:1695   */\n      swap2\n      swap1\n      pop\n      jump\t// out\n        /* \"#utility.yul\":1701:1797   */\n    tag_182:\n        /* \"#utility.yul\":1738:1745   */\n      0x00\n        /* \"#utility.yul\":1767:1791   */\n      tag_226\n        /* \"#utility.yul\":1785:1790   */\n      dup3\n        /* \"#utility.yul\":1767:1791   */\n      tag_181\n      jump\t// in\n    tag_226:\n        /* \"#utility.yul\":1756:1791   */\n      swap1\n      pop\n        /* \"#utility.yul\":1701:1797   */\n      swap2\n      swap1\n      pop\n      jump\t// out\n        /* \"#utility.yul\":1803:1925   */\n    tag_183:\n        /* \"#utility.yul\":1876:1900   */\n      tag_228\n        /* \"#utility.yul\":1894:1899   */\n      dup2\n        /* \"#utility.yul\":1876:1900   */\n      tag_182\n      jump\t// in\n    tag_228:\n        /* \"#utility.yul\":1869:1874   */\n      dup2\n        /* \"#utility.yul\":1866:1901   */\n      eq\n        /* \"#utility.yul\":1856:1919   */\n      tag_229\n      jumpi\n        /* \"#utility.yul\":1915:1916   */\n      0x00\n        /* \"#utility.yul\":1912:1913   */\n      0x00\n        /* \"#utility.yul\":1905:1917   */\n      revert\n        /* \"#utility.yul\":1856:1919   */\n    tag_229:\n        /* \"#utility.yul\":1803:1925   */\n      pop\n      jump\t// out\n        /* \"#utility.yul\":1931:2070   */\n    tag_184:\n        /* \"#utility.yul\":1977:1982   */\n      0x00\n        /* \"#utility.yul\":2015:2021   */\n      dup2\n        /* \"#utility.yul\":2002:2022   */\n      calldataload\n        /* \"#utility.yul\":1993:2022   */\n      swap1\n      pop\n        /* \"#utility.yul\":2031:2064   */\n      tag_231\n        /* \"#utility.yul\":2058:2063   */\n      dup2\n        /* \"#utility.yul\":2031:2064   */\n      tag_183\n      jump\t// in\n    tag_231:\n        /* \"#utility.yul\":1931:2070   */\n      swap3\n      swap2\n      pop\n      pop\n      jump\t// out\n        /* \"#utility.yul\":2076:2153   */\n    tag_185:\n        /* \"#utility.yul\":2113:2120   */\n      0x00\n        /* \"#utility.yul\":2142:2147   */\n      dup2\n        /* \"#utility.yul\":2131:2147   */\n      swap1\n      pop\n        /* \"#utility.yul\":2076:2153   */\n      swap2\n      swap1\n      pop\n      jump\t// out\n        /* \"#utility.yul\":2159:2281   */\n    tag_186:\n        /* \"#utility.yul\":2232:2256   */\n      tag_234\n        /* \"#utility.yul\":2250:2255   */\n      dup2\n        /* \"#utility.yul\":2232:2256   */\n      tag_185\n      jump\t// in\n    tag_234:\n        /* \"#utility.yul\":2225:2230   */\n      dup2\n        /* \"#utility.yul\":2222:2257   */\n      eq\n        /* \"#utility.yul\":2212:2275   */\n      tag_235\n      jumpi\n        /* \"#utility.yul\":2271:2272   */\n      0x00\n        /* \"#utility.yul\":2268:2269   */\n      0x00\n        /* \"#utility.yul\":2261:2273   */\n      revert\n        /* \"#utility.yul\":2212:2275   */\n    tag_235:\n        /* \"#utility.yul\":2159:2281   */\n      pop\n      jump\t// out\n        /* \"#utility.yul\":2287:2426   */\n    tag_187:\n        /* \"#utility.yul\":2333:2338   */\n      0x00\n        /* \"#utility.yul\":2371:2377   */\n      dup2\n        /* \"#utility.yul\":2358:2378   */\n      calldataload\n        /* \"#utility.yul\":2349:2378   */\n      swap1\n      pop\n        /* \"#utility.yul\":2387:2420   */\n      tag_237\n        /* \"#utility.yul\":2414:2419   */\n      dup2\n        /* \"#utility.yul\":2387:2420   */\n      tag_186\n      jump\t// in\n    tag_237:\n        /* \"#utility.yul\":2287:2426   */\n      swap3\n      swap2\n      pop\n      pop\n      jump\t// out\n        /* \"#utility.yul\":2432:2906   */\n    tag_23:\n        /* \"#utility.yul\":2500:2506   */\n      0x00\n        /* \"#utility.yul\":2508:2514   */\n      0x00\n        /* \"#utility.yul\":2557:2559   */\n      0x40\n        /* \"#utility.yul\":2545:2554   */\n      dup4\n        /* \"#utility.yul\":2536:2543   */\n      dup6\n        /* \"#utility.yul\":2532:2555   */\n      sub\n        /* \"#utility.yul\":2528:2560   */\n      slt\n        /* \"#utility.yul\":2525:2644   */\n      iszero\n      tag_239\n      jumpi\n        /* \"#utility.yul\":2563:2642   */\n      tag_240\n      tag_179\n      jump\t// in\n    tag_240:\n        /* \"#utility.yul\":2525:2644   */\n    tag_239:\n        /* \"#utility.yul\":2683:2684   */\n      0x00\n        /* \"#utility.yul\":2708:2761   */\n      tag_241\n        /* \"#utility.yul\":2753:2760   */\n      dup6\n        /* \"#utility.yul\":2744:2750   */\n      dup3\n        /* \"#utility.yul\":2733:2742   */\n      dup7\n        /* \"#utility.yul\":2729:2751   */\n      add\n        /* \"#utility.yul\":2708:2761   */\n      tag_184\n      jump\t// in\n    tag_241:\n        /* \"#utility.yul\":2698:2761   */\n      swap3\n      pop\n        /* \"#utility.yul\":2654:2771   */\n      pop\n        /* \"#utility.yul\":2810:2812   */\n      0x20\n        /* \"#utility.yul\":2836:2889   */\n      tag_242\n        /* \"#utility.yul\":2881:2888   */\n      dup6\n        /* \"#utility.yul\":2872:2878   */\n      dup3\n        /* \"#utility.yul\":2861:2870   */\n      dup7\n        /* \"#utility.yul\":2857:2879   */\n      add\n        /* \"#utility.yul\":2836:2889   */\n      tag_187\n      jump\t// in\n    tag_242:\n        /* \"#utility.yul\":2826:2889   */\n      swap2\n      pop\n        /* \"#utility.yul\":2781:2899   */\n      pop\n        /* \"#utility.yul\":2432:2906   */\n      swap3\n      pop\n      swap3\n      swap1\n      pop\n      jump\t// out\n        /* \"#utility.yul\":2912:3002   */\n    tag_188:\n        /* \"#utility.yul\":2946:2953   */\n      0x00\n        /* \"#utility.yul\":2989:2994   */\n      dup2\n        /* \"#utility.yul\":2982:2995   */\n      iszero\n        /* \"#utility.yul\":2975:2996   */\n      iszero\n        /* \"#utility.yul\":2964:2996   */\n      swap1\n      pop\n        /* \"#utility.yul\":2912:3002   */\n      swap2\n      swap1\n      pop\n      jump\t// out\n        /* \"#utility.yul\":3008:3117   */\n    tag_189:\n        /* \"#utility.yul\":3089:3110   */\n      tag_245\n        /* \"#utility.yul\":3104:3109   */\n      dup2\n        /* \"#utility.yul\":3089:3110   */\n      tag_188\n      jump\t// in\n    tag_245:\n        /* \"#utility.yul\":3084:3087   */\n      dup3\n        /* \"#utility.yul\":3077:3111   */\n      mstore\n        /* \"#utility.yul\":3008:3117   */\n      pop\n      pop\n      jump\t// out\n        /* \"#utility.yul\":3123:3333   */\n    tag_26:\n        /* \"#utility.yul\":3210:3214   */\n      0x00\n        /* \"#utility.yul\":3248:3250   */\n      0x20\n        /* \"#utility.yul\":3237:3246   */\n      dup3\n        /* \"#utility.yul\":3233:3251   */\n      add\n        /* \"#utility.yul\":3225:3251   */\n      swap1\n      pop\n        /* \"#utility.yul\":3261:3326   */\n      tag_247\n        /* \"#utility.yul\":3323:3324   */\n      0x00\n        /* \"#utility.yul\":3312:3321   */\n      dup4\n        /* \"#utility.yul\":3308:3325   */\n      add\n        /* \"#utility.yul\":3299:3305   */\n      dup5\n        /* \"#utility.yul\":3261:3326   */\n      tag_189\n      jump\t// in\n    tag_247:\n        /* \"#utility.yul\":3123:3333   */\n      swap3\n      swap2\n      pop\n      pop\n      jump\t// out\n        /* \"#utility.yul\":3339:3457   */\n    tag_190:\n        /* \"#utility.yul\":3426:3450   */\n      tag_249\n        /* \"#utility.yul\":3444:3449   */\n      dup2\n        /* \"#utility.yul\":3426:3450   */\n      tag_185\n      jump\t// in\n    tag_249:\n        /* \"#utility.yul\":3421:3424   */\n      dup3\n        /* \"#utility.yul\":3414:3451   */\n      mstore\n        /* \"#utility.yul\":3339:3457   */\n      pop\n      pop\n      jump\t// out\n        /* \"#utility.yul\":3463:3685   */\n    tag_31:\n        /* \"#utility.yul\":3556:3560   */\n      0x00\n        /* \"#utility.yul\":3594:3596   */\n      0x20\n        /* \"#utility.yul\":3583:3592   */\n      dup3\n        /* \"#utility.yul\":3579:3597   */\n      add\n        /* \"#utility.yul\":3571:3597   */\n      swap1\n      pop\n        /* \"#utility.yul\":3607:3678   */\n      tag_251\n        /* \"#utility.yul\":3675:3676   */\n      0x00\n        /* \"#utility.yul\":3664:3673   */\n      dup4\n        /* \"#utility.yul\":3660:3677   */\n      add\n        /* \"#utility.yul\":3651:3657   */\n      dup5\n        /* \"#utility.yul\":3607:3678   */\n      tag_190\n      jump\t// in\n    tag_251:\n        /* \"#utility.yul\":3463:3685   */\n      swap3\n      swap2\n      pop\n      pop\n      jump\t// out\n        /* \"#utility.yul\":3691:4310   */\n    tag_35:\n        /* \"#utility.yul\":3768:3774   */\n      0x00\n        /* \"#utility.yul\":3776:3782   */\n      0x00\n        /* \"#utility.yul\":3784:3790   */\n      0x00\n        /* \"#utility.yul\":3833:3835   */\n      0x60\n        /* \"#utility.yul\":3821:3830   */\n      dup5\n        /* \"#utility.yul\":3812:3819   */\n      dup7\n        /* \"#utility.yul\":3808:3831   */\n      sub\n        /* \"#utility.yul\":3804:3836   */\n      slt\n        /* \"#utility.yul\":3801:3920   */\n      iszero\n      tag_253\n      jumpi\n        /* \"#utility.yul\":3839:3918   */\n      tag_254\n      tag_179\n      jump\t// in\n    tag_254:\n        /* \"#utility.yul\":3801:3920   */\n    tag_253:\n        /* \"#utility.yul\":3959:3960   */\n      0x00\n        /* \"#utility.yul\":3984:4037   */\n      tag_255\n        /* \"#utility.yul\":4029:4036   */\n      dup7\n        /* \"#utility.yul\":4020:4026   */\n      dup3\n        /* \"#utility.yul\":4009:4018   */\n      dup8\n        /* \"#utility.yul\":4005:4027   */\n      add\n        /* \"#utility.yul\":3984:4037   */\n      tag_184\n      jump\t// in\n    tag_255:\n        /* \"#utility.yul\":3974:4037   */\n      swap4\n      pop\n        /* \"#utility.yul\":3930:4047   */\n      pop\n        /* \"#utility.yul\":4086:4088   */\n      0x20\n        /* \"#utility.yul\":4112:4165   */\n      tag_256\n        /* \"#utility.yul\":4157:4164   */\n      dup7\n        /* \"#utility.yul\":4148:4154   */\n      dup3\n        /* \"#utility.yul\":4137:4146   */\n      dup8\n        /* \"#utility.yul\":4133:4155   */\n      add\n        /* \"#utility.yul\":4112:4165   */\n      tag_184\n      jump\t// in\n    tag_256:\n        /* \"#utility.yul\":4102:4165   */\n      swap3\n      pop\n        /* \"#utility.yul\":4057:4175   */\n      pop\n        /* \"#utility.yul\":4214:4216   */\n      0x40\n        /* \"#utility.yul\":4240:4293   */\n      tag_257\n        /* \"#utility.yul\":4285:4292   */\n      dup7\n        /* \"#utility.yul\":4276:4282   */\n      dup3\n        /* \"#utility.yul\":4265:4274   */\n      dup8\n        /* \"#utility.yul\":4261:4283   */\n      add\n        /* \"#utility.yul\":4240:4293   */\n      tag_187\n      jump\t// in\n    tag_257:\n        /* \"#utility.yul\":4230:4293   */\n      swap2\n      pop\n        /* \"#utility.yul\":4185:4303   */\n      pop\n        /* \"#utility.yul\":3691:4310   */\n      swap3\n      pop\n      swap3\n      pop\n      swap3\n      jump\t// out\n        /* \"#utility.yul\":4316:4402   */\n    tag_191:\n        /* \"#utility.yul\":4351:4358   */\n      0x00\n        /* \"#utility.yul\":4391:4395   */\n      0xff\n        /* \"#utility.yul\":4384:4389   */\n      dup3\n        /* \"#utility.yul\":4380:4396   */\n      and\n        /* \"#utility.yul\":4369:4396   */\n      swap1\n      pop\n        /* \"#utility.yul\":4316:4402   */\n      swap2\n      swap1\n      pop\n      jump\t// out\n        /* \"#utility.yul\":4408:4520   */\n    tag_192:\n        /* \"#utility.yul\":4491:4513   */\n      tag_260\n        /* \"#utility.yul\":4507:4512   */\n      dup2\n        /* \"#utility.yul\":4491:4513   */\n      tag_191\n      jump\t// in\n    tag_260:\n        /* \"#utility.yul\":4486:4489   */\n      dup3\n        /* \"#utility.yul\":4479:4514   */\n      mstore\n        /* \"#utility.yul\":4408:4520   */\n      pop\n      pop\n      jump\t// out\n        /* \"#utility.yul\":4526:4740   */\n    tag_42:\n        /* \"#utility.yul\":4615:4619   */\n      0x00\n        /* \"#utility.yul\":4653:4655   */\n      0x20\n        /* \"#utility.yul\":4642:4651   */\n      dup3\n        /* \"#utility.yul\":4638:4656   */\n      add\n        /* \"#utility.yul\":4630:4656   */\n      swap1\n      pop\n        /* \"#utility.yul\":4666:4733   */\n      tag_262\n        /* \"#utility.yul\":4730:4731   */\n      0x00\n        /* \"#utility.yul\":4719:4728   */\n      dup4\n        /* \"#utility.yul\":4715:4732   */\n      add\n        /* \"#utility.yul\":4706:4712   */\n      dup5\n        /* \"#utility.yul\":4666:4733   */\n      tag_192\n      jump\t// in\n    tag_262:\n        /* \"#utility.yul\":4526:4740   */\n      swap3\n      swap2\n      pop\n      pop\n      jump\t// out\n        /* \"#utility.yul\":4746:5075   */\n    tag_46:\n        /* \"#utility.yul\":4805:4811   */\n      0x00\n        /* \"#utility.yul\":4854:4856   */\n      0x20\n        /* \"#utility.yul\":4842:4851   */\n      dup3\n        /* \"#utility.yul\":4833:4840   */\n      dup5\n        /* \"#utility.yul\":4829:4852   */\n      sub\n        /* \"#utility.yul\":4825:4857   */\n      slt\n        /* \"#utility.yul\":4822:4941   */\n      iszero\n      tag_264\n      jumpi\n        /* \"#utility.yul\":4860:4939   */\n      tag_265\n      tag_179\n      jump\t// in\n    tag_265:\n        /* \"#utility.yul\":4822:4941   */\n    tag_264:\n        /* \"#utility.yul\":4980:4981   */\n      0x00\n        /* \"#utility.yul\":5005:5058   */\n      tag_266\n        /* \"#utility.yul\":5050:5057   */\n      dup5\n        /* \"#utility.yul\":5041:5047   */\n      dup3\n        /* \"#utility.yul\":5030:5039   */\n      dup6\n        /* \"#utility.yul\":5026:5048   */\n      add\n        /* \"#utility.yul\":5005:5058   */\n      tag_184\n      jump\t// in\n    tag_266:\n        /* \"#utility.yul\":4995:5058   */\n      swap2\n      pop\n        /* \"#utility.yul\":4951:5068   */\n      pop\n        /* \"#utility.yul\":4746:5075   */\n      swap3\n      swap2\n      pop\n      pop\n      jump\t// out\n        /* \"#utility.yul\":5081:5157   */\n    tag_193:\n        /* \"#utility.yul\":5117:5124   */\n      0x00\n        /* \"#utility.yul\":5146:5151   */\n      dup2\n        /* \"#utility.yul\":5135:5151   */\n      swap1\n      pop\n        /* \"#utility.yul\":5081:5157   */\n      swap2\n      swap1\n      pop\n      jump\t// out\n        /* \"#utility.yul\":5163:5278   */\n    tag_194:\n        /* \"#utility.yul\":5248:5271   */\n      tag_269\n        /* \"#utility.yul\":5265:5270   */\n      dup2\n        /* \"#utility.yul\":5248:5271   */\n      tag_193\n      jump\t// in\n    tag_269:\n        /* \"#utility.yul\":5243:5246   */\n      dup3\n        /* \"#utility.yul\":5236:5272   */\n      mstore\n        /* \"#utility.yul\":5163:5278   */\n      pop\n      pop\n      jump\t// out\n        /* \"#utility.yul\":5284:5502   */\n    tag_53:\n        /* \"#utility.yul\":5375:5379   */\n      0x00\n        /* \"#utility.yul\":5413:5415   */\n      0x20\n        /* \"#utility.yul\":5402:5411   */\n      dup3\n        /* \"#utility.yul\":5398:5416   */\n      add\n        /* \"#utility.yul\":5390:5416   */\n      swap1\n      pop\n        /* \"#utility.yul\":5426:5495   */\n      tag_271\n        /* \"#utility.yul\":5492:5493   */\n      0x00\n        /* \"#utility.yul\":5481:5490   */\n      dup4\n        /* \"#utility.yul\":5477:5494   */\n      add\n        /* \"#utility.yul\":5468:5474   */\n      dup5\n        /* \"#utility.yul\":5426:5495   */\n      tag_194\n      jump\t// in\n    tag_271:\n        /* \"#utility.yul\":5284:5502   */\n      swap3\n      swap2\n      pop\n      pop\n      jump\t// out\n        /* \"#utility.yul\":5508:5626   */\n    tag_195:\n        /* \"#utility.yul\":5595:5619   */\n      tag_273\n        /* \"#utility.yul\":5613:5618   */\n      dup2\n        /* \"#utility.yul\":5595:5619   */\n      tag_182\n      jump\t// in\n    tag_273:\n        /* \"#utility.yul\":5590:5593   */\n      dup3\n        /* \"#utility.yul\":5583:5620   */\n      mstore\n        /* \"#utility.yul\":5508:5626   */\n      pop\n      pop\n      jump\t// out\n        /* \"#utility.yul\":5632:5854   */\n    tag_58:\n        /* \"#utility.yul\":5725:5729   */\n      0x00\n        /* \"#utility.yul\":5763:5765   */\n      0x20\n        /* \"#utility.yul\":5752:5761   */\n      dup3\n        /* \"#utility.yul\":5748:5766   */\n      add\n        /* \"#utility.yul\":5740:5766   */\n      swap1\n      pop\n        /* \"#utility.yul\":5776:5847   */\n      tag_275\n        /* \"#utility.yul\":5844:5845   */\n      0x00\n        /* \"#utility.yul\":5833:5842   */\n      dup4\n        /* \"#utility.yul\":5829:5846   */\n      add\n        /* \"#utility.yul\":5820:5826   */\n      dup5\n        /* \"#utility.yul\":5776:5847   */\n      tag_195\n      jump\t// in\n    tag_275:\n        /* \"#utility.yul\":5632:5854   */\n      swap3\n      swap2\n      pop\n      pop\n      jump\t// out\n        /* \"#utility.yul\":5860:6334   */\n    tag_73:\n        /* \"#utility.yul\":5928:5934   */\n      0x00\n        /* \"#utility.yul\":5936:5942   */\n      0x00\n        /* \"#utility.yul\":5985:5987   */\n      0x40\n        /* \"#utility.yul\":5973:5982   */\n      dup4\n        /* \"#utility.yul\":5964:5971   */\n      dup6\n        /* \"#utility.yul\":5960:5983   */\n      sub\n        /* \"#utility.yul\":5956:5988   */\n      slt\n        /* \"#utility.yul\":5953:6072   */\n      iszero\n      tag_277\n      jumpi\n        /* \"#utility.yul\":5991:6070   */\n      tag_278\n      tag_179\n      jump\t// in\n    tag_278:\n        /* \"#utility.yul\":5953:6072   */\n    tag_277:\n        /* \"#utility.yul\":6111:6112   */\n      0x00\n        /* \"#utility.yul\":6136:6189   */\n      tag_279\n        /* \"#utility.yul\":6181:6188   */\n      dup6\n        /* \"#utility.yul\":6172:6178   */\n      dup3\n        /* \"#utility.yul\":6161:6170   */\n      dup7\n        /* \"#utility.yul\":6157:6179   */\n      add\n        /* \"#utility.yul\":6136:6189   */\n      tag_184\n      jump\t// in\n    tag_279:\n        /* \"#utility.yul\":6126:6189   */\n      swap3\n      pop\n        /* \"#utility.yul\":6082:6199   */\n      pop\n        /* \"#utility.yul\":6238:6240   */\n      0x20\n        /* \"#utility.yul\":6264:6317   */\n      tag_280\n        /* \"#utility.yul\":6309:6316   */\n      dup6\n        /* \"#utility.yul\":6300:6306   */\n      dup3\n        /* \"#utility.yul\":6289:6298   */\n      dup7\n        /* \"#utility.yul\":6285:6307   */\n      add\n        /* \"#utility.yul\":6264:6317   */\n      tag_184\n      jump\t// in\n    tag_280:\n        /* \"#utility.yul\":6254:6317   */\n      swap2\n      pop\n        /* \"#utility.yul\":6209:6327   */\n      pop\n        /* \"#utility.yul\":5860:6334   */\n      swap3\n      pop\n      swap3\n      swap1\n      pop\n      jump\t// out\n        /* \"#utility.yul\":6340:6520   */\n    tag_196:\n        /* \"#utility.yul\":6388:6465   */\n      0x4e487b7100000000000000000000000000000000000000000000000000000000\n        /* \"#utility.yul\":6385:6386   */\n      0x00\n        /* \"#utility.yul\":6378:6466   */\n      mstore\n        /* \"#utility.yul\":6485:6489   */\n      0x22\n        /* \"#utility.yul\":6482:6483   */\n      0x04\n        /* \"#utility.yul\":6475:6490   */\n      mstore\n        /* \"#utility.yul\":6509:6513   */\n      0x24\n        /* \"#utility.yul\":6506:6507   */\n      0x00\n        /* \"#utility.yul\":6499:6514   */\n      revert\n        /* \"#utility.yul\":6526:6846   */\n    tag_78:\n        /* \"#utility.yul\":6570:6576   */\n      0x00\n        /* \"#utility.yul\":6607:6608   */\n      0x02\n        /* \"#utility.yul\":6601:6605   */\n      dup3\n        /* \"#utility.yul\":6597:6609   */\n      div\n        /* \"#utility.yul\":6587:6609   */\n      swap1\n      pop\n        /* \"#utility.yul\":6654:6655   */\n      0x01\n        /* \"#utility.yul\":6648:6652   */\n      dup3\n        /* \"#utility.yul\":6644:6656   */\n      and\n        /* \"#utility.yul\":6675:6693   */\n      dup1\n        /* \"#utility.yul\":6665:6746   */\n      tag_283\n      jumpi\n        /* \"#utility.yul\":6731:6735   */\n      0x7f\n        /* \"#utility.yul\":6723:6729   */\n      dup3\n        /* \"#utility.yul\":6719:6736   */\n      and\n        /* \"#utility.yul\":6709:6736   */\n      swap2\n      pop\n        /* \"#utility.yul\":6665:6746   */\n    tag_283:\n        /* \"#utility.yul\":6793:6795   */\n      0x20\n        /* \"#utility.yul\":6785:6791   */\n      dup3\n        /* \"#utility.yul\":6782:6796   */\n      lt\n        /* \"#utility.yul\":6762:6780   */\n      dup2\n        /* \"#utility.yul\":6759:6797   */\n      sub\n        /* \"#utility.yul\":6756:6840   */\n      tag_284\n      jumpi\n        /* \"#utility.yul\":6812:6830   */\n      tag_285\n      tag_196\n      jump\t// in\n    tag_285:\n        /* \"#utility.yul\":6756:6840   */\n    tag_284:\n        /* \"#utility.yul\":6577:6846   */\n      pop\n        /* \"#utility.yul\":6526:6846   */\n      swap2\n      swap1\n      pop\n      jump\t// out\n        /* \"#utility.yul\":6852:6957   */\n    tag_197:\n        /* \"#utility.yul\":6888:6895   */\n      0x00\n        /* \"#utility.yul\":6928:6950   */\n      0xffffffffffffffffffff\n        /* \"#utility.yul\":6921:6926   */\n      dup3\n        /* \"#utility.yul\":6917:6951   */\n      and\n        /* \"#utility.yul\":6906:6951   */\n      swap1\n      pop\n        /* \"#utility.yul\":6852:6957   */\n      swap2\n      swap1\n      pop\n      jump\t// out\n        /* \"#utility.yul\":6963:7083   */\n    tag_198:\n        /* \"#utility.yul\":7035:7058   */\n      tag_288\n        /* \"#utility.yul\":7052:7057   */\n      dup2\n        /* \"#utility.yul\":7035:7058   */\n      tag_197\n      jump\t// in\n    tag_288:\n        /* \"#utility.yul\":7028:7033   */\n      dup2\n        /* \"#utility.yul\":7025:7059   */\n      eq\n        /* \"#utility.yul\":7015:7077   */\n      tag_289\n      jumpi\n        /* \"#utility.yul\":7073:7074   */\n      0x00\n        /* \"#utility.yul\":7070:7071   */\n      0x00\n        /* \"#utility.yul\":7063:7075   */\n      revert\n        /* \"#utility.yul\":7015:7077   */\n    tag_289:\n        /* \"#utility.yul\":6963:7083   */\n      pop\n      jump\t// out\n        /* \"#utility.yul\":7089:7230   */\n    tag_199:\n        /* \"#utility.yul\":7145:7150   */\n      0x00\n        /* \"#utility.yul\":7176:7182   */\n      dup2\n        /* \"#utility.yul\":7170:7183   */\n      mload\n        /* \"#utility.yul\":7161:7183   */\n      swap1\n      pop\n        /* \"#utility.yul\":7192:7224   */\n      tag_291\n        /* \"#utility.yul\":7218:7223   */\n      dup2\n        /* \"#utility.yul\":7192:7224   */\n      tag_198\n      jump\t// in\n    tag_291:\n        /* \"#utility.yul\":7089:7230   */\n      swap3\n      swap2\n      pop\n      pop\n      jump\t// out\n        /* \"#utility.yul\":7236:7356   */\n    tag_200:\n        /* \"#utility.yul\":7308:7331   */\n      tag_293\n        /* \"#utility.yul\":7325:7330   */\n      dup2\n        /* \"#utility.yul\":7308:7331   */\n      tag_193\n      jump\t// in\n    tag_293:\n        /* \"#utility.yul\":7301:7306   */\n      dup2\n        /* \"#utility.yul\":7298:7332   */\n      eq\n        /* \"#utility.yul\":7288:7350   */\n      tag_294\n      jumpi\n        /* \"#utility.yul\":7346:7347   */\n      0x00\n        /* \"#utility.yul\":7343:7344   */\n      0x00\n        /* \"#utility.yul\":7336:7348   */\n      revert\n        /* \"#utility.yul\":7288:7350   */\n    tag_294:\n        /* \"#utility.yul\":7236:7356   */\n      pop\n      jump\t// out\n        /* \"#utility.yul\":7362:7503   */\n    tag_201:\n        /* \"#utility.yul\":7418:7423   */\n      0x00\n        /* \"#utility.yul\":7449:7455   */\n      dup2\n        /* \"#utility.yul\":7443:7456   */\n      mload\n        /* \"#utility.yul\":7434:7456   */\n      swap1\n      pop\n        /* \"#utility.yul\":7465:7497   */\n      tag_296\n        /* \"#utility.yul\":7491:7496   */\n      dup2\n        /* \"#utility.yul\":7465:7497   */\n      tag_200\n      jump\t// in\n    tag_296:\n        /* \"#utility.yul\":7362:7503   */\n      swap3\n      swap2\n      pop\n      pop\n      jump\t// out\n        /* \"#utility.yul\":7509:7652   */\n    tag_202:\n        /* \"#utility.yul\":7566:7571   */\n      0x00\n        /* \"#utility.yul\":7597:7603   */\n      dup2\n        /* \"#utility.yul\":7591:7604   */\n      mload\n        /* \"#utility.yul\":7582:7604   */\n      swap1\n      pop\n        /* \"#utility.yul\":7613:7646   */\n      tag_298\n        /* \"#utility.yul\":7640:7645   */\n      dup2\n        /* \"#utility.yul\":7613:7646   */\n      tag_186\n      jump\t// in\n    tag_298:\n        /* \"#utility.yul\":7509:7652   */\n      swap3\n      swap2\n      pop\n      pop\n      jump\t// out\n        /* \"#utility.yul\":7658:8629   */\n    tag_101:\n        /* \"#utility.yul\":7761:7767   */\n      0x00\n        /* \"#utility.yul\":7769:7775   */\n      0x00\n        /* \"#utility.yul\":7777:7783   */\n      0x00\n        /* \"#utility.yul\":7785:7791   */\n      0x00\n        /* \"#utility.yul\":7793:7799   */\n      0x00\n        /* \"#utility.yul\":7842:7845   */\n      0xa0\n        /* \"#utility.yul\":7830:7839   */\n      dup7\n        /* \"#utility.yul\":7821:7828   */\n      dup9\n        /* \"#utility.yul\":7817:7840   */\n      sub\n        /* \"#utility.yul\":7813:7846   */\n      slt\n        /* \"#utility.yul\":7810:7930   */\n      iszero\n      tag_300\n      jumpi\n        /* \"#utility.yul\":7849:7928   */\n      tag_301\n      tag_179\n      jump\t// in\n    tag_301:\n        /* \"#utility.yul\":7810:7930   */\n    tag_300:\n        /* \"#utility.yul\":7969:7970   */\n      0x00\n        /* \"#utility.yul\":7994:8057   */\n      tag_302\n        /* \"#utility.yul\":8049:8056   */\n      dup9\n        /* \"#utility.yul\":8040:8046   */\n      dup3\n        /* \"#utility.yul\":8029:8038   */\n      dup10\n        /* \"#utility.yul\":8025:8047   */\n      add\n        /* \"#utility.yul\":7994:8057   */\n      tag_199\n      jump\t// in\n    tag_302:\n        /* \"#utility.yul\":7984:8057   */\n      swap6\n      pop\n        /* \"#utility.yul\":7940:8067   */\n      pop\n        /* \"#utility.yul\":8106:8108   */\n      0x20\n        /* \"#utility.yul\":8132:8195   */\n      tag_303\n        /* \"#utility.yul\":8187:8194   */\n      dup9\n        /* \"#utility.yul\":8178:8184   */\n      dup3\n        /* \"#utility.yul\":8167:8176   */\n      dup10\n        /* \"#utility.yul\":8163:8185   */\n      add\n        /* \"#utility.yul\":8132:8195   */\n      tag_201\n      jump\t// in\n    tag_303:\n        /* \"#utility.yul\":8122:8195   */\n      swap5\n      pop\n        /* \"#utility.yul\":8077:8205   */\n      pop\n        /* \"#utility.yul\":8244:8246   */\n      0x40\n        /* \"#utility.yul\":8270:8334   */\n      tag_304\n        /* \"#utility.yul\":8326:8333   */\n      dup9\n        /* \"#utility.yul\":8317:8323   */\n      dup3\n        /* \"#utility.yul\":8306:8315   */\n      dup10\n        /* \"#utility.yul\":8302:8324   */\n      add\n        /* \"#utility.yul\":8270:8334   */\n      tag_202\n      jump\t// in\n    tag_304:\n        /* \"#utility.yul\":8260:8334   */\n      swap4\n      pop\n        /* \"#utility.yul\":8215:8344   */\n      pop\n        /* \"#utility.yul\":8383:8385   */\n      0x60\n        /* \"#utility.yul\":8409:8473   */\n      tag_305\n        /* \"#utility.yul\":8465:8472   */\n      dup9\n        /* \"#utility.yul\":8456:8462   */\n      dup3\n        /* \"#utility.yul\":8445:8454   */\n      dup10\n        /* \"#utility.yul\":8441:8463   */\n      add\n        /* \"#utility.yul\":8409:8473   */\n      tag_202\n      jump\t// in\n    tag_305:\n        /* \"#utility.yul\":8399:8473   */\n      swap3\n      pop\n        /* \"#utility.yul\":8354:8483   */\n      pop\n        /* \"#utility.yul\":8522:8525   */\n      0x80\n        /* \"#utility.yul\":8549:8612   */\n      tag_306\n        /* \"#utility.yul\":8604:8611   */\n      dup9\n        /* \"#utility.yul\":8595:8601   */\n      dup3\n        /* \"#utility.yul\":8584:8593   */\n      dup10\n        /* \"#utility.yul\":8580:8602   */\n      add\n        /* \"#utility.yul\":8549:8612   */\n      tag_199\n      jump\t// in\n    tag_306:\n        /* \"#utility.yul\":8539:8612   */\n      swap2\n      pop\n        /* \"#utility.yul\":8493:8622   */\n      pop\n        /* \"#utility.yul\":7658:8629   */\n      swap3\n      swap6\n      pop\n      swap3\n      swap6\n      swap1\n      swap4\n      pop\n      jump\t// out\n        /* \"#utility.yul\":8635:8813   */\n    tag_203:\n        /* \"#utility.yul\":8775:8805   */\n      0x4d7573742073656e642045544820746f206d696e7420746f6b656e7300000000\n        /* \"#utility.yul\":8771:8772   */\n      0x00\n        /* \"#utility.yul\":8763:8769   */\n      dup3\n        /* \"#utility.yul\":8759:8773   */\n      add\n        /* \"#utility.yul\":8752:8806   */\n      mstore\n        /* \"#utility.yul\":8635:8813   */\n      pop\n      jump\t// out\n        /* \"#utility.yul\":8819:9185   */\n    tag_204:\n        /* \"#utility.yul\":8961:8964   */\n      0x00\n        /* \"#utility.yul\":8982:9049   */\n      tag_309\n        /* \"#utility.yul\":9046:9048   */\n      0x1c\n        /* \"#utility.yul\":9041:9044   */\n      dup4\n        /* \"#utility.yul\":8982:9049   */\n      tag_174\n      jump\t// in\n    tag_309:\n        /* \"#utility.yul\":8975:9049   */\n      swap2\n      pop\n        /* \"#utility.yul\":9058:9151   */\n      tag_310\n        /* \"#utility.yul\":9147:9150   */\n      dup3\n        /* \"#utility.yul\":9058:9151   */\n      tag_203\n      jump\t// in\n    tag_310:\n        /* \"#utility.yul\":9176:9178   */\n      0x20\n        /* \"#utility.yul\":9171:9174   */\n      dup3\n        /* \"#utility.yul\":9167:9179   */\n      add\n        /* \"#utility.yul\":9160:9179   */\n      swap1\n      pop\n        /* \"#utility.yul\":8819:9185   */\n      swap2\n      swap1\n      pop\n      jump\t// out\n        /* \"#utility.yul\":9191:9610   */\n    tag_114:\n        /* \"#utility.yul\":9357:9361   */\n      0x00\n        /* \"#utility.yul\":9395:9397   */\n      0x20\n        /* \"#utility.yul\":9384:9393   */\n      dup3\n        /* \"#utility.yul\":9380:9398   */\n      add\n        /* \"#utility.yul\":9372:9398   */\n      swap1\n      pop\n        /* \"#utility.yul\":9444:9453   */\n      dup2\n        /* \"#utility.yul\":9438:9442   */\n      dup2\n        /* \"#utility.yul\":9434:9454   */\n      sub\n        /* \"#utility.yul\":9430:9431   */\n      0x00\n        /* \"#utility.yul\":9419:9428   */\n      dup4\n        /* \"#utility.yul\":9415:9432   */\n      add\n        /* \"#utility.yul\":9408:9455   */\n      mstore\n        /* \"#utility.yul\":9472:9603   */\n      tag_312\n        /* \"#utility.yul\":9598:9602   */\n      dup2\n        /* \"#utility.yul\":9472:9603   */\n      tag_204\n      jump\t// in\n    tag_312:\n        /* \"#utility.yul\":9464:9603   */\n      swap1\n      pop\n        /* \"#utility.yul\":9191:9610   */\n      swap2\n      swap1\n      pop\n      jump\t// out\n        /* \"#utility.yul\":9616:9786   */\n    tag_205:\n        /* \"#utility.yul\":9756:9778   */\n      0x496e76616c6964206f7261636c65207072696365000000000000000000000000\n        /* \"#utility.yul\":9752:9753   */\n      0x00\n        /* \"#utility.yul\":9744:9750   */\n      dup3\n        /* \"#utility.yul\":9740:9754   */\n      add\n        /* \"#utility.yul\":9733:9779   */\n      mstore\n        /* \"#utility.yul\":9616:9786   */\n      pop\n      jump\t// out\n        /* \"#utility.yul\":9792:10158   */\n    tag_206:\n        /* \"#utility.yul\":9934:9937   */\n      0x00\n        /* \"#utility.yul\":9955:10022   */\n      tag_315\n        /* \"#utility.yul\":10019:10021   */\n      0x14\n        /* \"#utility.yul\":10014:10017   */\n      dup4\n        /* \"#utility.yul\":9955:10022   */\n      tag_174\n      jump\t// in\n    tag_315:\n        /* \"#utility.yul\":9948:10022   */\n      swap2\n      pop\n        /* \"#utility.yul\":10031:10124   */\n      tag_316\n        /* \"#utility.yul\":10120:10123   */\n      dup3\n        /* \"#utility.yul\":10031:10124   */\n      tag_205\n      jump\t// in\n    tag_316:\n        /* \"#utility.yul\":10149:10151   */\n      0x20\n        /* \"#utility.yul\":10144:10147   */\n      dup3\n        /* \"#utility.yul\":10140:10152   */\n      add\n        /* \"#utility.yul\":10133:10152   */\n      swap1\n      pop\n        /* \"#utility.yul\":9792:10158   */\n      swap2\n      swap1\n      pop\n      jump\t// out\n        /* \"#utility.yul\":10164:10583   */\n    tag_124:\n        /* \"#utility.yul\":10330:10334   */\n      0x00\n        /* \"#utility.yul\":10368:10370   */\n      0x20\n        /* \"#utility.yul\":10357:10366   */\n      dup3\n        /* \"#utility.yul\":10353:10371   */\n      add\n        /* \"#utility.yul\":10345:10371   */\n      swap1\n      pop\n        /* \"#utility.yul\":10417:10426   */\n      dup2\n        /* \"#utility.yul\":10411:10415   */\n      dup2\n        /* \"#utility.yul\":10407:10427   */\n      sub\n        /* \"#utility.yul\":10403:10404   */\n      0x00\n        /* \"#utility.yul\":10392:10401   */\n      dup4\n        /* \"#utility.yul\":10388:10405   */\n      add\n        /* \"#utility.yul\":10381:10428   */\n      mstore\n        /* \"#utility.yul\":10445:10576   */\n      tag_318\n        /* \"#utility.yul\":10571:10575   */\n      dup2\n        /* \"#utility.yul\":10445:10576   */\n      tag_206\n      jump\t// in\n    tag_318:\n        /* \"#utility.yul\":10437:10576   */\n      swap1\n      pop\n        /* \"#utility.yul\":10164:10583   */\n      swap2\n      swap1\n      pop\n      jump\t// out\n        /* \"#utility.yul\":10589:10769   */\n    tag_207:\n        /* \"#utility.yul\":10637:10714   */\n      0x4e487b7100000000000000000000000000000000000000000000000000000000\n        /* \"#utility.yul\":10634:10635   */\n      0x00\n        /* \"#utility.yul\":10627:10715   */\n      mstore\n        /* \"#utility.yul\":10734:10738   */\n      0x11\n        /* \"#utility.yul\":10731:10732   */\n      0x04\n        /* \"#utility.yul\":10724:10739   */\n      mstore\n        /* \"#utility.yul\":10758:10762   */\n      0x24\n        /* \"#utility.yul\":10755:10756   */\n      0x00\n        /* \"#utility.yul\":10748:10763   */\n      revert\n        /* \"#utility.yul\":10775:11185   */\n    tag_126:\n        /* \"#utility.yul\":10815:10822   */\n      0x00\n        /* \"#utility.yul\":10838:10858   */\n      tag_321\n        /* \"#utility.yul\":10856:10857   */\n      dup3\n        /* \"#utility.yul\":10838:10858   */\n      tag_185\n      jump\t// in\n    tag_321:\n        /* \"#utility.yul\":10833:10858   */\n      swap2\n      pop\n        /* \"#utility.yul\":10872:10892   */\n      tag_322\n        /* \"#utility.yul\":10890:10891   */\n      dup4\n        /* \"#utility.yul\":10872:10892   */\n      tag_185\n      jump\t// in\n    tag_322:\n        /* \"#utility.yul\":10867:10892   */\n      swap3\n      pop\n        /* \"#utility.yul\":10927:10928   */\n      dup3\n        /* \"#utility.yul\":10924:10925   */\n      dup3\n        /* \"#utility.yul\":10920:10929   */\n      mul\n        /* \"#utility.yul\":10949:10979   */\n      tag_323\n        /* \"#utility.yul\":10967:10978   */\n      dup2\n        /* \"#utility.yul\":10949:10979   */\n      tag_185\n      jump\t// in\n    tag_323:\n        /* \"#utility.yul\":10938:10979   */\n      swap2\n      pop\n        /* \"#utility.yul\":11128:11129   */\n      dup3\n        /* \"#utility.yul\":11119:11126   */\n      dup3\n        /* \"#utility.yul\":11115:11130   */\n      div\n        /* \"#utility.yul\":11112:11113   */\n      dup5\n        /* \"#utility.yul\":11109:11131   */\n      eq\n        /* \"#utility.yul\":11089:11090   */\n      dup4\n        /* \"#utility.yul\":11082:11091   */\n      iszero\n        /* \"#utility.yul\":11062:11145   */\n      or\n        /* \"#utility.yul\":11039:11178   */\n      tag_324\n      jumpi\n        /* \"#utility.yul\":11158:11176   */\n      tag_325\n      tag_207\n      jump\t// in\n    tag_325:\n        /* \"#utility.yul\":11039:11178   */\n    tag_324:\n        /* \"#utility.yul\":10823:11185   */\n      pop\n        /* \"#utility.yul\":10775:11185   */\n      swap3\n      swap2\n      pop\n      pop\n      jump\t// out\n        /* \"#utility.yul\":11191:11371   */\n    tag_208:\n        /* \"#utility.yul\":11239:11316   */\n      0x4e487b7100000000000000000000000000000000000000000000000000000000\n        /* \"#utility.yul\":11236:11237   */\n      0x00\n        /* \"#utility.yul\":11229:11317   */\n      mstore\n        /* \"#utility.yul\":11336:11340   */\n      0x12\n        /* \"#utility.yul\":11333:11334   */\n      0x04\n        /* \"#utility.yul\":11326:11341   */\n      mstore\n        /* \"#utility.yul\":11360:11364   */\n      0x24\n        /* \"#utility.yul\":11357:11358   */\n      0x00\n        /* \"#utility.yul\":11350:11365   */\n      revert\n        /* \"#utility.yul\":11377:11562   */\n    tag_128:\n        /* \"#utility.yul\":11417:11418   */\n      0x00\n        /* \"#utility.yul\":11434:11454   */\n      tag_328\n        /* \"#utility.yul\":11452:11453   */\n      dup3\n        /* \"#utility.yul\":11434:11454   */\n      tag_185\n      jump\t// in\n    tag_328:\n        /* \"#utility.yul\":11429:11454   */\n      swap2\n      pop\n        /* \"#utility.yul\":11468:11488   */\n      tag_329\n        /* \"#utility.yul\":11486:11487   */\n      dup4\n        /* \"#utility.yul\":11468:11488   */\n      tag_185\n      jump\t// in\n    tag_329:\n        /* \"#utility.yul\":11463:11488   */\n      swap3\n      pop\n        /* \"#utility.yul\":11507:11508   */\n      dup3\n        /* \"#utility.yul\":11497:11532   */\n      tag_330\n      jumpi\n        /* \"#utility.yul\":11512:11530   */\n      tag_331\n      tag_208\n      jump\t// in\n    tag_331:\n        /* \"#utility.yul\":11497:11532   */\n    tag_330:\n        /* \"#utility.yul\":11554:11555   */\n      dup3\n        /* \"#utility.yul\":11551:11552   */\n      dup3\n        /* \"#utility.yul\":11547:11556   */\n      div\n        /* \"#utility.yul\":11542:11556   */\n      swap1\n      pop\n        /* \"#utility.yul\":11377:11562   */\n      swap3\n      swap2\n      pop\n      pop\n      jump\t// out\n        /* \"#utility.yul\":11568:12010   */\n    tag_143:\n        /* \"#utility.yul\":11717:11721   */\n      0x00\n        /* \"#utility.yul\":11755:11757   */\n      0x60\n        /* \"#utility.yul\":11744:11753   */\n      dup3\n        /* \"#utility.yul\":11740:11758   */\n      add\n        /* \"#utility.yul\":11732:11758   */\n      swap1\n      pop\n        /* \"#utility.yul\":11768:11839   */\n      tag_333\n        /* \"#utility.yul\":11836:11837   */\n      0x00\n        /* \"#utility.yul\":11825:11834   */\n      dup4\n        /* \"#utility.yul\":11821:11838   */\n      add\n        /* \"#utility.yul\":11812:11818   */\n      dup7\n        /* \"#utility.yul\":11768:11839   */\n      tag_195\n      jump\t// in\n    tag_333:\n        /* \"#utility.yul\":11849:11921   */\n      tag_334\n        /* \"#utility.yul\":11917:11919   */\n      0x20\n        /* \"#utility.yul\":11906:11915   */\n      dup4\n        /* \"#utility.yul\":11902:11920   */\n      add\n        /* \"#utility.yul\":11893:11899   */\n      dup6\n        /* \"#utility.yul\":11849:11921   */\n      tag_190\n      jump\t// in\n    tag_334:\n        /* \"#utility.yul\":11931:12003   */\n      tag_335\n        /* \"#utility.yul\":11999:12001   */\n      0x40\n        /* \"#utility.yul\":11988:11997   */\n      dup4\n        /* \"#utility.yul\":11984:12002   */\n      add\n        /* \"#utility.yul\":11975:11981   */\n      dup5\n        /* \"#utility.yul\":11931:12003   */\n      tag_190\n      jump\t// in\n    tag_335:\n        /* \"#utility.yul\":11568:12010   */\n      swap5\n      swap4\n      pop\n      pop\n      pop\n      pop\n      jump\t// out\n        /* \"#utility.yul\":12016:12207   */\n    tag_166:\n        /* \"#utility.yul\":12056:12059   */\n      0x00\n        /* \"#utility.yul\":12075:12095   */\n      tag_337\n        /* \"#utility.yul\":12093:12094   */\n      dup3\n        /* \"#utility.yul\":12075:12095   */\n      tag_185\n      jump\t// in\n    tag_337:\n        /* \"#utility.yul\":12070:12095   */\n      swap2\n      pop\n        /* \"#utility.yul\":12109:12129   */\n      tag_338\n        /* \"#utility.yul\":12127:12128   */\n      dup4\n        /* \"#utility.yul\":12109:12129   */\n      tag_185\n      jump\t// in\n    tag_338:\n        /* \"#utility.yul\":12104:12129   */\n      swap3\n      pop\n        /* \"#utility.yul\":12152:12153   */\n      dup3\n        /* \"#utility.yul\":12149:12150   */\n      dup3\n        /* \"#utility.yul\":12145:12154   */\n      add\n        /* \"#utility.yul\":12138:12154   */\n      swap1\n      pop\n        /* \"#utility.yul\":12173:12176   */\n      dup1\n        /* \"#utility.yul\":12170:12171   */\n      dup3\n        /* \"#utility.yul\":12167:12177   */\n      gt\n        /* \"#utility.yul\":12164:12200   */\n      iszero\n      tag_339\n      jumpi\n        /* \"#utility.yul\":12180:12198   */\n      tag_340\n      tag_207\n      jump\t// in\n    tag_340:\n        /* \"#utility.yul\":12164:12200   */\n    tag_339:\n        /* \"#utility.yul\":12016:12207   */\n      swap3\n      swap2\n      pop\n      pop\n      jump\t// out\n\n    auxdata: 0xa2646970667358221220fe2a6c45c2d86b721fab0b0039a3d3f6e4b3d885ee939a4a6c4dacada0669b7264736f6c634300081e0033\n}\n",
				"bytecode": {
					"linkReferences": {},
					"object": "608060405234801561000f575f5ffd5b506040518060400160405280601181526020017f53796e74686574696320426974636f696e0000000000000000000000000000008152506040518060400160405280600481526020017f7342544300000000000000000000000000000000000000000000000000000000815250816003908161008b91906103c8565b50806004908161009b91906103c8565b5050503360075f6101000a81548173ffffffffffffffffffffffffffffffffffffffff021916908373ffffffffffffffffffffffffffffffffffffffff16021790555073694aa1769357215de4fac081bf1f309adc32530660055f6101000a81548173ffffffffffffffffffffffffffffffffffffffff021916908373ffffffffffffffffffffffffffffffffffffffff160217905550731b44f3514812d835eb1bdb0acb33d3fa3351ee4360065f6101000a81548173ffffffffffffffffffffffffffffffffffffffff021916908373ffffffffffffffffffffffffffffffffffffffff160217905550610497565b5f81519050919050565b7f4e487b71000000000000000000000000000000000000000000000000000000005f52604160045260245ffd5b7f4e487b71000000000000000000000000000000000000000000000000000000005f52602260045260245ffd5b5f600282049050600182168061020657607f821691505b602082108103610219576102186101c2565b5b50919050565b5f819050815f5260205f209050919050565b5f6020601f8301049050919050565b5f82821b905092915050565b5f6008830261027b7fffffffffffffffffffffffffffffffffffffffffffffffffffffffffffffffff82610240565b6102858683610240565b95508019841693508086168417925050509392505050565b5f819050919050565b5f819050919050565b5f6102c96102c46102bf8461029d565b6102a6565b61029d565b9050919050565b5f819050919050565b6102e2836102af565b6102f66102ee826102d0565b84845461024c565b825550505050565b5f5f905090565b61030d6102fe565b6103188184846102d9565b505050565b5b8181101561033b576103305f82610305565b60018101905061031e565b5050565b601f821115610380576103518161021f565b61035a84610231565b81016020851015610369578190505b61037d61037585610231565b83018261031d565b50505b505050565b5f82821c905092915050565b5f6103a05f1984600802610385565b1980831691505092915050565b5f6103b88383610391565b9150826002028217905092915050565b6103d18261018b565b67ffffffffffffffff8111156103ea576103e9610195565b5b6103f482546101ef565b6103ff82828561033f565b5f60209050601f831160018114610430575f841561041e578287015190505b61042885826103ad565b86555061048f565b601f19841661043e8661021f565b5f5b8281101561046557848901518255600182019150602085019450602081019050610440565b86831015610482578489015161047e601f891682610391565b8355505b6001600288020188555050505b505050505050565b6114a9806104a45f395ff3fe6080604052600436106100a6575f3560e01c80637b9629db116100635780637b9629db146101dc5780638da5cb5b1461020657806395d89b4114610230578063a9059cbb1461025a578063bc4d279714610296578063dd62ed3e146102a0576100a6565b806306fdde03146100aa578063095ea7b3146100d457806318160ddd1461011057806323b872dd1461013a578063313ce5671461017657806370a08231146101a0575b5f5ffd5b3480156100b5575f5ffd5b506100be6102dc565b6040516100cb9190610e8f565b60405180910390f35b3480156100df575f5ffd5b506100fa60048036038101906100f59190610f40565b61036c565b6040516101079190610f98565b60405180910390f35b34801561011b575f5ffd5b5061012461038e565b6040516101319190610fc0565b60405180910390f35b348015610145575f5ffd5b50610160600480360381019061015b9190610fd9565b610397565b60405161016d9190610f98565b60405180910390f35b348015610181575f5ffd5b5061018a6103c5565b6040516101979190611044565b60405180910390f35b3480156101ab575f5ffd5b506101c660048036038101906101c1919061105d565b6103cd565b6040516101d39190610fc0565b60405180910390f35b3480156101e7575f5ffd5b506101f0610412565b6040516101fd91906110a0565b60405180910390f35b348015610211575f5ffd5b5061021a6104af565b60405161022791906110c8565b60405180910390f35b34801561023b575f5ffd5b506102446104d4565b6040516102519190610e8f565b60405180910390f35b348015610265575f5ffd5b50610280600480360381019061027b9190610f40565b610564565b60405161028d9190610f98565b60405180910390f35b61029e610586565b005b3480156102ab575f5ffd5b506102c660048036038101906102c191906110e1565b61079a565b6040516102d39190610fc0565b60405180910390f35b6060600380546102eb9061114c565b80601f01602080910402602001604051908101604052809291908181526020018280546103179061114c565b80156103625780601f1061033957610100808354040283529160200191610362565b820191905f5260205f20905b81548152906001019060200180831161034557829003601f168201915b5050505050905090565b5f5f61037661081c565b9050610383818585610823565b600191505092915050565b5f600254905090565b5f5f6103a161081c565b90506103ae858285610835565b6103b98585856108c8565b60019150509392505050565b5f6012905090565b5f5f5f8373ffffffffffffffffffffffffffffffffffffffff1673ffffffffffffffffffffffffffffffffffffffff1681526020019081526020015f20549050919050565b5f5f60065f9054906101000a900473ffffffffffffffffffffffffffffffffffffffff1673ffffffffffffffffffffffffffffffffffffffff1663feaf968c6040518163ffffffff1660e01b815260040160a060405180830381865afa15801561047e573d5f5f3e3d5ffd5b505050506040513d601f19601f820116820180604052508101906104a291906111f9565b5050509150508091505090565b60075f9054906101000a900473ffffffffffffffffffffffffffffffffffffffff1681565b6060600480546104e39061114c565b80601f016020809104026020016040519081016040528092919081815260200182805461050f9061114c565b801561055a5780601f106105315761010080835404028352916020019161055a565b820191905f5260205f20905b81548152906001019060200180831161053d57829003601f168201915b5050505050905090565b5f5f61056e61081c565b905061057b8185856108c8565b600191505092915050565b5f34116105c8576040517f08c379a00000000000000000000000000000000000000000000000000000000081526004016105bf906112ba565b60405180910390fd5b5f60055f9054906101000a900473ffffffffffffffffffffffffffffffffffffffff1673ffffffffffffffffffffffffffffffffffffffff1663feaf968c6040518163ffffffff1660e01b815260040160a060405180830381865afa158015610633573d5f5f3e3d5ffd5b505050506040513d601f19601f8201168201806040525081019061065791906111f9565b5050509150505f60065f9054906101000a900473ffffffffffffffffffffffffffffffffffffffff1673ffffffffffffffffffffffffffffffffffffffff1663feaf968c6040518163ffffffff1660e01b815260040160a060405180830381865afa1580156106c8573d5f5f3e3d5ffd5b505050506040513d601f19601f820116820180604052508101906106ec91906111f9565b5050509150505f8213801561070057505f81135b61073f576040517f08c379a000000000000000000000000000000000000000000000000000000000815260040161073690611322565b60405180910390fd5b5f8290505f8290505f670de0b6b3a7640000833461075d919061136d565b61076791906113db565b90505f826402540be4008361077c919061136d565b61078691906113db565b905061079233826109b8565b505050505050565b5f60015f8473ffffffffffffffffffffffffffffffffffffffff1673ffffffffffffffffffffffffffffffffffffffff1681526020019081526020015f205f8373ffffffffffffffffffffffffffffffffffffffff1673ffffffffffffffffffffffffffffffffffffffff1681526020019081526020015f2054905092915050565b5f33905090565b6108308383836001610a37565b505050565b5f610840848461079a565b90507fffffffffffffffffffffffffffffffffffffffffffffffffffffffffffffffff8110156108c257818110156108b3578281836040517ffb8f41b20000000000000000000000000000000000000000000000000000000081526004016108aa9392919061140b565b60405180910390fd5b6108c184848484035f610a37565b5b50505050565b5f73ffffffffffffffffffffffffffffffffffffffff168373ffffffffffffffffffffffffffffffffffffffff1603610938575f6040517f96c6fd1e00000000000000000000000000000000000000000000000000000000815260040161092f91906110c8565b60405180910390fd5b5f73ffffffffffffffffffffffffffffffffffffffff168273ffffffffffffffffffffffffffffffffffffffff16036109a8575f6040517fec442f0500000000000000000000000000000000000000000000000000000000815260040161099f91906110c8565b60405180910390fd5b6109b3838383610c06565b505050565b5f73ffffffffffffffffffffffffffffffffffffffff168273ffffffffffffffffffffffffffffffffffffffff1603610a28575f6040517fec442f05000000000000000000000000000000000000000000000000000000008152600401610a1f91906110c8565b60405180910390fd5b610a335f8383610c06565b5050565b5f73ffffffffffffffffffffffffffffffffffffffff168473ffffffffffffffffffffffffffffffffffffffff1603610aa7575f6040517fe602df05000000000000000000000000000000000000000000000000000000008152600401610a9e91906110c8565b60405180910390fd5b5f73ffffffffffffffffffffffffffffffffffffffff168373ffffffffffffffffffffffffffffffffffffffff1603610b17575f6040517f94280d62000000000000000000000000000000000000000000000000000000008152600401610b0e91906110c8565b60405180910390fd5b8160015f8673ffffffffffffffffffffffffffffffffffffffff1673ffffffffffffffffffffffffffffffffffffffff1681526020019081526020015f205f8573ffffffffffffffffffffffffffffffffffffffff1673ffffffffffffffffffffffffffffffffffffffff1681526020019081526020015f20819055508015610c00578273ffffffffffffffffffffffffffffffffffffffff168473ffffffffffffffffffffffffffffffffffffffff167f8c5be1e5ebec7d5bd14f71427d1e84f3dd0314c0f7b2291e5b200ac8c7c3b92584604051610bf79190610fc0565b60405180910390a35b50505050565b5f73ffffffffffffffffffffffffffffffffffffffff168373ffffffffffffffffffffffffffffffffffffffff1603610c56578060025f828254610c4a9190611440565b92505081905550610d24565b5f5f5f8573ffffffffffffffffffffffffffffffffffffffff1673ffffffffffffffffffffffffffffffffffffffff1681526020019081526020015f2054905081811015610cdf578381836040517fe450d38c000000000000000000000000000000000000000000000000000000008152600401610cd69392919061140b565b60405180910390fd5b8181035f5f8673ffffffffffffffffffffffffffffffffffffffff1673ffffffffffffffffffffffffffffffffffffffff1681526020019081526020015f2081905550505b5f73ffffffffffffffffffffffffffffffffffffffff168273ffffffffffffffffffffffffffffffffffffffff1603610d6b578060025f8282540392505081905550610db5565b805f5f8473ffffffffffffffffffffffffffffffffffffffff1673ffffffffffffffffffffffffffffffffffffffff1681526020019081526020015f205f82825401925050819055505b8173ffffffffffffffffffffffffffffffffffffffff168373ffffffffffffffffffffffffffffffffffffffff167fddf252ad1be2c89b69c2b068fc378daa952ba7f163c4a11628f55a4df523b3ef83604051610e129190610fc0565b60405180910390a3505050565b5f81519050919050565b5f82825260208201905092915050565b8281835e5f83830152505050565b5f601f19601f8301169050919050565b5f610e6182610e1f565b610e6b8185610e29565b9350610e7b818560208601610e39565b610e8481610e47565b840191505092915050565b5f6020820190508181035f830152610ea78184610e57565b905092915050565b5f5ffd5b5f73ffffffffffffffffffffffffffffffffffffffff82169050919050565b5f610edc82610eb3565b9050919050565b610eec81610ed2565b8114610ef6575f5ffd5b50565b5f81359050610f0781610ee3565b92915050565b5f819050919050565b610f1f81610f0d565b8114610f29575f5ffd5b50565b5f81359050610f3a81610f16565b92915050565b5f5f60408385031215610f5657610f55610eaf565b5b5f610f6385828601610ef9565b9250506020610f7485828601610f2c565b9150509250929050565b5f8115159050919050565b610f9281610f7e565b82525050565b5f602082019050610fab5f830184610f89565b92915050565b610fba81610f0d565b82525050565b5f602082019050610fd35f830184610fb1565b92915050565b5f5f5f60608486031215610ff057610fef610eaf565b5b5f610ffd86828701610ef9565b935050602061100e86828701610ef9565b925050604061101f86828701610f2c565b9150509250925092565b5f60ff82169050919050565b61103e81611029565b82525050565b5f6020820190506110575f830184611035565b92915050565b5f6020828403121561107257611071610eaf565b5b5f61107f84828501610ef9565b91505092915050565b5f819050919050565b61109a81611088565b82525050565b5f6020820190506110b35f830184611091565b92915050565b6110c281610ed2565b82525050565b5f6020820190506110db5f8301846110b9565b92915050565b5f5f604083850312156110f7576110f6610eaf565b5b5f61110485828601610ef9565b925050602061111585828601610ef9565b9150509250929050565b7f4e487b71000000000000000000000000000000000000000000000000000000005f52602260045260245ffd5b5f600282049050600182168061116357607f821691505b6020821081036111765761117561111f565b5b50919050565b5f69ffffffffffffffffffff82169050919050565b61119a8161117c565b81146111a4575f5ffd5b50565b5f815190506111b581611191565b92915050565b6111c481611088565b81146111ce575f5ffd5b50565b5f815190506111df816111bb565b92915050565b5f815190506111f381610f16565b92915050565b5f5f5f5f5f60a0868803121561121257611211610eaf565b5b5f61121f888289016111a7565b9550506020611230888289016111d1565b9450506040611241888289016111e5565b9350506060611252888289016111e5565b9250506080611263888289016111a7565b9150509295509295909350565b7f4d7573742073656e642045544820746f206d696e7420746f6b656e73000000005f82015250565b5f6112a4601c83610e29565b91506112af82611270565b602082019050919050565b5f6020820190508181035f8301526112d181611298565b9050919050565b7f496e76616c6964206f7261636c652070726963650000000000000000000000005f82015250565b5f61130c601483610e29565b9150611317826112d8565b602082019050919050565b5f6020820190508181035f83015261133981611300565b9050919050565b7f4e487b71000000000000000000000000000000000000000000000000000000005f52601160045260245ffd5b5f61137782610f0d565b915061138283610f0d565b925082820261139081610f0d565b915082820484148315176113a7576113a6611340565b5b5092915050565b7f4e487b71000000000000000000000000000000000000000000000000000000005f52601260045260245ffd5b5f6113e582610f0d565b91506113f083610f0d565b925082611400576113ff6113ae565b5b828204905092915050565b5f60608201905061141e5f8301866110b9565b61142b6020830185610fb1565b6114386040830184610fb1565b949350505050565b5f61144a82610f0d565b915061145583610f0d565b925082820190508082111561146d5761146c611340565b5b9291505056fea2646970667358221220fe2a6c45c2d86b721fab0b0039a3d3f6e4b3d885ee939a4a6c4dacada0669b7264736f6c634300081e0033",
					"opcodes": "PUSH1 0x80 PUSH1 0x40 MSTORE CALLVALUE DUP1 ISZERO PUSH2 0xF JUMPI PUSH0 PUSH0 REVERT JUMPDEST POP PUSH1 0x40 MLOAD DUP1 PUSH1 0x40 ADD PUSH1 0x40 MSTORE DUP1 PUSH1 0x11 DUP2 MSTORE PUSH1 0x20 ADD PUSH32 0x53796E74686574696320426974636F696E000000000000000000000000000000 DUP2 MSTORE POP PUSH1 0x40 MLOAD DUP1 PUSH1 0x40 ADD PUSH1 0x40 MSTORE DUP1 PUSH1 0x4 DUP2 MSTORE PUSH1 0x20 ADD PUSH32 0x7342544300000000000000000000000000000000000000000000000000000000 DUP2 MSTORE POP DUP2 PUSH1 0x3 SWAP1 DUP2 PUSH2 0x8B SWAP2 SWAP1 PUSH2 0x3C8 JUMP JUMPDEST POP DUP1 PUSH1 0x4 SWAP1 DUP2 PUSH2 0x9B SWAP2 SWAP1 PUSH2 0x3C8 JUMP JUMPDEST POP POP POP CALLER PUSH1 0x7 PUSH0 PUSH2 0x100 EXP DUP2 SLOAD DUP2 PUSH20 0xFFFFFFFFFFFFFFFFFFFFFFFFFFFFFFFFFFFFFFFF MUL NOT AND SWAP1 DUP4 PUSH20 0xFFFFFFFFFFFFFFFFFFFFFFFFFFFFFFFFFFFFFFFF AND MUL OR SWAP1 SSTORE POP PUSH20 0x694AA1769357215DE4FAC081BF1F309ADC325306 PUSH1 0x5 PUSH0 PUSH2 0x100 EXP DUP2 SLOAD DUP2 PUSH20 0xFFFFFFFFFFFFFFFFFFFFFFFFFFFFFFFFFFFFFFFF MUL NOT AND SWAP1 DUP4 PUSH20 0xFFFFFFFFFFFFFFFFFFFFFFFFFFFFFFFFFFFFFFFF AND MUL OR SWAP1 SSTORE POP PUSH20 0x1B44F3514812D835EB1BDB0ACB33D3FA3351EE43 PUSH1 0x6 PUSH0 PUSH2 0x100 EXP DUP2 SLOAD DUP2 PUSH20 0xFFFFFFFFFFFFFFFFFFFFFFFFFFFFFFFFFFFFFFFF MUL NOT AND SWAP1 DUP4 PUSH20 0xFFFFFFFFFFFFFFFFFFFFFFFFFFFFFFFFFFFFFFFF AND MUL OR SWAP1 SSTORE POP PUSH2 0x497 JUMP JUMPDEST PUSH0 DUP2 MLOAD SWAP1 POP SWAP2 SWAP1 POP JUMP JUMPDEST PUSH32 0x4E487B7100000000000000000000000000000000000000000000000000000000 PUSH0 MSTORE PUSH1 0x41 PUSH1 0x4 MSTORE PUSH1 0x24 PUSH0 REVERT JUMPDEST PUSH32 0x4E487B7100000000000000000000000000000000000000000000000000000000 PUSH0 MSTORE PUSH1 0x22 PUSH1 0x4 MSTORE PUSH1 0x24 PUSH0 REVERT JUMPDEST PUSH0 PUSH1 0x2 DUP3 DIV SWAP1 POP PUSH1 0x1 DUP3 AND DUP1 PUSH2 0x206 JUMPI PUSH1 0x7F DUP3 AND SWAP2 POP JUMPDEST PUSH1 0x20 DUP3 LT DUP2 SUB PUSH2 0x219 JUMPI PUSH2 0x218 PUSH2 0x1C2 JUMP JUMPDEST JUMPDEST POP SWAP2 SWAP1 POP JUMP JUMPDEST PUSH0 DUP2 SWAP1 POP DUP2 PUSH0 MSTORE PUSH1 0x20 PUSH0 KECCAK256 SWAP1 POP SWAP2 SWAP1 POP JUMP JUMPDEST PUSH0 PUSH1 0x20 PUSH1 0x1F DUP4 ADD DIV SWAP1 POP SWAP2 SWAP1 POP JUMP JUMPDEST PUSH0 DUP3 DUP3 SHL SWAP1 POP SWAP3 SWAP2 POP POP JUMP JUMPDEST PUSH0 PUSH1 0x8 DUP4 MUL PUSH2 0x27B PUSH32 0xFFFFFFFFFFFFFFFFFFFFFFFFFFFFFFFFFFFFFFFFFFFFFFFFFFFFFFFFFFFFFFFF DUP3 PUSH2 0x240 JUMP JUMPDEST PUSH2 0x285 DUP7 DUP4 PUSH2 0x240 JUMP JUMPDEST SWAP6 POP DUP1 NOT DUP5 AND SWAP4 POP DUP1 DUP7 AND DUP5 OR SWAP3 POP POP POP SWAP4 SWAP3 POP POP POP JUMP JUMPDEST PUSH0 DUP2 SWAP1 POP SWAP2 SWAP1 POP JUMP JUMPDEST PUSH0 DUP2 SWAP1 POP SWAP2 SWAP1 POP JUMP JUMPDEST PUSH0 PUSH2 0x2C9 PUSH2 0x2C4 PUSH2 0x2BF DUP5 PUSH2 0x29D JUMP JUMPDEST PUSH2 0x2A6 JUMP JUMPDEST PUSH2 0x29D JUMP JUMPDEST SWAP1 POP SWAP2 SWAP1 POP JUMP JUMPDEST PUSH0 DUP2 SWAP1 POP SWAP2 SWAP1 POP JUMP JUMPDEST PUSH2 0x2E2 DUP4 PUSH2 0x2AF JUMP JUMPDEST PUSH2 0x2F6 PUSH2 0x2EE DUP3 PUSH2 0x2D0 JUMP JUMPDEST DUP5 DUP5 SLOAD PUSH2 0x24C JUMP JUMPDEST DUP3 SSTORE POP POP POP POP JUMP JUMPDEST PUSH0 PUSH0 SWAP1 POP SWAP1 JUMP JUMPDEST PUSH2 0x30D PUSH2 0x2FE JUMP JUMPDEST PUSH2 0x318 DUP2 DUP5 DUP5 PUSH2 0x2D9 JUMP JUMPDEST POP POP POP JUMP JUMPDEST JUMPDEST DUP2 DUP2 LT ISZERO PUSH2 0x33B JUMPI PUSH2 0x330 PUSH0 DUP3 PUSH2 0x305 JUMP JUMPDEST PUSH1 0x1 DUP2 ADD SWAP1 POP PUSH2 0x31E JUMP JUMPDEST POP POP JUMP JUMPDEST PUSH1 0x1F DUP3 GT ISZERO PUSH2 0x380 JUMPI PUSH2 0x351 DUP2 PUSH2 0x21F JUMP JUMPDEST PUSH2 0x35A DUP5 PUSH2 0x231 JUMP JUMPDEST DUP2 ADD PUSH1 0x20 DUP6 LT ISZERO PUSH2 0x369 JUMPI DUP2 SWAP1 POP JUMPDEST PUSH2 0x37D PUSH2 0x375 DUP6 PUSH2 0x231 JUMP JUMPDEST DUP4 ADD DUP3 PUSH2 0x31D JUMP JUMPDEST POP POP JUMPDEST POP POP POP JUMP JUMPDEST PUSH0 DUP3 DUP3 SHR SWAP1 POP SWAP3 SWAP2 POP POP JUMP JUMPDEST PUSH0 PUSH2 0x3A0 PUSH0 NOT DUP5 PUSH1 0x8 MUL PUSH2 0x385 JUMP JUMPDEST NOT DUP1 DUP4 AND SWAP2 POP POP SWAP3 SWAP2 POP POP JUMP JUMPDEST PUSH0 PUSH2 0x3B8 DUP4 DUP4 PUSH2 0x391 JUMP JUMPDEST SWAP2 POP DUP3 PUSH1 0x2 MUL DUP3 OR SWAP1 POP SWAP3 SWAP2 POP POP JUMP JUMPDEST PUSH2 0x3D1 DUP3 PUSH2 0x18B JUMP JUMPDEST PUSH8 0xFFFFFFFFFFFFFFFF DUP2 GT ISZERO PUSH2 0x3EA JUMPI PUSH2 0x3E9 PUSH2 0x195 JUMP JUMPDEST JUMPDEST PUSH2 0x3F4 DUP3 SLOAD PUSH2 0x1EF JUMP JUMPDEST PUSH2 0x3FF DUP3 DUP3 DUP6 PUSH2 0x33F JUMP JUMPDEST PUSH0 PUSH1 0x20 SWAP1 POP PUSH1 0x1F DUP4 GT PUSH1 0x1 DUP2 EQ PUSH2 0x430 JUMPI PUSH0 DUP5 ISZERO PUSH2 0x41E JUMPI DUP3 DUP8 ADD MLOAD SWAP1 POP JUMPDEST PUSH2 0x428 DUP6 DUP3 PUSH2 0x3AD JUMP JUMPDEST DUP7 SSTORE POP PUSH2 0x48F JUMP JUMPDEST PUSH1 0x1F NOT DUP5 AND PUSH2 0x43E DUP7 PUSH2 0x21F JUMP JUMPDEST PUSH0 JUMPDEST DUP3 DUP2 LT ISZERO PUSH2 0x465 JUMPI DUP5 DUP10 ADD MLOAD DUP3 SSTORE PUSH1 0x1 DUP3 ADD SWAP2 POP PUSH1 0x20 DUP6 ADD SWAP5 POP PUSH1 0x20 DUP2 ADD SWAP1 POP PUSH2 0x440 JUMP JUMPDEST DUP7 DUP4 LT ISZERO PUSH2 0x482 JUMPI DUP5 DUP10 ADD MLOAD PUSH2 0x47E PUSH1 0x1F DUP10 AND DUP3 PUSH2 0x391 JUMP JUMPDEST DUP4 SSTORE POP JUMPDEST PUSH1 0x1 PUSH1 0x2 DUP9 MUL ADD DUP9 SSTORE POP POP POP JUMPDEST POP POP POP POP POP POP JUMP JUMPDEST PUSH2 0x14A9 DUP1 PUSH2 0x4A4 PUSH0 CODECOPY PUSH0 RETURN INVALID PUSH1 0x80 PUSH1 0x40 MSTORE PUSH1 0x4 CALLDATASIZE LT PUSH2 0xA6 JUMPI PUSH0 CALLDATALOAD PUSH1 0xE0 SHR DUP1 PUSH4 0x7B9629DB GT PUSH2 0x63 JUMPI DUP1 PUSH4 0x7B9629DB EQ PUSH2 0x1DC JUMPI DUP1 PUSH4 0x8DA5CB5B EQ PUSH2 0x206 JUMPI DUP1 PUSH4 0x95D89B41 EQ PUSH2 0x230 JUMPI DUP1 PUSH4 0xA9059CBB EQ PUSH2 0x25A JUMPI DUP1 PUSH4 0xBC4D2797 EQ PUSH2 0x296 JUMPI DUP1 PUSH4 0xDD62ED3E EQ PUSH2 0x2A0 JUMPI PUSH2 0xA6 JUMP JUMPDEST DUP1 PUSH4 0x6FDDE03 EQ PUSH2 0xAA JUMPI DUP1 PUSH4 0x95EA7B3 EQ PUSH2 0xD4 JUMPI DUP1 PUSH4 0x18160DDD EQ PUSH2 0x110 JUMPI DUP1 PUSH4 0x23B872DD EQ PUSH2 0x13A JUMPI DUP1 PUSH4 0x313CE567 EQ PUSH2 0x176 JUMPI DUP1 PUSH4 0x70A08231 EQ PUSH2 0x1A0 JUMPI JUMPDEST PUSH0 PUSH0 REVERT JUMPDEST CALLVALUE DUP1 ISZERO PUSH2 0xB5 JUMPI PUSH0 PUSH0 REVERT JUMPDEST POP PUSH2 0xBE PUSH2 0x2DC JUMP JUMPDEST PUSH1 0x40 MLOAD PUSH2 0xCB SWAP2 SWAP1 PUSH2 0xE8F JUMP JUMPDEST PUSH1 0x40 MLOAD DUP1 SWAP2 SUB SWAP1 RETURN JUMPDEST CALLVALUE DUP1 ISZERO PUSH2 0xDF JUMPI PUSH0 PUSH0 REVERT JUMPDEST POP PUSH2 0xFA PUSH1 0x4 DUP1 CALLDATASIZE SUB DUP2 ADD SWAP1 PUSH2 0xF5 SWAP2 SWAP1 PUSH2 0xF40 JUMP JUMPDEST PUSH2 0x36C JUMP JUMPDEST PUSH1 0x40 MLOAD PUSH2 0x107 SWAP2 SWAP1 PUSH2 0xF98 JUMP JUMPDEST PUSH1 0x40 MLOAD DUP1 SWAP2 SUB SWAP1 RETURN JUMPDEST CALLVALUE DUP1 ISZERO PUSH2 0x11B JUMPI PUSH0 PUSH0 REVERT JUMPDEST POP PUSH2 0x124 PUSH2 0x38E JUMP JUMPDEST PUSH1 0x40 MLOAD PUSH2 0x131 SWAP2 SWAP1 PUSH2 0xFC0 JUMP JUMPDEST PUSH1 0x40 MLOAD DUP1 SWAP2 SUB SWAP1 RETURN JUMPDEST CALLVALUE DUP1 ISZERO PUSH2 0x145 JUMPI PUSH0 PUSH0 REVERT JUMPDEST POP PUSH2 0x160 PUSH1 0x4 DUP1 CALLDATASIZE SUB DUP2 ADD SWAP1 PUSH2 0x15B SWAP2 SWAP1 PUSH2 0xFD9 JUMP JUMPDEST PUSH2 0x397 JUMP JUMPDEST PUSH1 0x40 MLOAD PUSH2 0x16D SWAP2 SWAP1 PUSH2 0xF98 JUMP JUMPDEST PUSH1 0x40 MLOAD DUP1 SWAP2 SUB SWAP1 RETURN JUMPDEST CALLVALUE DUP1 ISZERO PUSH2 0x181 JUMPI PUSH0 PUSH0 REVERT JUMPDEST POP PUSH2 0x18A PUSH2 0x3C5 JUMP JUMPDEST PUSH1 0x40 MLOAD PUSH2 0x197 SWAP2 SWAP1 PUSH2 0x1044 JUMP JUMPDEST PUSH1 0x40 MLOAD DUP1 SWAP2 SUB SWAP1 RETURN JUMPDEST CALLVALUE DUP1 ISZERO PUSH2 0x1AB JUMPI PUSH0 PUSH0 REVERT JUMPDEST POP PUSH2 0x1C6 PUSH1 0x4 DUP1 CALLDATASIZE SUB DUP2 ADD SWAP1 PUSH2 0x1C1 SWAP2 SWAP1 PUSH2 0x105D JUMP JUMPDEST PUSH2 0x3CD JUMP JUMPDEST PUSH1 0x40 MLOAD PUSH2 0x1D3 SWAP2 SWAP1 PUSH2 0xFC0 JUMP JUMPDEST PUSH1 0x40 MLOAD DUP1 SWAP2 SUB SWAP1 RETURN JUMPDEST CALLVALUE DUP1 ISZERO PUSH2 0x1E7 JUMPI PUSH0 PUSH0 REVERT JUMPDEST POP PUSH2 0x1F0 PUSH2 0x412 JUMP JUMPDEST PUSH1 0x40 MLOAD PUSH2 0x1FD SWAP2 SWAP1 PUSH2 0x10A0 JUMP JUMPDEST PUSH1 0x40 MLOAD DUP1 SWAP2 SUB SWAP1 RETURN JUMPDEST CALLVALUE DUP1 ISZERO PUSH2 0x211 JUMPI PUSH0 PUSH0 REVERT JUMPDEST POP PUSH2 0x21A PUSH2 0x4AF JUMP JUMPDEST PUSH1 0x40 MLOAD PUSH2 0x227 SWAP2 SWAP1 PUSH2 0x10C8 JUMP JUMPDEST PUSH1 0x40 MLOAD DUP1 SWAP2 SUB SWAP1 RETURN JUMPDEST CALLVALUE DUP1 ISZERO PUSH2 0x23B JUMPI PUSH0 PUSH0 REVERT JUMPDEST POP PUSH2 0x244 PUSH2 0x4D4 JUMP JUMPDEST PUSH1 0x40 MLOAD PUSH2 0x251 SWAP2 SWAP1 PUSH2 0xE8F JUMP JUMPDEST PUSH1 0x40 MLOAD DUP1 SWAP2 SUB SWAP1 RETURN JUMPDEST CALLVALUE DUP1 ISZERO PUSH2 0x265 JUMPI PUSH0 PUSH0 REVERT JUMPDEST POP PUSH2 0x280 PUSH1 0x4 DUP1 CALLDATASIZE SUB DUP2 ADD SWAP1 PUSH2 0x27B SWAP2 SWAP1 PUSH2 0xF40 JUMP JUMPDEST PUSH2 0x564 JUMP JUMPDEST PUSH1 0x40 MLOAD PUSH2 0x28D SWAP2 SWAP1 PUSH2 0xF98 JUMP JUMPDEST PUSH1 0x40 MLOAD DUP1 SWAP2 SUB SWAP1 RETURN JUMPDEST PUSH2 0x29E PUSH2 0x586 JUMP JUMPDEST STOP JUMPDEST CALLVALUE DUP1 ISZERO PUSH2 0x2AB JUMPI PUSH0 PUSH0 REVERT JUMPDEST POP PUSH2 0x2C6 PUSH1 0x4 DUP1 CALLDATASIZE SUB DUP2 ADD SWAP1 PUSH2 0x2C1 SWAP2 SWAP1 PUSH2 0x10E1 JUMP JUMPDEST PUSH2 0x79A JUMP JUMPDEST PUSH1 0x40 MLOAD PUSH2 0x2D3 SWAP2 SWAP1 PUSH2 0xFC0 JUMP JUMPDEST PUSH1 0x40 MLOAD DUP1 SWAP2 SUB SWAP1 RETURN JUMPDEST PUSH1 0x60 PUSH1 0x3 DUP1 SLOAD PUSH2 0x2EB SWAP1 PUSH2 0x114C JUMP JUMPDEST DUP1 PUSH1 0x1F ADD PUSH1 0x20 DUP1 SWAP2 DIV MUL PUSH1 0x20 ADD PUSH1 0x40 MLOAD SWAP1 DUP2 ADD PUSH1 0x40 MSTORE DUP1 SWAP3 SWAP2 SWAP1 DUP2 DUP2 MSTORE PUSH1 0x20 ADD DUP3 DUP1 SLOAD PUSH2 0x317 SWAP1 PUSH2 0x114C JUMP JUMPDEST DUP1 ISZERO PUSH2 0x362 JUMPI DUP1 PUSH1 0x1F LT PUSH2 0x339 JUMPI PUSH2 0x100 DUP1 DUP4 SLOAD DIV MUL DUP4 MSTORE SWAP2 PUSH1 0x20 ADD SWAP2 PUSH2 0x362 JUMP JUMPDEST DUP3 ADD SWAP2 SWAP1 PUSH0 MSTORE PUSH1 0x20 PUSH0 KECCAK256 SWAP1 JUMPDEST DUP2 SLOAD DUP2 MSTORE SWAP1 PUSH1 0x1 ADD SWAP1 PUSH1 0x20 ADD DUP1 DUP4 GT PUSH2 0x345 JUMPI DUP3 SWAP1 SUB PUSH1 0x1F AND DUP3 ADD SWAP2 JUMPDEST POP POP POP POP POP SWAP1 POP SWAP1 JUMP JUMPDEST PUSH0 PUSH0 PUSH2 0x376 PUSH2 0x81C JUMP JUMPDEST SWAP1 POP PUSH2 0x383 DUP2 DUP6 DUP6 PUSH2 0x823 JUMP JUMPDEST PUSH1 0x1 SWAP2 POP POP SWAP3 SWAP2 POP POP JUMP JUMPDEST PUSH0 PUSH1 0x2 SLOAD SWAP1 POP SWAP1 JUMP JUMPDEST PUSH0 PUSH0 PUSH2 0x3A1 PUSH2 0x81C JUMP JUMPDEST SWAP1 POP PUSH2 0x3AE DUP6 DUP3 DUP6 PUSH2 0x835 JUMP JUMPDEST PUSH2 0x3B9 DUP6 DUP6 DUP6 PUSH2 0x8C8 JUMP JUMPDEST PUSH1 0x1 SWAP2 POP POP SWAP4 SWAP3 POP POP POP JUMP JUMPDEST PUSH0 PUSH1 0x12 SWAP1 POP SWAP1 JUMP JUMPDEST PUSH0 PUSH0 PUSH0 DUP4 PUSH20 0xFFFFFFFFFFFFFFFFFFFFFFFFFFFFFFFFFFFFFFFF AND PUSH20 0xFFFFFFFFFFFFFFFFFFFFFFFFFFFFFFFFFFFFFFFF AND DUP2 MSTORE PUSH1 0x20 ADD SWAP1 DUP2 MSTORE PUSH1 0x20 ADD PUSH0 KECCAK256 SLOAD SWAP1 POP SWAP2 SWAP1 POP JUMP JUMPDEST PUSH0 PUSH0 PUSH1 0x6 PUSH0 SWAP1 SLOAD SWAP1 PUSH2 0x100 EXP SWAP1 DIV PUSH20 0xFFFFFFFFFFFFFFFFFFFFFFFFFFFFFFFFFFFFFFFF AND PUSH20 0xFFFFFFFFFFFFFFFFFFFFFFFFFFFFFFFFFFFFFFFF AND PUSH4 0xFEAF968C PUSH1 0x40 MLOAD DUP2 PUSH4 0xFFFFFFFF AND PUSH1 0xE0 SHL DUP2 MSTORE PUSH1 0x4 ADD PUSH1 0xA0 PUSH1 0x40 MLOAD DUP1 DUP4 SUB DUP2 DUP7 GAS STATICCALL ISZERO DUP1 ISZERO PUSH2 0x47E JUMPI RETURNDATASIZE PUSH0 PUSH0 RETURNDATACOPY RETURNDATASIZE PUSH0 REVERT JUMPDEST POP POP POP POP PUSH1 0x40 MLOAD RETURNDATASIZE PUSH1 0x1F NOT PUSH1 0x1F DUP3 ADD AND DUP3 ADD DUP1 PUSH1 0x40 MSTORE POP DUP2 ADD SWAP1 PUSH2 0x4A2 SWAP2 SWAP1 PUSH2 0x11F9 JUMP JUMPDEST POP POP POP SWAP2 POP POP DUP1 SWAP2 POP POP SWAP1 JUMP JUMPDEST PUSH1 0x7 PUSH0 SWAP1 SLOAD SWAP1 PUSH2 0x100 EXP SWAP1 DIV PUSH20 0xFFFFFFFFFFFFFFFFFFFFFFFFFFFFFFFFFFFFFFFF AND DUP2 JUMP JUMPDEST PUSH1 0x60 PUSH1 0x4 DUP1 SLOAD PUSH2 0x4E3 SWAP1 PUSH2 0x114C JUMP JUMPDEST DUP1 PUSH1 0x1F ADD PUSH1 0x20 DUP1 SWAP2 DIV MUL PUSH1 0x20 ADD PUSH1 0x40 MLOAD SWAP1 DUP2 ADD PUSH1 0x40 MSTORE DUP1 SWAP3 SWAP2 SWAP1 DUP2 DUP2 MSTORE PUSH1 0x20 ADD DUP3 DUP1 SLOAD PUSH2 0x50F SWAP1 PUSH2 0x114C JUMP JUMPDEST DUP1 ISZERO PUSH2 0x55A JUMPI DUP1 PUSH1 0x1F LT PUSH2 0x531 JUMPI PUSH2 0x100 DUP1 DUP4 SLOAD DIV MUL DUP4 MSTORE SWAP2 PUSH1 0x20 ADD SWAP2 PUSH2 0x55A JUMP JUMPDEST DUP3 ADD SWAP2 SWAP1 PUSH0 MSTORE PUSH1 0x20 PUSH0 KECCAK256 SWAP1 JUMPDEST DUP2 SLOAD DUP2 MSTORE SWAP1 PUSH1 0x1 ADD SWAP1 PUSH1 0x20 ADD DUP1 DUP4 GT PUSH2 0x53D JUMPI DUP3 SWAP1 SUB PUSH1 0x1F AND DUP3 ADD SWAP2 JUMPDEST POP POP POP POP POP SWAP1 POP SWAP1 JUMP JUMPDEST PUSH0 PUSH0 PUSH2 0x56E PUSH2 0x81C JUMP JUMPDEST SWAP1 POP PUSH2 0x57B DUP2 DUP6 DUP6 PUSH2 0x8C8 JUMP JUMPDEST PUSH1 0x1 SWAP2 POP POP SWAP3 SWAP2 POP POP JUMP JUMPDEST PUSH0 CALLVALUE GT PUSH2 0x5C8 JUMPI PUSH1 0x40 MLOAD PUSH32 0x8C379A000000000000000000000000000000000000000000000000000000000 DUP2 MSTORE PUSH1 0x4 ADD PUSH2 0x5BF SWAP1 PUSH2 0x12BA JUMP JUMPDEST PUSH1 0x40 MLOAD DUP1 SWAP2 SUB SWAP1 REVERT JUMPDEST PUSH0 PUSH1 0x5 PUSH0 SWAP1 SLOAD SWAP1 PUSH2 0x100 EXP SWAP1 DIV PUSH20 0xFFFFFFFFFFFFFFFFFFFFFFFFFFFFFFFFFFFFFFFF AND PUSH20 0xFFFFFFFFFFFFFFFFFFFFFFFFFFFFFFFFFFFFFFFF AND PUSH4 0xFEAF968C PUSH1 0x40 MLOAD DUP2 PUSH4 0xFFFFFFFF AND PUSH1 0xE0 SHL DUP2 MSTORE PUSH1 0x4 ADD PUSH1 0xA0 PUSH1 0x40 MLOAD DUP1 DUP4 SUB DUP2 DUP7 GAS STATICCALL ISZERO DUP1 ISZERO PUSH2 0x633 JUMPI RETURNDATASIZE PUSH0 PUSH0 RETURNDATACOPY RETURNDATASIZE PUSH0 REVERT JUMPDEST POP POP POP POP PUSH1 0x40 MLOAD RETURNDATASIZE PUSH1 0x1F NOT PUSH1 0x1F DUP3 ADD AND DUP3 ADD DUP1 PUSH1 0x40 MSTORE POP DUP2 ADD SWAP1 PUSH2 0x657 SWAP2 SWAP1 PUSH2 0x11F9 JUMP JUMPDEST POP POP POP SWAP2 POP POP PUSH0 PUSH1 0x6 PUSH0 SWAP1 SLOAD SWAP1 PUSH2 0x100 EXP SWAP1 DIV PUSH20 0xFFFFFFFFFFFFFFFFFFFFFFFFFFFFFFFFFFFFFFFF AND PUSH20 0xFFFFFFFFFFFFFFFFFFFFFFFFFFFFFFFFFFFFFFFF AND PUSH4 0xFEAF968C PUSH1 0x40 MLOAD DUP2 PUSH4 0xFFFFFFFF AND PUSH1 0xE0 SHL DUP2 MSTORE PUSH1 0x4 ADD PUSH1 0xA0 PUSH1 0x40 MLOAD DUP1 DUP4 SUB DUP2 DUP7 GAS STATICCALL ISZERO DUP1 ISZERO PUSH2 0x6C8 JUMPI RETURNDATASIZE PUSH0 PUSH0 RETURNDATACOPY RETURNDATASIZE PUSH0 REVERT JUMPDEST POP POP POP POP PUSH1 0x40 MLOAD RETURNDATASIZE PUSH1 0x1F NOT PUSH1 0x1F DUP3 ADD AND DUP3 ADD DUP1 PUSH1 0x40 MSTORE POP DUP2 ADD SWAP1 PUSH2 0x6EC SWAP2 SWAP1 PUSH2 0x11F9 JUMP JUMPDEST POP POP POP SWAP2 POP POP PUSH0 DUP3 SGT DUP1 ISZERO PUSH2 0x700 JUMPI POP PUSH0 DUP2 SGT JUMPDEST PUSH2 0x73F JUMPI PUSH1 0x40 MLOAD PUSH32 0x8C379A000000000000000000000000000000000000000000000000000000000 DUP2 MSTORE PUSH1 0x4 ADD PUSH2 0x736 SWAP1 PUSH2 0x1322 JUMP JUMPDEST PUSH1 0x40 MLOAD DUP1 SWAP2 SUB SWAP1 REVERT JUMPDEST PUSH0 DUP3 SWAP1 POP PUSH0 DUP3 SWAP1 POP PUSH0 PUSH8 0xDE0B6B3A7640000 DUP4 CALLVALUE PUSH2 0x75D SWAP2 SWAP1 PUSH2 0x136D JUMP JUMPDEST PUSH2 0x767 SWAP2 SWAP1 PUSH2 0x13DB JUMP JUMPDEST SWAP1 POP PUSH0 DUP3 PUSH5 0x2540BE400 DUP4 PUSH2 0x77C SWAP2 SWAP1 PUSH2 0x136D JUMP JUMPDEST PUSH2 0x786 SWAP2 SWAP1 PUSH2 0x13DB JUMP JUMPDEST SWAP1 POP PUSH2 0x792 CALLER DUP3 PUSH2 0x9B8 JUMP JUMPDEST POP POP POP POP POP POP JUMP JUMPDEST PUSH0 PUSH1 0x1 PUSH0 DUP5 PUSH20 0xFFFFFFFFFFFFFFFFFFFFFFFFFFFFFFFFFFFFFFFF AND PUSH20 0xFFFFFFFFFFFFFFFFFFFFFFFFFFFFFFFFFFFFFFFF AND DUP2 MSTORE PUSH1 0x20 ADD SWAP1 DUP2 MSTORE PUSH1 0x20 ADD PUSH0 KECCAK256 PUSH0 DUP4 PUSH20 0xFFFFFFFFFFFFFFFFFFFFFFFFFFFFFFFFFFFFFFFF AND PUSH20 0xFFFFFFFFFFFFFFFFFFFFFFFFFFFFFFFFFFFFFFFF AND DUP2 MSTORE PUSH1 0x20 ADD SWAP1 DUP2 MSTORE PUSH1 0x20 ADD PUSH0 KECCAK256 SLOAD SWAP1 POP SWAP3 SWAP2 POP POP JUMP JUMPDEST PUSH0 CALLER SWAP1 POP SWAP1 JUMP JUMPDEST PUSH2 0x830 DUP4 DUP4 DUP4 PUSH1 0x1 PUSH2 0xA37 JUMP JUMPDEST POP POP POP JUMP JUMPDEST PUSH0 PUSH2 0x840 DUP5 DUP5 PUSH2 0x79A JUMP JUMPDEST SWAP1 POP PUSH32 0xFFFFFFFFFFFFFFFFFFFFFFFFFFFFFFFFFFFFFFFFFFFFFFFFFFFFFFFFFFFFFFFF DUP2 LT ISZERO PUSH2 0x8C2 JUMPI DUP2 DUP2 LT ISZERO PUSH2 0x8B3 JUMPI DUP3 DUP2 DUP4 PUSH1 0x40 MLOAD PUSH32 0xFB8F41B200000000000000000000000000000000000000000000000000000000 DUP2 MSTORE PUSH1 0x4 ADD PUSH2 0x8AA SWAP4 SWAP3 SWAP2 SWAP1 PUSH2 0x140B JUMP JUMPDEST PUSH1 0x40 MLOAD DUP1 SWAP2 SUB SWAP1 REVERT JUMPDEST PUSH2 0x8C1 DUP5 DUP5 DUP5 DUP5 SUB PUSH0 PUSH2 0xA37 JUMP JUMPDEST JUMPDEST POP POP POP POP JUMP JUMPDEST PUSH0 PUSH20 0xFFFFFFFFFFFFFFFFFFFFFFFFFFFFFFFFFFFFFFFF AND DUP4 PUSH20 0xFFFFFFFFFFFFFFFFFFFFFFFFFFFFFFFFFFFFFFFF AND SUB PUSH2 0x938 JUMPI PUSH0 PUSH1 0x40 MLOAD PUSH32 0x96C6FD1E00000000000000000000000000000000000000000000000000000000 DUP2 MSTORE PUSH1 0x4 ADD PUSH2 0x92F SWAP2 SWAP1 PUSH2 0x10C8 JUMP JUMPDEST PUSH1 0x40 MLOAD DUP1 SWAP2 SUB SWAP1 REVERT JUMPDEST PUSH0 PUSH20 0xFFFFFFFFFFFFFFFFFFFFFFFFFFFFFFFFFFFFFFFF AND DUP3 PUSH20 0xFFFFFFFFFFFFFFFFFFFFFFFFFFFFFFFFFFFFFFFF AND SUB PUSH2 0x9A8 JUMPI PUSH0 PUSH1 0x40 MLOAD PUSH32 0xEC442F0500000000000000000000000000000000000000000000000000000000 DUP2 MSTORE PUSH1 0x4 ADD PUSH2 0x99F SWAP2 SWAP1 PUSH2 0x10C8 JUMP JUMPDEST PUSH1 0x40 MLOAD DUP1 SWAP2 SUB SWAP1 REVERT JUMPDEST PUSH2 0x9B3 DUP4 DUP4 DUP4 PUSH2 0xC06 JUMP JUMPDEST POP POP POP JUMP JUMPDEST PUSH0 PUSH20 0xFFFFFFFFFFFFFFFFFFFFFFFFFFFFFFFFFFFFFFFF AND DUP3 PUSH20 0xFFFFFFFFFFFFFFFFFFFFFFFFFFFFFFFFFFFFFFFF AND SUB PUSH2 0xA28 JUMPI PUSH0 PUSH1 0x40 MLOAD PUSH32 0xEC442F0500000000000000000000000000000000000000000000000000000000 DUP2 MSTORE PUSH1 0x4 ADD PUSH2 0xA1F SWAP2 SWAP1 PUSH2 0x10C8 JUMP JUMPDEST PUSH1 0x40 MLOAD DUP1 SWAP2 SUB SWAP1 REVERT JUMPDEST PUSH2 0xA33 PUSH0 DUP4 DUP4 PUSH2 0xC06 JUMP JUMPDEST POP POP JUMP JUMPDEST PUSH0 PUSH20 0xFFFFFFFFFFFFFFFFFFFFFFFFFFFFFFFFFFFFFFFF AND DUP5 PUSH20 0xFFFFFFFFFFFFFFFFFFFFFFFFFFFFFFFFFFFFFFFF AND SUB PUSH2 0xAA7 JUMPI PUSH0 PUSH1 0x40 MLOAD PUSH32 0xE602DF0500000000000000000000000000000000000000000000000000000000 DUP2 MSTORE PUSH1 0x4 ADD PUSH2 0xA9E SWAP2 SWAP1 PUSH2 0x10C8 JUMP JUMPDEST PUSH1 0x40 MLOAD DUP1 SWAP2 SUB SWAP1 REVERT JUMPDEST PUSH0 PUSH20 0xFFFFFFFFFFFFFFFFFFFFFFFFFFFFFFFFFFFFFFFF AND DUP4 PUSH20 0xFFFFFFFFFFFFFFFFFFFFFFFFFFFFFFFFFFFFFFFF AND SUB PUSH2 0xB17 JUMPI PUSH0 PUSH1 0x40 MLOAD PUSH32 0x94280D6200000000000000000000000000000000000000000000000000000000 DUP2 MSTORE PUSH1 0x4 ADD PUSH2 0xB0E SWAP2 SWAP1 PUSH2 0x10C8 JUMP JUMPDEST PUSH1 0x40 MLOAD DUP1 SWAP2 SUB SWAP1 REVERT JUMPDEST DUP2 PUSH1 0x1 PUSH0 DUP7 PUSH20 0xFFFFFFFFFFFFFFFFFFFFFFFFFFFFFFFFFFFFFFFF AND PUSH20 0xFFFFFFFFFFFFFFFFFFFFFFFFFFFFFFFFFFFFFFFF AND DUP2 MSTORE PUSH1 0x20 ADD SWAP1 DUP2 MSTORE PUSH1 0x20 ADD PUSH0 KECCAK256 PUSH0 DUP6 PUSH20 0xFFFFFFFFFFFFFFFFFFFFFFFFFFFFFFFFFFFFFFFF AND PUSH20 0xFFFFFFFFFFFFFFFFFFFFFFFFFFFFFFFFFFFFFFFF AND DUP2 MSTORE PUSH1 0x20 ADD SWAP1 DUP2 MSTORE PUSH1 0x20 ADD PUSH0 KECCAK256 DUP2 SWAP1 SSTORE POP DUP1 ISZERO PUSH2 0xC00 JUMPI DUP3 PUSH20 0xFFFFFFFFFFFFFFFFFFFFFFFFFFFFFFFFFFFFFFFF AND DUP5 PUSH20 0xFFFFFFFFFFFFFFFFFFFFFFFFFFFFFFFFFFFFFFFF AND PUSH32 0x8C5BE1E5EBEC7D5BD14F71427D1E84F3DD0314C0F7B2291E5B200AC8C7C3B925 DUP5 PUSH1 0x40 MLOAD PUSH2 0xBF7 SWAP2 SWAP1 PUSH2 0xFC0 JUMP JUMPDEST PUSH1 0x40 MLOAD DUP1 SWAP2 SUB SWAP1 LOG3 JUMPDEST POP POP POP POP JUMP JUMPDEST PUSH0 PUSH20 0xFFFFFFFFFFFFFFFFFFFFFFFFFFFFFFFFFFFFFFFF AND DUP4 PUSH20 0xFFFFFFFFFFFFFFFFFFFFFFFFFFFFFFFFFFFFFFFF AND SUB PUSH2 0xC56 JUMPI DUP1 PUSH1 0x2 PUSH0 DUP3 DUP3 SLOAD PUSH2 0xC4A SWAP2 SWAP1 PUSH2 0x1440 JUMP JUMPDEST SWAP3 POP POP DUP2 SWAP1 SSTORE POP PUSH2 0xD24 JUMP JUMPDEST PUSH0 PUSH0 PUSH0 DUP6 PUSH20 0xFFFFFFFFFFFFFFFFFFFFFFFFFFFFFFFFFFFFFFFF AND PUSH20 0xFFFFFFFFFFFFFFFFFFFFFFFFFFFFFFFFFFFFFFFF AND DUP2 MSTORE PUSH1 0x20 ADD SWAP1 DUP2 MSTORE PUSH1 0x20 ADD PUSH0 KECCAK256 SLOAD SWAP1 POP DUP2 DUP2 LT ISZERO PUSH2 0xCDF JUMPI DUP4 DUP2 DUP4 PUSH1 0x40 MLOAD PUSH32 0xE450D38C00000000000000000000000000000000000000000000000000000000 DUP2 MSTORE PUSH1 0x4 ADD PUSH2 0xCD6 SWAP4 SWAP3 SWAP2 SWAP1 PUSH2 0x140B JUMP JUMPDEST PUSH1 0x40 MLOAD DUP1 SWAP2 SUB SWAP1 REVERT JUMPDEST DUP2 DUP2 SUB PUSH0 PUSH0 DUP7 PUSH20 0xFFFFFFFFFFFFFFFFFFFFFFFFFFFFFFFFFFFFFFFF AND PUSH20 0xFFFFFFFFFFFFFFFFFFFFFFFFFFFFFFFFFFFFFFFF AND DUP2 MSTORE PUSH1 0x20 ADD SWAP1 DUP2 MSTORE PUSH1 0x20 ADD PUSH0 KECCAK256 DUP2 SWAP1 SSTORE POP POP JUMPDEST PUSH0 PUSH20 0xFFFFFFFFFFFFFFFFFFFFFFFFFFFFFFFFFFFFFFFF AND DUP3 PUSH20 0xFFFFFFFFFFFFFFFFFFFFFFFFFFFFFFFFFFFFFFFF AND SUB PUSH2 0xD6B JUMPI DUP1 PUSH1 0x2 PUSH0 DUP3 DUP3 SLOAD SUB SWAP3 POP POP DUP2 SWAP1 SSTORE POP PUSH2 0xDB5 JUMP JUMPDEST DUP1 PUSH0 PUSH0 DUP5 PUSH20 0xFFFFFFFFFFFFFFFFFFFFFFFFFFFFFFFFFFFFFFFF AND PUSH20 0xFFFFFFFFFFFFFFFFFFFFFFFFFFFFFFFFFFFFFFFF AND DUP2 MSTORE PUSH1 0x20 ADD SWAP1 DUP2 MSTORE PUSH1 0x20 ADD PUSH0 KECCAK256 PUSH0 DUP3 DUP3 SLOAD ADD SWAP3 POP POP DUP2 SWAP1 SSTORE POP JUMPDEST DUP2 PUSH20 0xFFFFFFFFFFFFFFFFFFFFFFFFFFFFFFFFFFFFFFFF AND DUP4 PUSH20 0xFFFFFFFFFFFFFFFFFFFFFFFFFFFFFFFFFFFFFFFF AND PUSH32 0xDDF252AD1BE2C89B69C2B068FC378DAA952BA7F163C4A11628F55A4DF523B3EF DUP4 PUSH1 0x40 MLOAD PUSH2 0xE12 SWAP2 SWAP1 PUSH2 0xFC0 JUMP JUMPDEST PUSH1 0x40 MLOAD DUP1 SWAP2 SUB SWAP1 LOG3 POP POP POP JUMP JUMPDEST PUSH0 DUP2 MLOAD SWAP1 POP SWAP2 SWAP1 POP JUMP JUMPDEST PUSH0 DUP3 DUP3 MSTORE PUSH1 0x20 DUP3 ADD SWAP1 POP SWAP3 SWAP2 POP POP JUMP JUMPDEST DUP3 DUP2 DUP4 MCOPY PUSH0 DUP4 DUP4 ADD MSTORE POP POP POP JUMP JUMPDEST PUSH0 PUSH1 0x1F NOT PUSH1 0x1F DUP4 ADD AND SWAP1 POP SWAP2 SWAP1 POP JUMP JUMPDEST PUSH0 PUSH2 0xE61 DUP3 PUSH2 0xE1F JUMP JUMPDEST PUSH2 0xE6B DUP2 DUP6 PUSH2 0xE29 JUMP JUMPDEST SWAP4 POP PUSH2 0xE7B DUP2 DUP6 PUSH1 0x20 DUP7 ADD PUSH2 0xE39 JUMP JUMPDEST PUSH2 0xE84 DUP2 PUSH2 0xE47 JUMP JUMPDEST DUP5 ADD SWAP2 POP POP SWAP3 SWAP2 POP POP JUMP JUMPDEST PUSH0 PUSH1 0x20 DUP3 ADD SWAP1 POP DUP2 DUP2 SUB PUSH0 DUP4 ADD MSTORE PUSH2 0xEA7 DUP2 DUP5 PUSH2 0xE57 JUMP JUMPDEST SWAP1 POP SWAP3 SWAP2 POP POP JUMP JUMPDEST PUSH0 PUSH0 REVERT JUMPDEST PUSH0 PUSH20 0xFFFFFFFFFFFFFFFFFFFFFFFFFFFFFFFFFFFFFFFF DUP3 AND SWAP1 POP SWAP2 SWAP1 POP JUMP JUMPDEST PUSH0 PUSH2 0xEDC DUP3 PUSH2 0xEB3 JUMP JUMPDEST SWAP1 POP SWAP2 SWAP1 POP JUMP JUMPDEST PUSH2 0xEEC DUP2 PUSH2 0xED2 JUMP JUMPDEST DUP2 EQ PUSH2 0xEF6 JUMPI PUSH0 PUSH0 REVERT JUMPDEST POP JUMP JUMPDEST PUSH0 DUP2 CALLDATALOAD SWAP1 POP PUSH2 0xF07 DUP2 PUSH2 0xEE3 JUMP JUMPDEST SWAP3 SWAP2 POP POP JUMP JUMPDEST PUSH0 DUP2 SWAP1 POP SWAP2 SWAP1 POP JUMP JUMPDEST PUSH2 0xF1F DUP2 PUSH2 0xF0D JUMP JUMPDEST DUP2 EQ PUSH2 0xF29 JUMPI PUSH0 PUSH0 REVERT JUMPDEST POP JUMP JUMPDEST PUSH0 DUP2 CALLDATALOAD SWAP1 POP PUSH2 0xF3A DUP2 PUSH2 0xF16 JUMP JUMPDEST SWAP3 SWAP2 POP POP JUMP JUMPDEST PUSH0 PUSH0 PUSH1 0x40 DUP4 DUP6 SUB SLT ISZERO PUSH2 0xF56 JUMPI PUSH2 0xF55 PUSH2 0xEAF JUMP JUMPDEST JUMPDEST PUSH0 PUSH2 0xF63 DUP6 DUP3 DUP7 ADD PUSH2 0xEF9 JUMP JUMPDEST SWAP3 POP POP PUSH1 0x20 PUSH2 0xF74 DUP6 DUP3 DUP7 ADD PUSH2 0xF2C JUMP JUMPDEST SWAP2 POP POP SWAP3 POP SWAP3 SWAP1 POP JUMP JUMPDEST PUSH0 DUP2 ISZERO ISZERO SWAP1 POP SWAP2 SWAP1 POP JUMP JUMPDEST PUSH2 0xF92 DUP2 PUSH2 0xF7E JUMP JUMPDEST DUP3 MSTORE POP POP JUMP JUMPDEST PUSH0 PUSH1 0x20 DUP3 ADD SWAP1 POP PUSH2 0xFAB PUSH0 DUP4 ADD DUP5 PUSH2 0xF89 JUMP JUMPDEST SWAP3 SWAP2 POP POP JUMP JUMPDEST PUSH2 0xFBA DUP2 PUSH2 0xF0D JUMP JUMPDEST DUP3 MSTORE POP POP JUMP JUMPDEST PUSH0 PUSH1 0x20 DUP3 ADD SWAP1 POP PUSH2 0xFD3 PUSH0 DUP4 ADD DUP5 PUSH2 0xFB1 JUMP JUMPDEST SWAP3 SWAP2 POP POP JUMP JUMPDEST PUSH0 PUSH0 PUSH0 PUSH1 0x60 DUP5 DUP7 SUB SLT ISZERO PUSH2 0xFF0 JUMPI PUSH2 0xFEF PUSH2 0xEAF JUMP JUMPDEST JUMPDEST PUSH0 PUSH2 0xFFD DUP7 DUP3 DUP8 ADD PUSH2 0xEF9 JUMP JUMPDEST SWAP4 POP POP PUSH1 0x20 PUSH2 0x100E DUP7 DUP3 DUP8 ADD PUSH2 0xEF9 JUMP JUMPDEST SWAP3 POP POP PUSH1 0x40 PUSH2 0x101F DUP7 DUP3 DUP8 ADD PUSH2 0xF2C JUMP JUMPDEST SWAP2 POP POP SWAP3 POP SWAP3 POP SWAP3 JUMP JUMPDEST PUSH0 PUSH1 0xFF DUP3 AND SWAP1 POP SWAP2 SWAP1 POP JUMP JUMPDEST PUSH2 0x103E DUP2 PUSH2 0x1029 JUMP JUMPDEST DUP3 MSTORE POP POP JUMP JUMPDEST PUSH0 PUSH1 0x20 DUP3 ADD SWAP1 POP PUSH2 0x1057 PUSH0 DUP4 ADD DUP5 PUSH2 0x1035 JUMP JUMPDEST SWAP3 SWAP2 POP POP JUMP JUMPDEST PUSH0 PUSH1 0x20 DUP3 DUP5 SUB SLT ISZERO PUSH2 0x1072 JUMPI PUSH2 0x1071 PUSH2 0xEAF JUMP JUMPDEST JUMPDEST PUSH0 PUSH2 0x107F DUP5 DUP3 DUP6 ADD PUSH2 0xEF9 JUMP JUMPDEST SWAP2 POP POP SWAP3 SWAP2 POP POP JUMP JUMPDEST PUSH0 DUP2 SWAP1 POP SWAP2 SWAP1 POP JUMP JUMPDEST PUSH2 0x109A DUP2 PUSH2 0x1088 JUMP JUMPDEST DUP3 MSTORE POP POP JUMP JUMPDEST PUSH0 PUSH1 0x20 DUP3 ADD SWAP1 POP PUSH2 0x10B3 PUSH0 DUP4 ADD DUP5 PUSH2 0x1091 JUMP JUMPDEST SWAP3 SWAP2 POP POP JUMP JUMPDEST PUSH2 0x10C2 DUP2 PUSH2 0xED2 JUMP JUMPDEST DUP3 MSTORE POP POP JUMP JUMPDEST PUSH0 PUSH1 0x20 DUP3 ADD SWAP1 POP PUSH2 0x10DB PUSH0 DUP4 ADD DUP5 PUSH2 0x10B9 JUMP JUMPDEST SWAP3 SWAP2 POP POP JUMP JUMPDEST PUSH0 PUSH0 PUSH1 0x40 DUP4 DUP6 SUB SLT ISZERO PUSH2 0x10F7 JUMPI PUSH2 0x10F6 PUSH2 0xEAF JUMP JUMPDEST JUMPDEST PUSH0 PUSH2 0x1104 DUP6 DUP3 DUP7 ADD PUSH2 0xEF9 JUMP JUMPDEST SWAP3 POP POP PUSH1 0x20 PUSH2 0x1115 DUP6 DUP3 DUP7 ADD PUSH2 0xEF9 JUMP JUMPDEST SWAP2 POP POP SWAP3 POP SWAP3 SWAP1 POP JUMP JUMPDEST PUSH32 0x4E487B7100000000000000000000000000000000000000000000000000000000 PUSH0 MSTORE PUSH1 0x22 PUSH1 0x4 MSTORE PUSH1 0x24 PUSH0 REVERT JUMPDEST PUSH0 PUSH1 0x2 DUP3 DIV SWAP1 POP PUSH1 0x1 DUP3 AND DUP1 PUSH2 0x1163 JUMPI PUSH1 0x7F DUP3 AND SWAP2 POP JUMPDEST PUSH1 0x20 DUP3 LT DUP2 SUB PUSH2 0x1176 JUMPI PUSH2 0x1175 PUSH2 0x111F JUMP JUMPDEST JUMPDEST POP SWAP2 SWAP1 POP JUMP JUMPDEST PUSH0 PUSH10 0xFFFFFFFFFFFFFFFFFFFF DUP3 AND SWAP1 POP SWAP2 SWAP1 POP JUMP JUMPDEST PUSH2 0x119A DUP2 PUSH2 0x117C JUMP JUMPDEST DUP2 EQ PUSH2 0x11A4 JUMPI PUSH0 PUSH0 REVERT JUMPDEST POP JUMP JUMPDEST PUSH0 DUP2 MLOAD SWAP1 POP PUSH2 0x11B5 DUP2 PUSH2 0x1191 JUMP JUMPDEST SWAP3 SWAP2 POP POP JUMP JUMPDEST PUSH2 0x11C4 DUP2 PUSH2 0x1088 JUMP JUMPDEST DUP2 EQ PUSH2 0x11CE JUMPI PUSH0 PUSH0 REVERT JUMPDEST POP JUMP JUMPDEST PUSH0 DUP2 MLOAD SWAP1 POP PUSH2 0x11DF DUP2 PUSH2 0x11BB JUMP JUMPDEST SWAP3 SWAP2 POP POP JUMP JUMPDEST PUSH0 DUP2 MLOAD SWAP1 POP PUSH2 0x11F3 DUP2 PUSH2 0xF16 JUMP JUMPDEST SWAP3 SWAP2 POP POP JUMP JUMPDEST PUSH0 PUSH0 PUSH0 PUSH0 PUSH0 PUSH1 0xA0 DUP7 DUP9 SUB SLT ISZERO PUSH2 0x1212 JUMPI PUSH2 0x1211 PUSH2 0xEAF JUMP JUMPDEST JUMPDEST PUSH0 PUSH2 0x121F DUP9 DUP3 DUP10 ADD PUSH2 0x11A7 JUMP JUMPDEST SWAP6 POP POP PUSH1 0x20 PUSH2 0x1230 DUP9 DUP3 DUP10 ADD PUSH2 0x11D1 JUMP JUMPDEST SWAP5 POP POP PUSH1 0x40 PUSH2 0x1241 DUP9 DUP3 DUP10 ADD PUSH2 0x11E5 JUMP JUMPDEST SWAP4 POP POP PUSH1 0x60 PUSH2 0x1252 DUP9 DUP3 DUP10 ADD PUSH2 0x11E5 JUMP JUMPDEST SWAP3 POP POP PUSH1 0x80 PUSH2 0x1263 DUP9 DUP3 DUP10 ADD PUSH2 0x11A7 JUMP JUMPDEST SWAP2 POP POP SWAP3 SWAP6 POP SWAP3 SWAP6 SWAP1 SWAP4 POP JUMP JUMPDEST PUSH32 0x4D7573742073656E642045544820746F206D696E7420746F6B656E7300000000 PUSH0 DUP3 ADD MSTORE POP JUMP JUMPDEST PUSH0 PUSH2 0x12A4 PUSH1 0x1C DUP4 PUSH2 0xE29 JUMP JUMPDEST SWAP2 POP PUSH2 0x12AF DUP3 PUSH2 0x1270 JUMP JUMPDEST PUSH1 0x20 DUP3 ADD SWAP1 POP SWAP2 SWAP1 POP JUMP JUMPDEST PUSH0 PUSH1 0x20 DUP3 ADD SWAP1 POP DUP2 DUP2 SUB PUSH0 DUP4 ADD MSTORE PUSH2 0x12D1 DUP2 PUSH2 0x1298 JUMP JUMPDEST SWAP1 POP SWAP2 SWAP1 POP JUMP JUMPDEST PUSH32 0x496E76616C6964206F7261636C65207072696365000000000000000000000000 PUSH0 DUP3 ADD MSTORE POP JUMP JUMPDEST PUSH0 PUSH2 0x130C PUSH1 0x14 DUP4 PUSH2 0xE29 JUMP JUMPDEST SWAP2 POP PUSH2 0x1317 DUP3 PUSH2 0x12D8 JUMP JUMPDEST PUSH1 0x20 DUP3 ADD SWAP1 POP SWAP2 SWAP1 POP JUMP JUMPDEST PUSH0 PUSH1 0x20 DUP3 ADD SWAP1 POP DUP2 DUP2 SUB PUSH0 DUP4 ADD MSTORE PUSH2 0x1339 DUP2 PUSH2 0x1300 JUMP JUMPDEST SWAP1 POP SWAP2 SWAP1 POP JUMP JUMPDEST PUSH32 0x4E487B7100000000000000000000000000000000000000000000000000000000 PUSH0 MSTORE PUSH1 0x11 PUSH1 0x4 MSTORE PUSH1 0x24 PUSH0 REVERT JUMPDEST PUSH0 PUSH2 0x1377 DUP3 PUSH2 0xF0D JUMP JUMPDEST SWAP2 POP PUSH2 0x1382 DUP4 PUSH2 0xF0D JUMP JUMPDEST SWAP3 POP DUP3 DUP3 MUL PUSH2 0x1390 DUP2 PUSH2 0xF0D JUMP JUMPDEST SWAP2 POP DUP3 DUP3 DIV DUP5 EQ DUP4 ISZERO OR PUSH2 0x13A7 JUMPI PUSH2 0x13A6 PUSH2 0x1340 JUMP JUMPDEST JUMPDEST POP SWAP3 SWAP2 POP POP JUMP JUMPDEST PUSH32 0x4E487B7100000000000000000000000000000000000000000000000000000000 PUSH0 MSTORE PUSH1 0x12 PUSH1 0x4 MSTORE PUSH1 0x24 PUSH0 REVERT JUMPDEST PUSH0 PUSH2 0x13E5 DUP3 PUSH2 0xF0D JUMP JUMPDEST SWAP2 POP PUSH2 0x13F0 DUP4 PUSH2 0xF0D JUMP JUMPDEST SWAP3 POP DUP3 PUSH2 0x1400 JUMPI PUSH2 0x13FF PUSH2 0x13AE JUMP JUMPDEST JUMPDEST DUP3 DUP3 DIV SWAP1 POP SWAP3 SWAP2 POP POP JUMP JUMPDEST PUSH0 PUSH1 0x60 DUP3 ADD SWAP1 POP PUSH2 0x141E PUSH0 DUP4 ADD DUP7 PUSH2 0x10B9 JUMP JUMPDEST PUSH2 0x142B PUSH1 0x20 DUP4 ADD DUP6 PUSH2 0xFB1 JUMP JUMPDEST PUSH2 0x1438 PUSH1 0x40 DUP4 ADD DUP5 PUSH2 0xFB1 JUMP JUMPDEST SWAP5 SWAP4 POP POP POP POP JUMP JUMPDEST PUSH0 PUSH2 0x144A DUP3 PUSH2 0xF0D JUMP JUMPDEST SWAP2 POP PUSH2 0x1455 DUP4 PUSH2 0xF0D JUMP JUMPDEST SWAP3 POP DUP3 DUP3 ADD SWAP1 POP DUP1 DUP3 GT ISZERO PUSH2 0x146D JUMPI PUSH2 0x146C PUSH2 0x1340 JUMP JUMPDEST JUMPDEST SWAP3 SWAP2 POP POP JUMP INVALID LOG2 PUSH5 0x6970667358 0x22 SLT KECCAK256 INVALID 0x2A PUSH13 0x45C2D86B721FAB0B0039A3D3F6 RETF 0xB3 0xD8 DUP6 RETURNCONTRACT 0x93 SWAP11 BLOBBASEFEE PUSH13 0x4DACADA0669B7264736F6C6343 STOP ADDMOD 0x1E STOP CALLER "
				},
				"gasEstimates": {
					"creation": {
						"codeDepositCost": "1057800",
						"executionCost": "infinite",
						"totalCost": "infinite"
					},
					"external": {
						"allowance(address,address)": "infinite",
						"approve(address,uint256)": "infinite",
						"balanceOf(address)": "2939",
						"decimals()": "427",
						"getLatestBtcPrice()": "infinite",
						"mintWithEther()": "infinite",
						"name()": "infinite",
						"owner()": "2530",
						"symbol()": "infinite",
						"totalSupply()": "2477",
						"transfer(address,uint256)": "infinite",
						"transferFrom(address,address,uint256)": "infinite"
					}
				},
				"methodIdentifiers": {
					"allowance(address,address)": "dd62ed3e",
					"approve(address,uint256)": "095ea7b3",
					"balanceOf(address)": "70a08231",
					"decimals()": "313ce567",
					"getLatestBtcPrice()": "7b9629db",
					"mintWithEther()": "bc4d2797",
					"name()": "06fdde03",
					"owner()": "8da5cb5b",
					"symbol()": "95d89b41",
					"totalSupply()": "18160ddd",
					"transfer(address,uint256)": "a9059cbb",
					"transferFrom(address,address,uint256)": "23b872dd"
				}
			},
			"storageLayout": {
				"storage": [
					{
						"astId": 324,
						"contract": "SyntheticAssetToken_flattened.sol:SyntheticAssetToken",
						"label": "_balances",
						"offset": 0,
						"slot": "0",
						"type": "t_mapping(t_address,t_uint256)"
					},
					{
						"astId": 330,
						"contract": "SyntheticAssetToken_flattened.sol:SyntheticAssetToken",
						"label": "_allowances",
						"offset": 0,
						"slot": "1",
						"type": "t_mapping(t_address,t_mapping(t_address,t_uint256))"
					},
					{
						"astId": 332,
						"contract": "SyntheticAssetToken_flattened.sol:SyntheticAssetToken",
						"label": "_totalSupply",
						"offset": 0,
						"slot": "2",
						"type": "t_uint256"
					},
					{
						"astId": 334,
						"contract": "SyntheticAssetToken_flattened.sol:SyntheticAssetToken",
						"label": "_name",
						"offset": 0,
						"slot": "3",
						"type": "t_string_storage"
					},
					{
						"astId": 336,
						"contract": "SyntheticAssetToken_flattened.sol:SyntheticAssetToken",
						"label": "_symbol",
						"offset": 0,
						"slot": "4",
						"type": "t_string_storage"
					},
					{
						"astId": 822,
						"contract": "SyntheticAssetToken_flattened.sol:SyntheticAssetToken",
						"label": "ethUsdPriceFeed",
						"offset": 0,
						"slot": "5",
						"type": "t_contract(AggregatorV3Interface)45"
					},
					{
						"astId": 825,
						"contract": "SyntheticAssetToken_flattened.sol:SyntheticAssetToken",
						"label": "btcUsdPriceFeed",
						"offset": 0,
						"slot": "6",
						"type": "t_contract(AggregatorV3Interface)45"
					},
					{
						"astId": 827,
						"contract": "SyntheticAssetToken_flattened.sol:SyntheticAssetToken",
						"label": "owner",
						"offset": 0,
						"slot": "7",
						"type": "t_address"
					}
				],
				"types": {
					"t_address": {
						"encoding": "inplace",
						"label": "address",
						"numberOfBytes": "20"
					},
					"t_contract(AggregatorV3Interface)45": {
						"encoding": "inplace",
						"label": "contract AggregatorV3Interface",
						"numberOfBytes": "20"
					},
					"t_mapping(t_address,t_mapping(t_address,t_uint256))": {
						"encoding": "mapping",
						"key": "t_address",
						"label": "mapping(address => mapping(address => uint256))",
						"numberOfBytes": "32",
						"value": "t_mapping(t_address,t_uint256)"
					},
					"t_mapping(t_address,t_uint256)": {
						"encoding": "mapping",
						"key": "t_address",
						"label": "mapping(address => uint256)",
						"numberOfBytes": "32",
						"value": "t_uint256"
					},
					"t_string_storage": {
						"encoding": "bytes",
						"label": "string",
						"numberOfBytes": "32"
					},
					"t_uint256": {
						"encoding": "inplace",
						"label": "uint256",
						"numberOfBytes": "32"
					}
				}
			},
			"userdoc": {
				"kind": "user",
				"methods": {},
				"version": 1
			}
		}
	}
}